{
	"doctors.sol": {
		"Doctor": {
			"abi": [
				{
					"inputs": [],
					"stateMutability": "nonpayable",
					"type": "constructor"
				},
				{
					"inputs": [
						{
							"internalType": "uint16",
							"name": "doctor_id",
							"type": "uint16"
						}
					],
					"name": "retreive_doctor_details",
					"outputs": [
						{
							"internalType": "string",
							"name": "",
							"type": "string"
						},
						{
							"internalType": "string",
							"name": "",
							"type": "string"
						},
						{
							"internalType": "uint256",
							"name": "",
							"type": "uint256"
						},
						{
							"internalType": "string",
							"name": "",
							"type": "string"
						}
					],
					"stateMutability": "view",
					"type": "function"
				},
				{
					"inputs": [
						{
							"internalType": "uint16",
							"name": "doctor_id",
							"type": "uint16"
						},
						{
							"internalType": "string",
							"name": "_doctor_name",
							"type": "string"
						},
						{
							"internalType": "string",
							"name": "_doctor_specialisation",
							"type": "string"
						},
						{
							"internalType": "uint256",
							"name": "_doctor_ph_no",
							"type": "uint256"
						},
						{
							"internalType": "string",
							"name": "_doctor_address",
							"type": "string"
						}
					],
					"name": "store_doctor_details",
					"outputs": [],
					"stateMutability": "nonpayable",
					"type": "function"
				}
			],
			"devdoc": {
				"kind": "dev",
				"methods": {},
				"version": 1
			},
			"evm": {
				"assembly": "    /* \"doctors.sol\":65:1486  contract Doctor {\r... */\n  mstore(0x40, 0x80)\n    /* \"doctors.sol\":374:491  constructor()  public {\r... */\n  callvalue\n  dup1\n  iszero\n  tag_1\n  jumpi\n  0x00\n  dup1\n  revert\ntag_1:\n  pop\n    /* \"doctors.sol\":417:459  0xeC8fB7078745Ee30846C6EB98a4c8F896fa7Eabd */\n  0xec8fb7078745ee30846c6eb98a4c8f896fa7eabd\n    /* \"doctors.sol\":409:414  owner */\n  0x05\n  0x00\n    /* \"doctors.sol\":409:459  owner = 0xeC8fB7078745Ee30846C6EB98a4c8F896fa7Eabd */\n  0x0100\n  exp\n  dup2\n  sload\n  dup2\n  0xffffffffffffffffffffffffffffffffffffffff\n  mul\n  not\n  and\n  swap1\n  dup4\n  0xffffffffffffffffffffffffffffffffffffffff\n  and\n  mul\n  or\n  swap1\n  sstore\n  pop\n    /* \"doctors.sol\":65:1486  contract Doctor {\r... */\n  dataSize(sub_0)\n  dup1\n  dataOffset(sub_0)\n  0x00\n  codecopy\n  0x00\n  return\nstop\n\nsub_0: assembly {\n        /* \"doctors.sol\":65:1486  contract Doctor {\r... */\n      mstore(0x40, 0x80)\n      callvalue\n      dup1\n      iszero\n      tag_1\n      jumpi\n      0x00\n      dup1\n      revert\n    tag_1:\n      pop\n      jumpi(tag_2, lt(calldatasize, 0x04))\n      shr(0xe0, calldataload(0x00))\n      dup1\n      0x68bdecfe\n      eq\n      tag_3\n      jumpi\n      dup1\n      0x6cac3a18\n      eq\n      tag_4\n      jumpi\n    tag_2:\n      0x00\n      dup1\n      revert\n        /* \"doctors.sol\":1156:1454  function retreive_doctor_details(uint16 doctor_id) public view returns (string memory,string memory,uint256,string memory){\r... */\n    tag_3:\n      tag_5\n      0x04\n      dup1\n      calldatasize\n      sub\n      dup2\n      add\n      swap1\n      tag_6\n      swap2\n      swap1\n      tag_7\n      jump\t// in\n    tag_6:\n      tag_8\n      jump\t// in\n    tag_5:\n      mload(0x40)\n      tag_9\n      swap5\n      swap4\n      swap3\n      swap2\n      swap1\n      tag_10\n      jump\t// in\n    tag_9:\n      mload(0x40)\n      dup1\n      swap2\n      sub\n      swap1\n      return\n        /* \"doctors.sol\":688:1145  function store_doctor_details(uint16 doctor_id,string memory _doctor_name,string memory _doctor_specialisation,uint256 _doctor_ph_no,string memory _doctor_address)public isOwner {\r... */\n    tag_4:\n      tag_11\n      0x04\n      dup1\n      calldatasize\n      sub\n      dup2\n      add\n      swap1\n      tag_12\n      swap2\n      swap1\n      tag_13\n      jump\t// in\n    tag_12:\n      tag_14\n      jump\t// in\n    tag_11:\n      stop\n        /* \"doctors.sol\":1156:1454  function retreive_doctor_details(uint16 doctor_id) public view returns (string memory,string memory,uint256,string memory){\r... */\n    tag_8:\n        /* \"doctors.sol\":1228:1241  string memory */\n      0x60\n        /* \"doctors.sol\":1242:1255  string memory */\n      dup1\n        /* \"doctors.sol\":1256:1263  uint256 */\n      0x00\n        /* \"doctors.sol\":1264:1277  string memory */\n      0x60\n        /* \"doctors.sol\":1301:1316  doctor memory d */\n      0x00\n        /* \"doctors.sol\":1319:1329  doctorlist */\n      dup1\n        /* \"doctors.sol\":1319:1340  doctorlist[doctor_id] */\n      0x00\n        /* \"doctors.sol\":1330:1339  doctor_id */\n      dup8\n        /* \"doctors.sol\":1319:1340  doctorlist[doctor_id] */\n      0xffff\n      and\n      dup2\n      mstore\n      0x20\n      add\n      swap1\n      dup2\n      mstore\n      0x20\n      add\n      0x00\n      keccak256\n        /* \"doctors.sol\":1301:1340  doctor memory d = doctorlist[doctor_id] */\n      mload(0x40)\n      dup1\n      0x80\n      add\n      0x40\n      mstore\n      swap1\n      dup2\n      0x00\n      dup3\n      add\n      dup1\n      sload\n      tag_16\n      swap1\n      tag_17\n      jump\t// in\n    tag_16:\n      dup1\n      0x1f\n      add\n      0x20\n      dup1\n      swap2\n      div\n      mul\n      0x20\n      add\n      mload(0x40)\n      swap1\n      dup2\n      add\n      0x40\n      mstore\n      dup1\n      swap3\n      swap2\n      swap1\n      dup2\n      dup2\n      mstore\n      0x20\n      add\n      dup3\n      dup1\n      sload\n      tag_18\n      swap1\n      tag_17\n      jump\t// in\n    tag_18:\n      dup1\n      iszero\n      tag_19\n      jumpi\n      dup1\n      0x1f\n      lt\n      tag_20\n      jumpi\n      0x0100\n      dup1\n      dup4\n      sload\n      div\n      mul\n      dup4\n      mstore\n      swap2\n      0x20\n      add\n      swap2\n      jump(tag_19)\n    tag_20:\n      dup3\n      add\n      swap2\n      swap1\n      0x00\n      mstore\n      keccak256(0x00, 0x20)\n      swap1\n    tag_21:\n      dup2\n      sload\n      dup2\n      mstore\n      swap1\n      0x01\n      add\n      swap1\n      0x20\n      add\n      dup1\n      dup4\n      gt\n      tag_21\n      jumpi\n      dup3\n      swap1\n      sub\n      0x1f\n      and\n      dup3\n      add\n      swap2\n    tag_19:\n      pop\n      pop\n      pop\n      pop\n      pop\n      dup2\n      mstore\n      0x20\n      add\n      0x01\n      dup3\n      add\n      dup1\n      sload\n      tag_22\n      swap1\n      tag_17\n      jump\t// in\n    tag_22:\n      dup1\n      0x1f\n      add\n      0x20\n      dup1\n      swap2\n      div\n      mul\n      0x20\n      add\n      mload(0x40)\n      swap1\n      dup2\n      add\n      0x40\n      mstore\n      dup1\n      swap3\n      swap2\n      swap1\n      dup2\n      dup2\n      mstore\n      0x20\n      add\n      dup3\n      dup1\n      sload\n      tag_23\n      swap1\n      tag_17\n      jump\t// in\n    tag_23:\n      dup1\n      iszero\n      tag_24\n      jumpi\n      dup1\n      0x1f\n      lt\n      tag_25\n      jumpi\n      0x0100\n      dup1\n      dup4\n      sload\n      div\n      mul\n      dup4\n      mstore\n      swap2\n      0x20\n      add\n      swap2\n      jump(tag_24)\n    tag_25:\n      dup3\n      add\n      swap2\n      swap1\n      0x00\n      mstore\n      keccak256(0x00, 0x20)\n      swap1\n    tag_26:\n      dup2\n      sload\n      dup2\n      mstore\n      swap1\n      0x01\n      add\n      swap1\n      0x20\n      add\n      dup1\n      dup4\n      gt\n      tag_26\n      jumpi\n      dup3\n      swap1\n      sub\n      0x1f\n      and\n      dup3\n      add\n      swap2\n    tag_24:\n      pop\n      pop\n      pop\n      pop\n      pop\n      dup2\n      mstore\n      0x20\n      add\n      0x02\n      dup3\n      add\n      sload\n      dup2\n      mstore\n      0x20\n      add\n      0x03\n      dup3\n      add\n      dup1\n      sload\n      tag_27\n      swap1\n      tag_17\n      jump\t// in\n    tag_27:\n      dup1\n      0x1f\n      add\n      0x20\n      dup1\n      swap2\n      div\n      mul\n      0x20\n      add\n      mload(0x40)\n      swap1\n      dup2\n      add\n      0x40\n      mstore\n      dup1\n      swap3\n      swap2\n      swap1\n      dup2\n      dup2\n      mstore\n      0x20\n      add\n      dup3\n      dup1\n      sload\n      tag_28\n      swap1\n      tag_17\n      jump\t// in\n    tag_28:\n      dup1\n      iszero\n      tag_29\n      jumpi\n      dup1\n      0x1f\n      lt\n      tag_30\n      jumpi\n      0x0100\n      dup1\n      dup4\n      sload\n      div\n      mul\n      dup4\n      mstore\n      swap2\n      0x20\n      add\n      swap2\n      jump(tag_29)\n    tag_30:\n      dup3\n      add\n      swap2\n      swap1\n      0x00\n      mstore\n      keccak256(0x00, 0x20)\n      swap1\n    tag_31:\n      dup2\n      sload\n      dup2\n      mstore\n      swap1\n      0x01\n      add\n      swap1\n      0x20\n      add\n      dup1\n      dup4\n      gt\n      tag_31\n      jumpi\n      dup3\n      swap1\n      sub\n      0x1f\n      and\n      dup3\n      add\n      swap2\n    tag_29:\n      pop\n      pop\n      pop\n      pop\n      pop\n      dup2\n      mstore\n      pop\n      pop\n      swap1\n      pop\n        /* \"doctors.sol\":1363:1364  d */\n      dup1\n        /* \"doctors.sol\":1363:1376  d.doctor_name */\n      0x00\n      add\n      mload\n        /* \"doctors.sol\":1377:1378  d */\n      dup2\n        /* \"doctors.sol\":1377:1400  d.doctor_specialisation */\n      0x20\n      add\n      mload\n        /* \"doctors.sol\":1401:1402  d */\n      dup3\n        /* \"doctors.sol\":1401:1415  d.doctor_ph_no */\n      0x40\n      add\n      mload\n        /* \"doctors.sol\":1416:1417  d */\n      dup4\n        /* \"doctors.sol\":1416:1432  d.doctor_address */\n      0x60\n      add\n      mload\n        /* \"doctors.sol\":1355:1433  return (d.doctor_name,d.doctor_specialisation,d.doctor_ph_no,d.doctor_address) */\n      swap5\n      pop\n      swap5\n      pop\n      swap5\n      pop\n      swap5\n      pop\n      pop\n        /* \"doctors.sol\":1156:1454  function retreive_doctor_details(uint16 doctor_id) public view returns (string memory,string memory,uint256,string memory){\r... */\n      swap2\n      swap4\n      pop\n      swap2\n      swap4\n      jump\t// out\n        /* \"doctors.sol\":688:1145  function store_doctor_details(uint16 doctor_id,string memory _doctor_name,string memory _doctor_specialisation,uint256 _doctor_ph_no,string memory _doctor_address)public isOwner {\r... */\n    tag_14:\n        /* \"doctors.sol\":613:618  owner */\n      0x05\n      0x00\n      swap1\n      sload\n      swap1\n      0x0100\n      exp\n      swap1\n      div\n      0xffffffffffffffffffffffffffffffffffffffff\n      and\n        /* \"doctors.sol\":599:618  msg.sender == owner */\n      0xffffffffffffffffffffffffffffffffffffffff\n      and\n        /* \"doctors.sol\":599:609  msg.sender */\n      caller\n        /* \"doctors.sol\":599:618  msg.sender == owner */\n      0xffffffffffffffffffffffffffffffffffffffff\n      and\n      eq\n        /* \"doctors.sol\":591:644  require(msg.sender == owner, \"Access is not allowed\") */\n      tag_33\n      jumpi\n      mload(0x40)\n      0x08c379a000000000000000000000000000000000000000000000000000000000\n      dup2\n      mstore\n      0x04\n      add\n      tag_34\n      swap1\n      tag_35\n      jump\t// in\n    tag_34:\n      mload(0x40)\n      dup1\n      swap2\n      sub\n      swap1\n      revert\n    tag_33:\n        /* \"doctors.sol\":900:912  _doctor_name */\n      dup4\n        /* \"doctors.sol\":884:885  d */\n      0x01\n        /* \"doctors.sol\":884:897  d.doctor_name */\n      0x00\n      add\n        /* \"doctors.sol\":884:912  d.doctor_name = _doctor_name */\n      swap1\n      dup1\n      mload\n      swap1\n      0x20\n      add\n      swap1\n      tag_37\n      swap3\n      swap2\n      swap1\n      tag_38\n      jump\t// in\n    tag_37:\n      pop\n        /* \"doctors.sol\":950:972  _doctor_specialisation */\n      dup3\n        /* \"doctors.sol\":924:925  d */\n      0x01\n        /* \"doctors.sol\":924:947  d.doctor_specialisation */\n      dup1\n      add\n        /* \"doctors.sol\":924:972  d.doctor_specialisation = _doctor_specialisation */\n      swap1\n      dup1\n      mload\n      swap1\n      0x20\n      add\n      swap1\n      tag_39\n      swap3\n      swap2\n      swap1\n      tag_38\n      jump\t// in\n    tag_39:\n      pop\n        /* \"doctors.sol\":1001:1014  _doctor_ph_no */\n      dup2\n        /* \"doctors.sol\":984:985  d */\n      0x01\n        /* \"doctors.sol\":984:998  d.doctor_ph_no */\n      0x02\n      add\n        /* \"doctors.sol\":984:1014  d.doctor_ph_no = _doctor_ph_no */\n      dup2\n      swap1\n      sstore\n      pop\n        /* \"doctors.sol\":1045:1060  _doctor_address */\n      dup1\n        /* \"doctors.sol\":1026:1027  d */\n      0x01\n        /* \"doctors.sol\":1026:1042  d.doctor_address */\n      0x03\n      add\n        /* \"doctors.sol\":1026:1060  d.doctor_address = _doctor_address */\n      swap1\n      dup1\n      mload\n      swap1\n      0x20\n      add\n      swap1\n      tag_40\n      swap3\n      swap2\n      swap1\n      tag_38\n      jump\t// in\n    tag_40:\n      pop\n        /* \"doctors.sol\":1117:1118  d */\n      0x01\n        /* \"doctors.sol\":1093:1103  doctorlist */\n      0x00\n        /* \"doctors.sol\":1093:1114  doctorlist[doctor_id] */\n      dup1\n        /* \"doctors.sol\":1104:1113  doctor_id */\n      dup8\n        /* \"doctors.sol\":1093:1114  doctorlist[doctor_id] */\n      0xffff\n      and\n      dup2\n      mstore\n      0x20\n      add\n      swap1\n      dup2\n      mstore\n      0x20\n      add\n      0x00\n      keccak256\n        /* \"doctors.sol\":1093:1118  doctorlist[doctor_id] = d */\n      0x00\n      dup3\n      add\n      dup2\n      0x00\n      add\n      swap1\n      dup1\n      sload\n      tag_41\n      swap1\n      tag_17\n      jump\t// in\n    tag_41:\n      tag_42\n      swap3\n      swap2\n      swap1\n      tag_43\n      jump\t// in\n    tag_42:\n      pop\n      0x01\n      dup3\n      add\n      dup2\n      0x01\n      add\n      swap1\n      dup1\n      sload\n      tag_44\n      swap1\n      tag_17\n      jump\t// in\n    tag_44:\n      tag_45\n      swap3\n      swap2\n      swap1\n      tag_43\n      jump\t// in\n    tag_45:\n      pop\n      0x02\n      dup3\n      add\n      sload\n      dup2\n      0x02\n      add\n      sstore\n      0x03\n      dup3\n      add\n      dup2\n      0x03\n      add\n      swap1\n      dup1\n      sload\n      tag_46\n      swap1\n      tag_17\n      jump\t// in\n    tag_46:\n      tag_47\n      swap3\n      swap2\n      swap1\n      tag_43\n      jump\t// in\n    tag_47:\n      pop\n      swap1\n      pop\n      pop\n        /* \"doctors.sol\":688:1145  function store_doctor_details(uint16 doctor_id,string memory _doctor_name,string memory _doctor_specialisation,uint256 _doctor_ph_no,string memory _doctor_address)public isOwner {\r... */\n      pop\n      pop\n      pop\n      pop\n      pop\n      jump\t// out\n    tag_38:\n      dup3\n      dup1\n      sload\n      tag_48\n      swap1\n      tag_17\n      jump\t// in\n    tag_48:\n      swap1\n      0x00\n      mstore\n      keccak256(0x00, 0x20)\n      swap1\n      0x1f\n      add\n      0x20\n      swap1\n      div\n      dup2\n      add\n      swap3\n      dup3\n      tag_50\n      jumpi\n      0x00\n      dup6\n      sstore\n      jump(tag_49)\n    tag_50:\n      dup3\n      0x1f\n      lt\n      tag_51\n      jumpi\n      dup1\n      mload\n      not(0xff)\n      and\n      dup4\n      dup1\n      add\n      or\n      dup6\n      sstore\n      jump(tag_49)\n    tag_51:\n      dup3\n      dup1\n      add\n      0x01\n      add\n      dup6\n      sstore\n      dup3\n      iszero\n      tag_49\n      jumpi\n      swap2\n      dup3\n      add\n    tag_52:\n      dup3\n      dup2\n      gt\n      iszero\n      tag_53\n      jumpi\n      dup3\n      mload\n      dup3\n      sstore\n      swap2\n      0x20\n      add\n      swap2\n      swap1\n      0x01\n      add\n      swap1\n      jump(tag_52)\n    tag_53:\n    tag_49:\n      pop\n      swap1\n      pop\n      tag_54\n      swap2\n      swap1\n      tag_55\n      jump\t// in\n    tag_54:\n      pop\n      swap1\n      jump\t// out\n    tag_43:\n      dup3\n      dup1\n      sload\n      tag_56\n      swap1\n      tag_17\n      jump\t// in\n    tag_56:\n      swap1\n      0x00\n      mstore\n      keccak256(0x00, 0x20)\n      swap1\n      0x1f\n      add\n      0x20\n      swap1\n      div\n      dup2\n      add\n      swap3\n      dup3\n      tag_58\n      jumpi\n      0x00\n      dup6\n      sstore\n      jump(tag_57)\n    tag_58:\n      dup3\n      0x1f\n      lt\n      tag_59\n      jumpi\n      dup1\n      sload\n      dup6\n      sstore\n      jump(tag_57)\n    tag_59:\n      dup3\n      dup1\n      add\n      0x01\n      add\n      dup6\n      sstore\n      dup3\n      iszero\n      tag_57\n      jumpi\n      0x00\n      mstore\n      keccak256(0x00, 0x20)\n      swap2\n      0x1f\n      add\n      0x20\n      swap1\n      div\n      dup3\n      add\n    tag_60:\n      dup3\n      dup2\n      gt\n      iszero\n      tag_61\n      jumpi\n      dup3\n      sload\n      dup3\n      sstore\n      swap2\n      0x01\n      add\n      swap2\n      swap1\n      0x01\n      add\n      swap1\n      jump(tag_60)\n    tag_61:\n    tag_57:\n      pop\n      swap1\n      pop\n      tag_62\n      swap2\n      swap1\n      tag_55\n      jump\t// in\n    tag_62:\n      pop\n      swap1\n      jump\t// out\n    tag_55:\n    tag_63:\n      dup1\n      dup3\n      gt\n      iszero\n      tag_64\n      jumpi\n      0x00\n      dup2\n      0x00\n      swap1\n      sstore\n      pop\n      0x01\n      add\n      jump(tag_63)\n    tag_64:\n      pop\n      swap1\n      jump\t// out\n        /* \"#utility.yul\":7:419   */\n    tag_66:\n        /* \"#utility.yul\":85:90   */\n      0x00\n        /* \"#utility.yul\":110:176   */\n      tag_68\n        /* \"#utility.yul\":126:175   */\n      tag_69\n        /* \"#utility.yul\":168:174   */\n      dup5\n        /* \"#utility.yul\":126:175   */\n      tag_70\n      jump\t// in\n    tag_69:\n        /* \"#utility.yul\":110:176   */\n      tag_71\n      jump\t// in\n    tag_68:\n        /* \"#utility.yul\":101:176   */\n      swap1\n      pop\n        /* \"#utility.yul\":199:205   */\n      dup3\n        /* \"#utility.yul\":192:197   */\n      dup2\n        /* \"#utility.yul\":185:206   */\n      mstore\n        /* \"#utility.yul\":237:241   */\n      0x20\n        /* \"#utility.yul\":230:235   */\n      dup2\n        /* \"#utility.yul\":226:242   */\n      add\n        /* \"#utility.yul\":275:278   */\n      dup5\n        /* \"#utility.yul\":266:272   */\n      dup5\n        /* \"#utility.yul\":261:264   */\n      dup5\n        /* \"#utility.yul\":257:273   */\n      add\n        /* \"#utility.yul\":254:279   */\n      gt\n        /* \"#utility.yul\":251:363   */\n      iszero\n      tag_72\n      jumpi\n        /* \"#utility.yul\":282:361   */\n      tag_73\n      tag_74\n      jump\t// in\n    tag_73:\n        /* \"#utility.yul\":251:363   */\n    tag_72:\n        /* \"#utility.yul\":372:413   */\n      tag_75\n        /* \"#utility.yul\":406:412   */\n      dup5\n        /* \"#utility.yul\":401:404   */\n      dup3\n        /* \"#utility.yul\":396:399   */\n      dup6\n        /* \"#utility.yul\":372:413   */\n      tag_76\n      jump\t// in\n    tag_75:\n        /* \"#utility.yul\":91:419   */\n      pop\n        /* \"#utility.yul\":7:419   */\n      swap4\n      swap3\n      pop\n      pop\n      pop\n      jump\t// out\n        /* \"#utility.yul\":439:779   */\n    tag_77:\n        /* \"#utility.yul\":495:500   */\n      0x00\n        /* \"#utility.yul\":544:547   */\n      dup3\n        /* \"#utility.yul\":537:541   */\n      0x1f\n        /* \"#utility.yul\":529:535   */\n      dup4\n        /* \"#utility.yul\":525:542   */\n      add\n        /* \"#utility.yul\":521:548   */\n      slt\n        /* \"#utility.yul\":511:633   */\n      tag_79\n      jumpi\n        /* \"#utility.yul\":552:631   */\n      tag_80\n      tag_81\n      jump\t// in\n    tag_80:\n        /* \"#utility.yul\":511:633   */\n    tag_79:\n        /* \"#utility.yul\":669:675   */\n      dup2\n        /* \"#utility.yul\":656:676   */\n      calldataload\n        /* \"#utility.yul\":694:773   */\n      tag_82\n        /* \"#utility.yul\":769:772   */\n      dup5\n        /* \"#utility.yul\":761:767   */\n      dup3\n        /* \"#utility.yul\":754:758   */\n      0x20\n        /* \"#utility.yul\":746:752   */\n      dup7\n        /* \"#utility.yul\":742:759   */\n      add\n        /* \"#utility.yul\":694:773   */\n      tag_66\n      jump\t// in\n    tag_82:\n        /* \"#utility.yul\":685:773   */\n      swap2\n      pop\n        /* \"#utility.yul\":501:779   */\n      pop\n        /* \"#utility.yul\":439:779   */\n      swap3\n      swap2\n      pop\n      pop\n      jump\t// out\n        /* \"#utility.yul\":785:922   */\n    tag_83:\n        /* \"#utility.yul\":830:835   */\n      0x00\n        /* \"#utility.yul\":868:874   */\n      dup2\n        /* \"#utility.yul\":855:875   */\n      calldataload\n        /* \"#utility.yul\":846:875   */\n      swap1\n      pop\n        /* \"#utility.yul\":884:916   */\n      tag_85\n        /* \"#utility.yul\":910:915   */\n      dup2\n        /* \"#utility.yul\":884:916   */\n      tag_86\n      jump\t// in\n    tag_85:\n        /* \"#utility.yul\":785:922   */\n      swap3\n      swap2\n      pop\n      pop\n      jump\t// out\n        /* \"#utility.yul\":928:1067   */\n    tag_87:\n        /* \"#utility.yul\":974:979   */\n      0x00\n        /* \"#utility.yul\":1012:1018   */\n      dup2\n        /* \"#utility.yul\":999:1019   */\n      calldataload\n        /* \"#utility.yul\":990:1019   */\n      swap1\n      pop\n        /* \"#utility.yul\":1028:1061   */\n      tag_89\n        /* \"#utility.yul\":1055:1060   */\n      dup2\n        /* \"#utility.yul\":1028:1061   */\n      tag_90\n      jump\t// in\n    tag_89:\n        /* \"#utility.yul\":928:1067   */\n      swap3\n      swap2\n      pop\n      pop\n      jump\t// out\n        /* \"#utility.yul\":1073:1400   */\n    tag_7:\n        /* \"#utility.yul\":1131:1137   */\n      0x00\n        /* \"#utility.yul\":1180:1182   */\n      0x20\n        /* \"#utility.yul\":1168:1177   */\n      dup3\n        /* \"#utility.yul\":1159:1166   */\n      dup5\n        /* \"#utility.yul\":1155:1178   */\n      sub\n        /* \"#utility.yul\":1151:1183   */\n      slt\n        /* \"#utility.yul\":1148:1267   */\n      iszero\n      tag_92\n      jumpi\n        /* \"#utility.yul\":1186:1265   */\n      tag_93\n      tag_94\n      jump\t// in\n    tag_93:\n        /* \"#utility.yul\":1148:1267   */\n    tag_92:\n        /* \"#utility.yul\":1306:1307   */\n      0x00\n        /* \"#utility.yul\":1331:1383   */\n      tag_95\n        /* \"#utility.yul\":1375:1382   */\n      dup5\n        /* \"#utility.yul\":1366:1372   */\n      dup3\n        /* \"#utility.yul\":1355:1364   */\n      dup6\n        /* \"#utility.yul\":1351:1373   */\n      add\n        /* \"#utility.yul\":1331:1383   */\n      tag_83\n      jump\t// in\n    tag_95:\n        /* \"#utility.yul\":1321:1383   */\n      swap2\n      pop\n        /* \"#utility.yul\":1277:1393   */\n      pop\n        /* \"#utility.yul\":1073:1400   */\n      swap3\n      swap2\n      pop\n      pop\n      jump\t// out\n        /* \"#utility.yul\":1406:2855   */\n    tag_13:\n        /* \"#utility.yul\":1530:1536   */\n      0x00\n        /* \"#utility.yul\":1538:1544   */\n      dup1\n        /* \"#utility.yul\":1546:1552   */\n      0x00\n        /* \"#utility.yul\":1554:1560   */\n      dup1\n        /* \"#utility.yul\":1562:1568   */\n      0x00\n        /* \"#utility.yul\":1611:1614   */\n      0xa0\n        /* \"#utility.yul\":1599:1608   */\n      dup7\n        /* \"#utility.yul\":1590:1597   */\n      dup9\n        /* \"#utility.yul\":1586:1609   */\n      sub\n        /* \"#utility.yul\":1582:1615   */\n      slt\n        /* \"#utility.yul\":1579:1699   */\n      iszero\n      tag_97\n      jumpi\n        /* \"#utility.yul\":1618:1697   */\n      tag_98\n      tag_94\n      jump\t// in\n    tag_98:\n        /* \"#utility.yul\":1579:1699   */\n    tag_97:\n        /* \"#utility.yul\":1738:1739   */\n      0x00\n        /* \"#utility.yul\":1763:1815   */\n      tag_99\n        /* \"#utility.yul\":1807:1814   */\n      dup9\n        /* \"#utility.yul\":1798:1804   */\n      dup3\n        /* \"#utility.yul\":1787:1796   */\n      dup10\n        /* \"#utility.yul\":1783:1805   */\n      add\n        /* \"#utility.yul\":1763:1815   */\n      tag_83\n      jump\t// in\n    tag_99:\n        /* \"#utility.yul\":1753:1815   */\n      swap6\n      pop\n        /* \"#utility.yul\":1709:1825   */\n      pop\n        /* \"#utility.yul\":1892:1894   */\n      0x20\n        /* \"#utility.yul\":1881:1890   */\n      dup7\n        /* \"#utility.yul\":1877:1895   */\n      add\n        /* \"#utility.yul\":1864:1896   */\n      calldataload\n        /* \"#utility.yul\":1923:1941   */\n      0xffffffffffffffff\n        /* \"#utility.yul\":1915:1921   */\n      dup2\n        /* \"#utility.yul\":1912:1942   */\n      gt\n        /* \"#utility.yul\":1909:2026   */\n      iszero\n      tag_100\n      jumpi\n        /* \"#utility.yul\":1945:2024   */\n      tag_101\n      tag_102\n      jump\t// in\n    tag_101:\n        /* \"#utility.yul\":1909:2026   */\n    tag_100:\n        /* \"#utility.yul\":2050:2113   */\n      tag_103\n        /* \"#utility.yul\":2105:2112   */\n      dup9\n        /* \"#utility.yul\":2096:2102   */\n      dup3\n        /* \"#utility.yul\":2085:2094   */\n      dup10\n        /* \"#utility.yul\":2081:2103   */\n      add\n        /* \"#utility.yul\":2050:2113   */\n      tag_77\n      jump\t// in\n    tag_103:\n        /* \"#utility.yul\":2040:2113   */\n      swap5\n      pop\n        /* \"#utility.yul\":1835:2123   */\n      pop\n        /* \"#utility.yul\":2190:2192   */\n      0x40\n        /* \"#utility.yul\":2179:2188   */\n      dup7\n        /* \"#utility.yul\":2175:2193   */\n      add\n        /* \"#utility.yul\":2162:2194   */\n      calldataload\n        /* \"#utility.yul\":2221:2239   */\n      0xffffffffffffffff\n        /* \"#utility.yul\":2213:2219   */\n      dup2\n        /* \"#utility.yul\":2210:2240   */\n      gt\n        /* \"#utility.yul\":2207:2324   */\n      iszero\n      tag_104\n      jumpi\n        /* \"#utility.yul\":2243:2322   */\n      tag_105\n      tag_102\n      jump\t// in\n    tag_105:\n        /* \"#utility.yul\":2207:2324   */\n    tag_104:\n        /* \"#utility.yul\":2348:2411   */\n      tag_106\n        /* \"#utility.yul\":2403:2410   */\n      dup9\n        /* \"#utility.yul\":2394:2400   */\n      dup3\n        /* \"#utility.yul\":2383:2392   */\n      dup10\n        /* \"#utility.yul\":2379:2401   */\n      add\n        /* \"#utility.yul\":2348:2411   */\n      tag_77\n      jump\t// in\n    tag_106:\n        /* \"#utility.yul\":2338:2411   */\n      swap4\n      pop\n        /* \"#utility.yul\":2133:2421   */\n      pop\n        /* \"#utility.yul\":2460:2462   */\n      0x60\n        /* \"#utility.yul\":2486:2539   */\n      tag_107\n        /* \"#utility.yul\":2531:2538   */\n      dup9\n        /* \"#utility.yul\":2522:2528   */\n      dup3\n        /* \"#utility.yul\":2511:2520   */\n      dup10\n        /* \"#utility.yul\":2507:2529   */\n      add\n        /* \"#utility.yul\":2486:2539   */\n      tag_87\n      jump\t// in\n    tag_107:\n        /* \"#utility.yul\":2476:2539   */\n      swap3\n      pop\n        /* \"#utility.yul\":2431:2549   */\n      pop\n        /* \"#utility.yul\":2616:2619   */\n      0x80\n        /* \"#utility.yul\":2605:2614   */\n      dup7\n        /* \"#utility.yul\":2601:2620   */\n      add\n        /* \"#utility.yul\":2588:2621   */\n      calldataload\n        /* \"#utility.yul\":2648:2666   */\n      0xffffffffffffffff\n        /* \"#utility.yul\":2640:2646   */\n      dup2\n        /* \"#utility.yul\":2637:2667   */\n      gt\n        /* \"#utility.yul\":2634:2751   */\n      iszero\n      tag_108\n      jumpi\n        /* \"#utility.yul\":2670:2749   */\n      tag_109\n      tag_102\n      jump\t// in\n    tag_109:\n        /* \"#utility.yul\":2634:2751   */\n    tag_108:\n        /* \"#utility.yul\":2775:2838   */\n      tag_110\n        /* \"#utility.yul\":2830:2837   */\n      dup9\n        /* \"#utility.yul\":2821:2827   */\n      dup3\n        /* \"#utility.yul\":2810:2819   */\n      dup10\n        /* \"#utility.yul\":2806:2828   */\n      add\n        /* \"#utility.yul\":2775:2838   */\n      tag_77\n      jump\t// in\n    tag_110:\n        /* \"#utility.yul\":2765:2838   */\n      swap2\n      pop\n        /* \"#utility.yul\":2559:2848   */\n      pop\n        /* \"#utility.yul\":1406:2855   */\n      swap3\n      swap6\n      pop\n      swap3\n      swap6\n      swap1\n      swap4\n      pop\n      jump\t// out\n        /* \"#utility.yul\":2861:3225   */\n    tag_111:\n        /* \"#utility.yul\":2949:2952   */\n      0x00\n        /* \"#utility.yul\":2977:3016   */\n      tag_113\n        /* \"#utility.yul\":3010:3015   */\n      dup3\n        /* \"#utility.yul\":2977:3016   */\n      tag_114\n      jump\t// in\n    tag_113:\n        /* \"#utility.yul\":3032:3103   */\n      tag_115\n        /* \"#utility.yul\":3096:3102   */\n      dup2\n        /* \"#utility.yul\":3091:3094   */\n      dup6\n        /* \"#utility.yul\":3032:3103   */\n      tag_116\n      jump\t// in\n    tag_115:\n        /* \"#utility.yul\":3025:3103   */\n      swap4\n      pop\n        /* \"#utility.yul\":3112:3164   */\n      tag_117\n        /* \"#utility.yul\":3157:3163   */\n      dup2\n        /* \"#utility.yul\":3152:3155   */\n      dup6\n        /* \"#utility.yul\":3145:3149   */\n      0x20\n        /* \"#utility.yul\":3138:3143   */\n      dup7\n        /* \"#utility.yul\":3134:3150   */\n      add\n        /* \"#utility.yul\":3112:3164   */\n      tag_118\n      jump\t// in\n    tag_117:\n        /* \"#utility.yul\":3189:3218   */\n      tag_119\n        /* \"#utility.yul\":3211:3217   */\n      dup2\n        /* \"#utility.yul\":3189:3218   */\n      tag_120\n      jump\t// in\n    tag_119:\n        /* \"#utility.yul\":3184:3187   */\n      dup5\n        /* \"#utility.yul\":3180:3219   */\n      add\n        /* \"#utility.yul\":3173:3219   */\n      swap2\n      pop\n        /* \"#utility.yul\":2953:3225   */\n      pop\n        /* \"#utility.yul\":2861:3225   */\n      swap3\n      swap2\n      pop\n      pop\n      jump\t// out\n        /* \"#utility.yul\":3231:3597   */\n    tag_121:\n        /* \"#utility.yul\":3373:3376   */\n      0x00\n        /* \"#utility.yul\":3394:3461   */\n      tag_123\n        /* \"#utility.yul\":3458:3460   */\n      0x15\n        /* \"#utility.yul\":3453:3456   */\n      dup4\n        /* \"#utility.yul\":3394:3461   */\n      tag_116\n      jump\t// in\n    tag_123:\n        /* \"#utility.yul\":3387:3461   */\n      swap2\n      pop\n        /* \"#utility.yul\":3470:3563   */\n      tag_124\n        /* \"#utility.yul\":3559:3562   */\n      dup3\n        /* \"#utility.yul\":3470:3563   */\n      tag_125\n      jump\t// in\n    tag_124:\n        /* \"#utility.yul\":3588:3590   */\n      0x20\n        /* \"#utility.yul\":3583:3586   */\n      dup3\n        /* \"#utility.yul\":3579:3591   */\n      add\n        /* \"#utility.yul\":3572:3591   */\n      swap1\n      pop\n        /* \"#utility.yul\":3231:3597   */\n      swap2\n      swap1\n      pop\n      jump\t// out\n        /* \"#utility.yul\":3603:3721   */\n    tag_126:\n        /* \"#utility.yul\":3690:3714   */\n      tag_128\n        /* \"#utility.yul\":3708:3713   */\n      dup2\n        /* \"#utility.yul\":3690:3714   */\n      tag_129\n      jump\t// in\n    tag_128:\n        /* \"#utility.yul\":3685:3688   */\n      dup3\n        /* \"#utility.yul\":3678:3715   */\n      mstore\n        /* \"#utility.yul\":3603:3721   */\n      pop\n      pop\n      jump\t// out\n        /* \"#utility.yul\":3727:4553   */\n    tag_10:\n        /* \"#utility.yul\":3964:3968   */\n      0x00\n        /* \"#utility.yul\":4002:4005   */\n      0x80\n        /* \"#utility.yul\":3991:4000   */\n      dup3\n        /* \"#utility.yul\":3987:4006   */\n      add\n        /* \"#utility.yul\":3979:4006   */\n      swap1\n      pop\n        /* \"#utility.yul\":4052:4061   */\n      dup2\n        /* \"#utility.yul\":4046:4050   */\n      dup2\n        /* \"#utility.yul\":4042:4062   */\n      sub\n        /* \"#utility.yul\":4038:4039   */\n      0x00\n        /* \"#utility.yul\":4027:4036   */\n      dup4\n        /* \"#utility.yul\":4023:4040   */\n      add\n        /* \"#utility.yul\":4016:4063   */\n      mstore\n        /* \"#utility.yul\":4080:4158   */\n      tag_131\n        /* \"#utility.yul\":4153:4157   */\n      dup2\n        /* \"#utility.yul\":4144:4150   */\n      dup8\n        /* \"#utility.yul\":4080:4158   */\n      tag_111\n      jump\t// in\n    tag_131:\n        /* \"#utility.yul\":4072:4158   */\n      swap1\n      pop\n        /* \"#utility.yul\":4205:4214   */\n      dup2\n        /* \"#utility.yul\":4199:4203   */\n      dup2\n        /* \"#utility.yul\":4195:4215   */\n      sub\n        /* \"#utility.yul\":4190:4192   */\n      0x20\n        /* \"#utility.yul\":4179:4188   */\n      dup4\n        /* \"#utility.yul\":4175:4193   */\n      add\n        /* \"#utility.yul\":4168:4216   */\n      mstore\n        /* \"#utility.yul\":4233:4311   */\n      tag_132\n        /* \"#utility.yul\":4306:4310   */\n      dup2\n        /* \"#utility.yul\":4297:4303   */\n      dup7\n        /* \"#utility.yul\":4233:4311   */\n      tag_111\n      jump\t// in\n    tag_132:\n        /* \"#utility.yul\":4225:4311   */\n      swap1\n      pop\n        /* \"#utility.yul\":4321:4393   */\n      tag_133\n        /* \"#utility.yul\":4389:4391   */\n      0x40\n        /* \"#utility.yul\":4378:4387   */\n      dup4\n        /* \"#utility.yul\":4374:4392   */\n      add\n        /* \"#utility.yul\":4365:4371   */\n      dup6\n        /* \"#utility.yul\":4321:4393   */\n      tag_126\n      jump\t// in\n    tag_133:\n        /* \"#utility.yul\":4440:4449   */\n      dup2\n        /* \"#utility.yul\":4434:4438   */\n      dup2\n        /* \"#utility.yul\":4430:4450   */\n      sub\n        /* \"#utility.yul\":4425:4427   */\n      0x60\n        /* \"#utility.yul\":4414:4423   */\n      dup4\n        /* \"#utility.yul\":4410:4428   */\n      add\n        /* \"#utility.yul\":4403:4451   */\n      mstore\n        /* \"#utility.yul\":4468:4546   */\n      tag_134\n        /* \"#utility.yul\":4541:4545   */\n      dup2\n        /* \"#utility.yul\":4532:4538   */\n      dup5\n        /* \"#utility.yul\":4468:4546   */\n      tag_111\n      jump\t// in\n    tag_134:\n        /* \"#utility.yul\":4460:4546   */\n      swap1\n      pop\n        /* \"#utility.yul\":3727:4553   */\n      swap6\n      swap5\n      pop\n      pop\n      pop\n      pop\n      pop\n      jump\t// out\n        /* \"#utility.yul\":4559:4978   */\n    tag_35:\n        /* \"#utility.yul\":4725:4729   */\n      0x00\n        /* \"#utility.yul\":4763:4765   */\n      0x20\n        /* \"#utility.yul\":4752:4761   */\n      dup3\n        /* \"#utility.yul\":4748:4766   */\n      add\n        /* \"#utility.yul\":4740:4766   */\n      swap1\n      pop\n        /* \"#utility.yul\":4812:4821   */\n      dup2\n        /* \"#utility.yul\":4806:4810   */\n      dup2\n        /* \"#utility.yul\":4802:4822   */\n      sub\n        /* \"#utility.yul\":4798:4799   */\n      0x00\n        /* \"#utility.yul\":4787:4796   */\n      dup4\n        /* \"#utility.yul\":4783:4800   */\n      add\n        /* \"#utility.yul\":4776:4823   */\n      mstore\n        /* \"#utility.yul\":4840:4971   */\n      tag_136\n        /* \"#utility.yul\":4966:4970   */\n      dup2\n        /* \"#utility.yul\":4840:4971   */\n      tag_121\n      jump\t// in\n    tag_136:\n        /* \"#utility.yul\":4832:4971   */\n      swap1\n      pop\n        /* \"#utility.yul\":4559:4978   */\n      swap2\n      swap1\n      pop\n      jump\t// out\n        /* \"#utility.yul\":4984:5113   */\n    tag_71:\n        /* \"#utility.yul\":5018:5024   */\n      0x00\n        /* \"#utility.yul\":5045:5065   */\n      tag_138\n      tag_139\n      jump\t// in\n    tag_138:\n        /* \"#utility.yul\":5035:5065   */\n      swap1\n      pop\n        /* \"#utility.yul\":5074:5107   */\n      tag_140\n        /* \"#utility.yul\":5102:5106   */\n      dup3\n        /* \"#utility.yul\":5094:5100   */\n      dup3\n        /* \"#utility.yul\":5074:5107   */\n      tag_141\n      jump\t// in\n    tag_140:\n        /* \"#utility.yul\":4984:5113   */\n      swap2\n      swap1\n      pop\n      jump\t// out\n        /* \"#utility.yul\":5119:5194   */\n    tag_139:\n        /* \"#utility.yul\":5152:5158   */\n      0x00\n        /* \"#utility.yul\":5185:5187   */\n      0x40\n        /* \"#utility.yul\":5179:5188   */\n      mload\n        /* \"#utility.yul\":5169:5188   */\n      swap1\n      pop\n        /* \"#utility.yul\":5119:5194   */\n      swap1\n      jump\t// out\n        /* \"#utility.yul\":5200:5508   */\n    tag_70:\n        /* \"#utility.yul\":5262:5266   */\n      0x00\n        /* \"#utility.yul\":5352:5370   */\n      0xffffffffffffffff\n        /* \"#utility.yul\":5344:5350   */\n      dup3\n        /* \"#utility.yul\":5341:5371   */\n      gt\n        /* \"#utility.yul\":5338:5394   */\n      iszero\n      tag_144\n      jumpi\n        /* \"#utility.yul\":5374:5392   */\n      tag_145\n      tag_146\n      jump\t// in\n    tag_145:\n        /* \"#utility.yul\":5338:5394   */\n    tag_144:\n        /* \"#utility.yul\":5412:5441   */\n      tag_147\n        /* \"#utility.yul\":5434:5440   */\n      dup3\n        /* \"#utility.yul\":5412:5441   */\n      tag_120\n      jump\t// in\n    tag_147:\n        /* \"#utility.yul\":5404:5441   */\n      swap1\n      pop\n        /* \"#utility.yul\":5496:5500   */\n      0x20\n        /* \"#utility.yul\":5490:5494   */\n      dup2\n        /* \"#utility.yul\":5486:5501   */\n      add\n        /* \"#utility.yul\":5478:5501   */\n      swap1\n      pop\n        /* \"#utility.yul\":5200:5508   */\n      swap2\n      swap1\n      pop\n      jump\t// out\n        /* \"#utility.yul\":5514:5613   */\n    tag_114:\n        /* \"#utility.yul\":5566:5572   */\n      0x00\n        /* \"#utility.yul\":5600:5605   */\n      dup2\n        /* \"#utility.yul\":5594:5606   */\n      mload\n        /* \"#utility.yul\":5584:5606   */\n      swap1\n      pop\n        /* \"#utility.yul\":5514:5613   */\n      swap2\n      swap1\n      pop\n      jump\t// out\n        /* \"#utility.yul\":5619:5788   */\n    tag_116:\n        /* \"#utility.yul\":5703:5714   */\n      0x00\n        /* \"#utility.yul\":5737:5743   */\n      dup3\n        /* \"#utility.yul\":5732:5735   */\n      dup3\n        /* \"#utility.yul\":5725:5744   */\n      mstore\n        /* \"#utility.yul\":5777:5781   */\n      0x20\n        /* \"#utility.yul\":5772:5775   */\n      dup3\n        /* \"#utility.yul\":5768:5782   */\n      add\n        /* \"#utility.yul\":5753:5782   */\n      swap1\n      pop\n        /* \"#utility.yul\":5619:5788   */\n      swap3\n      swap2\n      pop\n      pop\n      jump\t// out\n        /* \"#utility.yul\":5794:5883   */\n    tag_150:\n        /* \"#utility.yul\":5830:5837   */\n      0x00\n        /* \"#utility.yul\":5870:5876   */\n      0xffff\n        /* \"#utility.yul\":5863:5868   */\n      dup3\n        /* \"#utility.yul\":5859:5877   */\n      and\n        /* \"#utility.yul\":5848:5877   */\n      swap1\n      pop\n        /* \"#utility.yul\":5794:5883   */\n      swap2\n      swap1\n      pop\n      jump\t// out\n        /* \"#utility.yul\":5889:5966   */\n    tag_129:\n        /* \"#utility.yul\":5926:5933   */\n      0x00\n        /* \"#utility.yul\":5955:5960   */\n      dup2\n        /* \"#utility.yul\":5944:5960   */\n      swap1\n      pop\n        /* \"#utility.yul\":5889:5966   */\n      swap2\n      swap1\n      pop\n      jump\t// out\n        /* \"#utility.yul\":5972:6126   */\n    tag_76:\n        /* \"#utility.yul\":6056:6062   */\n      dup3\n        /* \"#utility.yul\":6051:6054   */\n      dup2\n        /* \"#utility.yul\":6046:6049   */\n      dup4\n        /* \"#utility.yul\":6033:6063   */\n      calldatacopy\n        /* \"#utility.yul\":6118:6119   */\n      0x00\n        /* \"#utility.yul\":6109:6115   */\n      dup4\n        /* \"#utility.yul\":6104:6107   */\n      dup4\n        /* \"#utility.yul\":6100:6116   */\n      add\n        /* \"#utility.yul\":6093:6120   */\n      mstore\n        /* \"#utility.yul\":5972:6126   */\n      pop\n      pop\n      pop\n      jump\t// out\n        /* \"#utility.yul\":6132:6439   */\n    tag_118:\n        /* \"#utility.yul\":6200:6201   */\n      0x00\n        /* \"#utility.yul\":6210:6323   */\n    tag_155:\n        /* \"#utility.yul\":6224:6230   */\n      dup4\n        /* \"#utility.yul\":6221:6222   */\n      dup2\n        /* \"#utility.yul\":6218:6231   */\n      lt\n        /* \"#utility.yul\":6210:6323   */\n      iszero\n      tag_157\n      jumpi\n        /* \"#utility.yul\":6309:6310   */\n      dup1\n        /* \"#utility.yul\":6304:6307   */\n      dup3\n        /* \"#utility.yul\":6300:6311   */\n      add\n        /* \"#utility.yul\":6294:6312   */\n      mload\n        /* \"#utility.yul\":6290:6291   */\n      dup2\n        /* \"#utility.yul\":6285:6288   */\n      dup5\n        /* \"#utility.yul\":6281:6292   */\n      add\n        /* \"#utility.yul\":6274:6313   */\n      mstore\n        /* \"#utility.yul\":6246:6248   */\n      0x20\n        /* \"#utility.yul\":6243:6244   */\n      dup2\n        /* \"#utility.yul\":6239:6249   */\n      add\n        /* \"#utility.yul\":6234:6249   */\n      swap1\n      pop\n        /* \"#utility.yul\":6210:6323   */\n      jump(tag_155)\n    tag_157:\n        /* \"#utility.yul\":6341:6347   */\n      dup4\n        /* \"#utility.yul\":6338:6339   */\n      dup2\n        /* \"#utility.yul\":6335:6348   */\n      gt\n        /* \"#utility.yul\":6332:6433   */\n      iszero\n      tag_158\n      jumpi\n        /* \"#utility.yul\":6421:6422   */\n      0x00\n        /* \"#utility.yul\":6412:6418   */\n      dup5\n        /* \"#utility.yul\":6407:6410   */\n      dup5\n        /* \"#utility.yul\":6403:6419   */\n      add\n        /* \"#utility.yul\":6396:6423   */\n      mstore\n        /* \"#utility.yul\":6332:6433   */\n    tag_158:\n        /* \"#utility.yul\":6181:6439   */\n      pop\n        /* \"#utility.yul\":6132:6439   */\n      pop\n      pop\n      pop\n      jump\t// out\n        /* \"#utility.yul\":6445:6765   */\n    tag_17:\n        /* \"#utility.yul\":6489:6495   */\n      0x00\n        /* \"#utility.yul\":6526:6527   */\n      0x02\n        /* \"#utility.yul\":6520:6524   */\n      dup3\n        /* \"#utility.yul\":6516:6528   */\n      div\n        /* \"#utility.yul\":6506:6528   */\n      swap1\n      pop\n        /* \"#utility.yul\":6573:6574   */\n      0x01\n        /* \"#utility.yul\":6567:6571   */\n      dup3\n        /* \"#utility.yul\":6563:6575   */\n      and\n        /* \"#utility.yul\":6594:6612   */\n      dup1\n        /* \"#utility.yul\":6584:6665   */\n      tag_160\n      jumpi\n        /* \"#utility.yul\":6650:6654   */\n      0x7f\n        /* \"#utility.yul\":6642:6648   */\n      dup3\n        /* \"#utility.yul\":6638:6655   */\n      and\n        /* \"#utility.yul\":6628:6655   */\n      swap2\n      pop\n        /* \"#utility.yul\":6584:6665   */\n    tag_160:\n        /* \"#utility.yul\":6712:6714   */\n      0x20\n        /* \"#utility.yul\":6704:6710   */\n      dup3\n        /* \"#utility.yul\":6701:6715   */\n      lt\n        /* \"#utility.yul\":6681:6699   */\n      dup2\n        /* \"#utility.yul\":6678:6716   */\n      eq\n        /* \"#utility.yul\":6675:6759   */\n      iszero\n      tag_161\n      jumpi\n        /* \"#utility.yul\":6731:6749   */\n      tag_162\n      tag_163\n      jump\t// in\n    tag_162:\n        /* \"#utility.yul\":6675:6759   */\n    tag_161:\n        /* \"#utility.yul\":6496:6765   */\n      pop\n        /* \"#utility.yul\":6445:6765   */\n      swap2\n      swap1\n      pop\n      jump\t// out\n        /* \"#utility.yul\":6771:7052   */\n    tag_141:\n        /* \"#utility.yul\":6854:6881   */\n      tag_165\n        /* \"#utility.yul\":6876:6880   */\n      dup3\n        /* \"#utility.yul\":6854:6881   */\n      tag_120\n      jump\t// in\n    tag_165:\n        /* \"#utility.yul\":6846:6852   */\n      dup2\n        /* \"#utility.yul\":6842:6882   */\n      add\n        /* \"#utility.yul\":6984:6990   */\n      dup2\n        /* \"#utility.yul\":6972:6982   */\n      dup2\n        /* \"#utility.yul\":6969:6991   */\n      lt\n        /* \"#utility.yul\":6948:6966   */\n      0xffffffffffffffff\n        /* \"#utility.yul\":6936:6946   */\n      dup3\n        /* \"#utility.yul\":6933:6967   */\n      gt\n        /* \"#utility.yul\":6930:6992   */\n      or\n        /* \"#utility.yul\":6927:7015   */\n      iszero\n      tag_166\n      jumpi\n        /* \"#utility.yul\":6995:7013   */\n      tag_167\n      tag_146\n      jump\t// in\n    tag_167:\n        /* \"#utility.yul\":6927:7015   */\n    tag_166:\n        /* \"#utility.yul\":7035:7045   */\n      dup1\n        /* \"#utility.yul\":7031:7033   */\n      0x40\n        /* \"#utility.yul\":7024:7046   */\n      mstore\n        /* \"#utility.yul\":6814:7052   */\n      pop\n        /* \"#utility.yul\":6771:7052   */\n      pop\n      pop\n      jump\t// out\n        /* \"#utility.yul\":7058:7238   */\n    tag_163:\n        /* \"#utility.yul\":7106:7183   */\n      0x4e487b7100000000000000000000000000000000000000000000000000000000\n        /* \"#utility.yul\":7103:7104   */\n      0x00\n        /* \"#utility.yul\":7096:7184   */\n      mstore\n        /* \"#utility.yul\":7203:7207   */\n      0x22\n        /* \"#utility.yul\":7200:7201   */\n      0x04\n        /* \"#utility.yul\":7193:7208   */\n      mstore\n        /* \"#utility.yul\":7227:7231   */\n      0x24\n        /* \"#utility.yul\":7224:7225   */\n      0x00\n        /* \"#utility.yul\":7217:7232   */\n      revert\n        /* \"#utility.yul\":7244:7424   */\n    tag_146:\n        /* \"#utility.yul\":7292:7369   */\n      0x4e487b7100000000000000000000000000000000000000000000000000000000\n        /* \"#utility.yul\":7289:7290   */\n      0x00\n        /* \"#utility.yul\":7282:7370   */\n      mstore\n        /* \"#utility.yul\":7389:7393   */\n      0x41\n        /* \"#utility.yul\":7386:7387   */\n      0x04\n        /* \"#utility.yul\":7379:7394   */\n      mstore\n        /* \"#utility.yul\":7413:7417   */\n      0x24\n        /* \"#utility.yul\":7410:7411   */\n      0x00\n        /* \"#utility.yul\":7403:7418   */\n      revert\n        /* \"#utility.yul\":7430:7547   */\n    tag_81:\n        /* \"#utility.yul\":7539:7540   */\n      0x00\n        /* \"#utility.yul\":7536:7537   */\n      dup1\n        /* \"#utility.yul\":7529:7541   */\n      revert\n        /* \"#utility.yul\":7553:7670   */\n    tag_74:\n        /* \"#utility.yul\":7662:7663   */\n      0x00\n        /* \"#utility.yul\":7659:7660   */\n      dup1\n        /* \"#utility.yul\":7652:7664   */\n      revert\n        /* \"#utility.yul\":7676:7793   */\n    tag_102:\n        /* \"#utility.yul\":7785:7786   */\n      0x00\n        /* \"#utility.yul\":7782:7783   */\n      dup1\n        /* \"#utility.yul\":7775:7787   */\n      revert\n        /* \"#utility.yul\":7799:7916   */\n    tag_94:\n        /* \"#utility.yul\":7908:7909   */\n      0x00\n        /* \"#utility.yul\":7905:7906   */\n      dup1\n        /* \"#utility.yul\":7898:7910   */\n      revert\n        /* \"#utility.yul\":7922:8024   */\n    tag_120:\n        /* \"#utility.yul\":7963:7969   */\n      0x00\n        /* \"#utility.yul\":8014:8016   */\n      0x1f\n        /* \"#utility.yul\":8010:8017   */\n      not\n        /* \"#utility.yul\":8005:8007   */\n      0x1f\n        /* \"#utility.yul\":7998:8003   */\n      dup4\n        /* \"#utility.yul\":7994:8008   */\n      add\n        /* \"#utility.yul\":7990:8018   */\n      and\n        /* \"#utility.yul\":7980:8018   */\n      swap1\n      pop\n        /* \"#utility.yul\":7922:8024   */\n      swap2\n      swap1\n      pop\n      jump\t// out\n        /* \"#utility.yul\":8030:8201   */\n    tag_125:\n        /* \"#utility.yul\":8170:8193   */\n      0x416363657373206973206e6f7420616c6c6f7765640000000000000000000000\n        /* \"#utility.yul\":8166:8167   */\n      0x00\n        /* \"#utility.yul\":8158:8164   */\n      dup3\n        /* \"#utility.yul\":8154:8168   */\n      add\n        /* \"#utility.yul\":8147:8194   */\n      mstore\n        /* \"#utility.yul\":8030:8201   */\n      pop\n      jump\t// out\n        /* \"#utility.yul\":8207:8327   */\n    tag_86:\n        /* \"#utility.yul\":8279:8302   */\n      tag_177\n        /* \"#utility.yul\":8296:8301   */\n      dup2\n        /* \"#utility.yul\":8279:8302   */\n      tag_150\n      jump\t// in\n    tag_177:\n        /* \"#utility.yul\":8272:8277   */\n      dup2\n        /* \"#utility.yul\":8269:8303   */\n      eq\n        /* \"#utility.yul\":8259:8321   */\n      tag_178\n      jumpi\n        /* \"#utility.yul\":8317:8318   */\n      0x00\n        /* \"#utility.yul\":8314:8315   */\n      dup1\n        /* \"#utility.yul\":8307:8319   */\n      revert\n        /* \"#utility.yul\":8259:8321   */\n    tag_178:\n        /* \"#utility.yul\":8207:8327   */\n      pop\n      jump\t// out\n        /* \"#utility.yul\":8333:8455   */\n    tag_90:\n        /* \"#utility.yul\":8406:8430   */\n      tag_180\n        /* \"#utility.yul\":8424:8429   */\n      dup2\n        /* \"#utility.yul\":8406:8430   */\n      tag_129\n      jump\t// in\n    tag_180:\n        /* \"#utility.yul\":8399:8404   */\n      dup2\n        /* \"#utility.yul\":8396:8431   */\n      eq\n        /* \"#utility.yul\":8386:8449   */\n      tag_181\n      jumpi\n        /* \"#utility.yul\":8445:8446   */\n      0x00\n        /* \"#utility.yul\":8442:8443   */\n      dup1\n        /* \"#utility.yul\":8435:8447   */\n      revert\n        /* \"#utility.yul\":8386:8449   */\n    tag_181:\n        /* \"#utility.yul\":8333:8455   */\n      pop\n      jump\t// out\n\n    auxdata: 0xa26469706673582212206aeda666bbf2c8a76b7f288dbcdff7badaaf5c23ba50c4033bf82afda00fdfc464736f6c63430008070033\n}\n",
				"bytecode": {
					"linkReferences": {},
					"object": "608060405234801561001057600080fd5b5073ec8fb7078745ee30846c6eb98a4c8f896fa7eabd600560006101000a81548173ffffffffffffffffffffffffffffffffffffffff021916908373ffffffffffffffffffffffffffffffffffffffff1602179055506109f7806100756000396000f3fe608060405234801561001057600080fd5b50600436106100365760003560e01c806368bdecfe1461003b5780636cac3a181461006e575b600080fd5b610055600480360381019061005091906105d7565b61008a565b604051610065949392919061073e565b60405180910390f35b61008860048036038101906100839190610604565b61029a565b005b6060806000606060008060008761ffff1681526020019081526020016000206040518060800160405290816000820180546100c490610884565b80601f01602080910402602001604051908101604052809291908181526020018280546100f090610884565b801561013d5780601f106101125761010080835404028352916020019161013d565b820191906000526020600020905b81548152906001019060200180831161012057829003601f168201915b5050505050815260200160018201805461015690610884565b80601f016020809104026020016040519081016040528092919081815260200182805461018290610884565b80156101cf5780601f106101a4576101008083540402835291602001916101cf565b820191906000526020600020905b8154815290600101906020018083116101b257829003601f168201915b50505050508152602001600282015481526020016003820180546101f290610884565b80601f016020809104026020016040519081016040528092919081815260200182805461021e90610884565b801561026b5780601f106102405761010080835404028352916020019161026b565b820191906000526020600020905b81548152906001019060200180831161024e57829003601f168201915b505050505081525050905080600001518160200151826040015183606001519450945094509450509193509193565b600560009054906101000a900473ffffffffffffffffffffffffffffffffffffffff1673ffffffffffffffffffffffffffffffffffffffff163373ffffffffffffffffffffffffffffffffffffffff161461032a576040517f08c379a000000000000000000000000000000000000000000000000000000000815260040161032190610798565b60405180910390fd5b836001600001908051906020019061034392919061040d565b508260018001908051906020019061035c92919061040d565b5081600160020181905550806001600301908051906020019061038092919061040d565b5060016000808761ffff16815260200190815260200160002060008201816000019080546103ad90610884565b6103b8929190610493565b5060018201816001019080546103cd90610884565b6103d8929190610493565b506002820154816002015560038201816003019080546103f790610884565b610402929190610493565b509050505050505050565b82805461041990610884565b90600052602060002090601f01602090048101928261043b5760008555610482565b82601f1061045457805160ff1916838001178555610482565b82800160010185558215610482579182015b82811115610481578251825591602001919060010190610466565b5b50905061048f9190610520565b5090565b82805461049f90610884565b90600052602060002090601f0160209004810192826104c1576000855561050f565b82601f106104d2578054855561050f565b8280016001018555821561050f57600052602060002091601f016020900482015b8281111561050e5782548255916001019190600101906104f3565b5b50905061051c9190610520565b5090565b5b80821115610539576000816000905550600101610521565b5090565b600061055061054b846107dd565b6107b8565b90508281526020810184848401111561056c5761056b61094a565b5b610577848285610842565b509392505050565b600082601f83011261059457610593610945565b5b81356105a484826020860161053d565b91505092915050565b6000813590506105bc81610993565b92915050565b6000813590506105d1816109aa565b92915050565b6000602082840312156105ed576105ec610954565b5b60006105fb848285016105ad565b91505092915050565b600080600080600060a086880312156106205761061f610954565b5b600061062e888289016105ad565b955050602086013567ffffffffffffffff81111561064f5761064e61094f565b5b61065b8882890161057f565b945050604086013567ffffffffffffffff81111561067c5761067b61094f565b5b6106888882890161057f565b9350506060610699888289016105c2565b925050608086013567ffffffffffffffff8111156106ba576106b961094f565b5b6106c68882890161057f565b9150509295509295909350565b60006106de8261080e565b6106e88185610819565b93506106f8818560208601610851565b61070181610959565b840191505092915050565b6000610719601583610819565b91506107248261096a565b602082019050919050565b61073881610838565b82525050565b6000608082019050818103600083015261075881876106d3565b9050818103602083015261076c81866106d3565b905061077b604083018561072f565b818103606083015261078d81846106d3565b905095945050505050565b600060208201905081810360008301526107b18161070c565b9050919050565b60006107c26107d3565b90506107ce82826108b6565b919050565b6000604051905090565b600067ffffffffffffffff8211156107f8576107f7610916565b5b61080182610959565b9050602081019050919050565b600081519050919050565b600082825260208201905092915050565b600061ffff82169050919050565b6000819050919050565b82818337600083830152505050565b60005b8381101561086f578082015181840152602081019050610854565b8381111561087e576000848401525b50505050565b6000600282049050600182168061089c57607f821691505b602082108114156108b0576108af6108e7565b5b50919050565b6108bf82610959565b810181811067ffffffffffffffff821117156108de576108dd610916565b5b80604052505050565b7f4e487b7100000000000000000000000000000000000000000000000000000000600052602260045260246000fd5b7f4e487b7100000000000000000000000000000000000000000000000000000000600052604160045260246000fd5b600080fd5b600080fd5b600080fd5b600080fd5b6000601f19601f8301169050919050565b7f416363657373206973206e6f7420616c6c6f7765640000000000000000000000600082015250565b61099c8161082a565b81146109a757600080fd5b50565b6109b381610838565b81146109be57600080fd5b5056fea26469706673582212206aeda666bbf2c8a76b7f288dbcdff7badaaf5c23ba50c4033bf82afda00fdfc464736f6c63430008070033",
					"opcodes": "PUSH1 0x80 PUSH1 0x40 MSTORE CALLVALUE DUP1 ISZERO PUSH2 0x10 JUMPI PUSH1 0x0 DUP1 REVERT JUMPDEST POP PUSH20 0xEC8FB7078745EE30846C6EB98A4C8F896FA7EABD PUSH1 0x5 PUSH1 0x0 PUSH2 0x100 EXP DUP2 SLOAD DUP2 PUSH20 0xFFFFFFFFFFFFFFFFFFFFFFFFFFFFFFFFFFFFFFFF MUL NOT AND SWAP1 DUP4 PUSH20 0xFFFFFFFFFFFFFFFFFFFFFFFFFFFFFFFFFFFFFFFF AND MUL OR SWAP1 SSTORE POP PUSH2 0x9F7 DUP1 PUSH2 0x75 PUSH1 0x0 CODECOPY PUSH1 0x0 RETURN INVALID PUSH1 0x80 PUSH1 0x40 MSTORE CALLVALUE DUP1 ISZERO PUSH2 0x10 JUMPI PUSH1 0x0 DUP1 REVERT JUMPDEST POP PUSH1 0x4 CALLDATASIZE LT PUSH2 0x36 JUMPI PUSH1 0x0 CALLDATALOAD PUSH1 0xE0 SHR DUP1 PUSH4 0x68BDECFE EQ PUSH2 0x3B JUMPI DUP1 PUSH4 0x6CAC3A18 EQ PUSH2 0x6E JUMPI JUMPDEST PUSH1 0x0 DUP1 REVERT JUMPDEST PUSH2 0x55 PUSH1 0x4 DUP1 CALLDATASIZE SUB DUP2 ADD SWAP1 PUSH2 0x50 SWAP2 SWAP1 PUSH2 0x5D7 JUMP JUMPDEST PUSH2 0x8A JUMP JUMPDEST PUSH1 0x40 MLOAD PUSH2 0x65 SWAP5 SWAP4 SWAP3 SWAP2 SWAP1 PUSH2 0x73E JUMP JUMPDEST PUSH1 0x40 MLOAD DUP1 SWAP2 SUB SWAP1 RETURN JUMPDEST PUSH2 0x88 PUSH1 0x4 DUP1 CALLDATASIZE SUB DUP2 ADD SWAP1 PUSH2 0x83 SWAP2 SWAP1 PUSH2 0x604 JUMP JUMPDEST PUSH2 0x29A JUMP JUMPDEST STOP JUMPDEST PUSH1 0x60 DUP1 PUSH1 0x0 PUSH1 0x60 PUSH1 0x0 DUP1 PUSH1 0x0 DUP8 PUSH2 0xFFFF AND DUP2 MSTORE PUSH1 0x20 ADD SWAP1 DUP2 MSTORE PUSH1 0x20 ADD PUSH1 0x0 KECCAK256 PUSH1 0x40 MLOAD DUP1 PUSH1 0x80 ADD PUSH1 0x40 MSTORE SWAP1 DUP2 PUSH1 0x0 DUP3 ADD DUP1 SLOAD PUSH2 0xC4 SWAP1 PUSH2 0x884 JUMP JUMPDEST DUP1 PUSH1 0x1F ADD PUSH1 0x20 DUP1 SWAP2 DIV MUL PUSH1 0x20 ADD PUSH1 0x40 MLOAD SWAP1 DUP2 ADD PUSH1 0x40 MSTORE DUP1 SWAP3 SWAP2 SWAP1 DUP2 DUP2 MSTORE PUSH1 0x20 ADD DUP3 DUP1 SLOAD PUSH2 0xF0 SWAP1 PUSH2 0x884 JUMP JUMPDEST DUP1 ISZERO PUSH2 0x13D JUMPI DUP1 PUSH1 0x1F LT PUSH2 0x112 JUMPI PUSH2 0x100 DUP1 DUP4 SLOAD DIV MUL DUP4 MSTORE SWAP2 PUSH1 0x20 ADD SWAP2 PUSH2 0x13D JUMP JUMPDEST DUP3 ADD SWAP2 SWAP1 PUSH1 0x0 MSTORE PUSH1 0x20 PUSH1 0x0 KECCAK256 SWAP1 JUMPDEST DUP2 SLOAD DUP2 MSTORE SWAP1 PUSH1 0x1 ADD SWAP1 PUSH1 0x20 ADD DUP1 DUP4 GT PUSH2 0x120 JUMPI DUP3 SWAP1 SUB PUSH1 0x1F AND DUP3 ADD SWAP2 JUMPDEST POP POP POP POP POP DUP2 MSTORE PUSH1 0x20 ADD PUSH1 0x1 DUP3 ADD DUP1 SLOAD PUSH2 0x156 SWAP1 PUSH2 0x884 JUMP JUMPDEST DUP1 PUSH1 0x1F ADD PUSH1 0x20 DUP1 SWAP2 DIV MUL PUSH1 0x20 ADD PUSH1 0x40 MLOAD SWAP1 DUP2 ADD PUSH1 0x40 MSTORE DUP1 SWAP3 SWAP2 SWAP1 DUP2 DUP2 MSTORE PUSH1 0x20 ADD DUP3 DUP1 SLOAD PUSH2 0x182 SWAP1 PUSH2 0x884 JUMP JUMPDEST DUP1 ISZERO PUSH2 0x1CF JUMPI DUP1 PUSH1 0x1F LT PUSH2 0x1A4 JUMPI PUSH2 0x100 DUP1 DUP4 SLOAD DIV MUL DUP4 MSTORE SWAP2 PUSH1 0x20 ADD SWAP2 PUSH2 0x1CF JUMP JUMPDEST DUP3 ADD SWAP2 SWAP1 PUSH1 0x0 MSTORE PUSH1 0x20 PUSH1 0x0 KECCAK256 SWAP1 JUMPDEST DUP2 SLOAD DUP2 MSTORE SWAP1 PUSH1 0x1 ADD SWAP1 PUSH1 0x20 ADD DUP1 DUP4 GT PUSH2 0x1B2 JUMPI DUP3 SWAP1 SUB PUSH1 0x1F AND DUP3 ADD SWAP2 JUMPDEST POP POP POP POP POP DUP2 MSTORE PUSH1 0x20 ADD PUSH1 0x2 DUP3 ADD SLOAD DUP2 MSTORE PUSH1 0x20 ADD PUSH1 0x3 DUP3 ADD DUP1 SLOAD PUSH2 0x1F2 SWAP1 PUSH2 0x884 JUMP JUMPDEST DUP1 PUSH1 0x1F ADD PUSH1 0x20 DUP1 SWAP2 DIV MUL PUSH1 0x20 ADD PUSH1 0x40 MLOAD SWAP1 DUP2 ADD PUSH1 0x40 MSTORE DUP1 SWAP3 SWAP2 SWAP1 DUP2 DUP2 MSTORE PUSH1 0x20 ADD DUP3 DUP1 SLOAD PUSH2 0x21E SWAP1 PUSH2 0x884 JUMP JUMPDEST DUP1 ISZERO PUSH2 0x26B JUMPI DUP1 PUSH1 0x1F LT PUSH2 0x240 JUMPI PUSH2 0x100 DUP1 DUP4 SLOAD DIV MUL DUP4 MSTORE SWAP2 PUSH1 0x20 ADD SWAP2 PUSH2 0x26B JUMP JUMPDEST DUP3 ADD SWAP2 SWAP1 PUSH1 0x0 MSTORE PUSH1 0x20 PUSH1 0x0 KECCAK256 SWAP1 JUMPDEST DUP2 SLOAD DUP2 MSTORE SWAP1 PUSH1 0x1 ADD SWAP1 PUSH1 0x20 ADD DUP1 DUP4 GT PUSH2 0x24E JUMPI DUP3 SWAP1 SUB PUSH1 0x1F AND DUP3 ADD SWAP2 JUMPDEST POP POP POP POP POP DUP2 MSTORE POP POP SWAP1 POP DUP1 PUSH1 0x0 ADD MLOAD DUP2 PUSH1 0x20 ADD MLOAD DUP3 PUSH1 0x40 ADD MLOAD DUP4 PUSH1 0x60 ADD MLOAD SWAP5 POP SWAP5 POP SWAP5 POP SWAP5 POP POP SWAP2 SWAP4 POP SWAP2 SWAP4 JUMP JUMPDEST PUSH1 0x5 PUSH1 0x0 SWAP1 SLOAD SWAP1 PUSH2 0x100 EXP SWAP1 DIV PUSH20 0xFFFFFFFFFFFFFFFFFFFFFFFFFFFFFFFFFFFFFFFF AND PUSH20 0xFFFFFFFFFFFFFFFFFFFFFFFFFFFFFFFFFFFFFFFF AND CALLER PUSH20 0xFFFFFFFFFFFFFFFFFFFFFFFFFFFFFFFFFFFFFFFF AND EQ PUSH2 0x32A JUMPI PUSH1 0x40 MLOAD PUSH32 0x8C379A000000000000000000000000000000000000000000000000000000000 DUP2 MSTORE PUSH1 0x4 ADD PUSH2 0x321 SWAP1 PUSH2 0x798 JUMP JUMPDEST PUSH1 0x40 MLOAD DUP1 SWAP2 SUB SWAP1 REVERT JUMPDEST DUP4 PUSH1 0x1 PUSH1 0x0 ADD SWAP1 DUP1 MLOAD SWAP1 PUSH1 0x20 ADD SWAP1 PUSH2 0x343 SWAP3 SWAP2 SWAP1 PUSH2 0x40D JUMP JUMPDEST POP DUP3 PUSH1 0x1 DUP1 ADD SWAP1 DUP1 MLOAD SWAP1 PUSH1 0x20 ADD SWAP1 PUSH2 0x35C SWAP3 SWAP2 SWAP1 PUSH2 0x40D JUMP JUMPDEST POP DUP2 PUSH1 0x1 PUSH1 0x2 ADD DUP2 SWAP1 SSTORE POP DUP1 PUSH1 0x1 PUSH1 0x3 ADD SWAP1 DUP1 MLOAD SWAP1 PUSH1 0x20 ADD SWAP1 PUSH2 0x380 SWAP3 SWAP2 SWAP1 PUSH2 0x40D JUMP JUMPDEST POP PUSH1 0x1 PUSH1 0x0 DUP1 DUP8 PUSH2 0xFFFF AND DUP2 MSTORE PUSH1 0x20 ADD SWAP1 DUP2 MSTORE PUSH1 0x20 ADD PUSH1 0x0 KECCAK256 PUSH1 0x0 DUP3 ADD DUP2 PUSH1 0x0 ADD SWAP1 DUP1 SLOAD PUSH2 0x3AD SWAP1 PUSH2 0x884 JUMP JUMPDEST PUSH2 0x3B8 SWAP3 SWAP2 SWAP1 PUSH2 0x493 JUMP JUMPDEST POP PUSH1 0x1 DUP3 ADD DUP2 PUSH1 0x1 ADD SWAP1 DUP1 SLOAD PUSH2 0x3CD SWAP1 PUSH2 0x884 JUMP JUMPDEST PUSH2 0x3D8 SWAP3 SWAP2 SWAP1 PUSH2 0x493 JUMP JUMPDEST POP PUSH1 0x2 DUP3 ADD SLOAD DUP2 PUSH1 0x2 ADD SSTORE PUSH1 0x3 DUP3 ADD DUP2 PUSH1 0x3 ADD SWAP1 DUP1 SLOAD PUSH2 0x3F7 SWAP1 PUSH2 0x884 JUMP JUMPDEST PUSH2 0x402 SWAP3 SWAP2 SWAP1 PUSH2 0x493 JUMP JUMPDEST POP SWAP1 POP POP POP POP POP POP POP JUMP JUMPDEST DUP3 DUP1 SLOAD PUSH2 0x419 SWAP1 PUSH2 0x884 JUMP JUMPDEST SWAP1 PUSH1 0x0 MSTORE PUSH1 0x20 PUSH1 0x0 KECCAK256 SWAP1 PUSH1 0x1F ADD PUSH1 0x20 SWAP1 DIV DUP2 ADD SWAP3 DUP3 PUSH2 0x43B JUMPI PUSH1 0x0 DUP6 SSTORE PUSH2 0x482 JUMP JUMPDEST DUP3 PUSH1 0x1F LT PUSH2 0x454 JUMPI DUP1 MLOAD PUSH1 0xFF NOT AND DUP4 DUP1 ADD OR DUP6 SSTORE PUSH2 0x482 JUMP JUMPDEST DUP3 DUP1 ADD PUSH1 0x1 ADD DUP6 SSTORE DUP3 ISZERO PUSH2 0x482 JUMPI SWAP2 DUP3 ADD JUMPDEST DUP3 DUP2 GT ISZERO PUSH2 0x481 JUMPI DUP3 MLOAD DUP3 SSTORE SWAP2 PUSH1 0x20 ADD SWAP2 SWAP1 PUSH1 0x1 ADD SWAP1 PUSH2 0x466 JUMP JUMPDEST JUMPDEST POP SWAP1 POP PUSH2 0x48F SWAP2 SWAP1 PUSH2 0x520 JUMP JUMPDEST POP SWAP1 JUMP JUMPDEST DUP3 DUP1 SLOAD PUSH2 0x49F SWAP1 PUSH2 0x884 JUMP JUMPDEST SWAP1 PUSH1 0x0 MSTORE PUSH1 0x20 PUSH1 0x0 KECCAK256 SWAP1 PUSH1 0x1F ADD PUSH1 0x20 SWAP1 DIV DUP2 ADD SWAP3 DUP3 PUSH2 0x4C1 JUMPI PUSH1 0x0 DUP6 SSTORE PUSH2 0x50F JUMP JUMPDEST DUP3 PUSH1 0x1F LT PUSH2 0x4D2 JUMPI DUP1 SLOAD DUP6 SSTORE PUSH2 0x50F JUMP JUMPDEST DUP3 DUP1 ADD PUSH1 0x1 ADD DUP6 SSTORE DUP3 ISZERO PUSH2 0x50F JUMPI PUSH1 0x0 MSTORE PUSH1 0x20 PUSH1 0x0 KECCAK256 SWAP2 PUSH1 0x1F ADD PUSH1 0x20 SWAP1 DIV DUP3 ADD JUMPDEST DUP3 DUP2 GT ISZERO PUSH2 0x50E JUMPI DUP3 SLOAD DUP3 SSTORE SWAP2 PUSH1 0x1 ADD SWAP2 SWAP1 PUSH1 0x1 ADD SWAP1 PUSH2 0x4F3 JUMP JUMPDEST JUMPDEST POP SWAP1 POP PUSH2 0x51C SWAP2 SWAP1 PUSH2 0x520 JUMP JUMPDEST POP SWAP1 JUMP JUMPDEST JUMPDEST DUP1 DUP3 GT ISZERO PUSH2 0x539 JUMPI PUSH1 0x0 DUP2 PUSH1 0x0 SWAP1 SSTORE POP PUSH1 0x1 ADD PUSH2 0x521 JUMP JUMPDEST POP SWAP1 JUMP JUMPDEST PUSH1 0x0 PUSH2 0x550 PUSH2 0x54B DUP5 PUSH2 0x7DD JUMP JUMPDEST PUSH2 0x7B8 JUMP JUMPDEST SWAP1 POP DUP3 DUP2 MSTORE PUSH1 0x20 DUP2 ADD DUP5 DUP5 DUP5 ADD GT ISZERO PUSH2 0x56C JUMPI PUSH2 0x56B PUSH2 0x94A JUMP JUMPDEST JUMPDEST PUSH2 0x577 DUP5 DUP3 DUP6 PUSH2 0x842 JUMP JUMPDEST POP SWAP4 SWAP3 POP POP POP JUMP JUMPDEST PUSH1 0x0 DUP3 PUSH1 0x1F DUP4 ADD SLT PUSH2 0x594 JUMPI PUSH2 0x593 PUSH2 0x945 JUMP JUMPDEST JUMPDEST DUP2 CALLDATALOAD PUSH2 0x5A4 DUP5 DUP3 PUSH1 0x20 DUP7 ADD PUSH2 0x53D JUMP JUMPDEST SWAP2 POP POP SWAP3 SWAP2 POP POP JUMP JUMPDEST PUSH1 0x0 DUP2 CALLDATALOAD SWAP1 POP PUSH2 0x5BC DUP2 PUSH2 0x993 JUMP JUMPDEST SWAP3 SWAP2 POP POP JUMP JUMPDEST PUSH1 0x0 DUP2 CALLDATALOAD SWAP1 POP PUSH2 0x5D1 DUP2 PUSH2 0x9AA JUMP JUMPDEST SWAP3 SWAP2 POP POP JUMP JUMPDEST PUSH1 0x0 PUSH1 0x20 DUP3 DUP5 SUB SLT ISZERO PUSH2 0x5ED JUMPI PUSH2 0x5EC PUSH2 0x954 JUMP JUMPDEST JUMPDEST PUSH1 0x0 PUSH2 0x5FB DUP5 DUP3 DUP6 ADD PUSH2 0x5AD JUMP JUMPDEST SWAP2 POP POP SWAP3 SWAP2 POP POP JUMP JUMPDEST PUSH1 0x0 DUP1 PUSH1 0x0 DUP1 PUSH1 0x0 PUSH1 0xA0 DUP7 DUP9 SUB SLT ISZERO PUSH2 0x620 JUMPI PUSH2 0x61F PUSH2 0x954 JUMP JUMPDEST JUMPDEST PUSH1 0x0 PUSH2 0x62E DUP9 DUP3 DUP10 ADD PUSH2 0x5AD JUMP JUMPDEST SWAP6 POP POP PUSH1 0x20 DUP7 ADD CALLDATALOAD PUSH8 0xFFFFFFFFFFFFFFFF DUP2 GT ISZERO PUSH2 0x64F JUMPI PUSH2 0x64E PUSH2 0x94F JUMP JUMPDEST JUMPDEST PUSH2 0x65B DUP9 DUP3 DUP10 ADD PUSH2 0x57F JUMP JUMPDEST SWAP5 POP POP PUSH1 0x40 DUP7 ADD CALLDATALOAD PUSH8 0xFFFFFFFFFFFFFFFF DUP2 GT ISZERO PUSH2 0x67C JUMPI PUSH2 0x67B PUSH2 0x94F JUMP JUMPDEST JUMPDEST PUSH2 0x688 DUP9 DUP3 DUP10 ADD PUSH2 0x57F JUMP JUMPDEST SWAP4 POP POP PUSH1 0x60 PUSH2 0x699 DUP9 DUP3 DUP10 ADD PUSH2 0x5C2 JUMP JUMPDEST SWAP3 POP POP PUSH1 0x80 DUP7 ADD CALLDATALOAD PUSH8 0xFFFFFFFFFFFFFFFF DUP2 GT ISZERO PUSH2 0x6BA JUMPI PUSH2 0x6B9 PUSH2 0x94F JUMP JUMPDEST JUMPDEST PUSH2 0x6C6 DUP9 DUP3 DUP10 ADD PUSH2 0x57F JUMP JUMPDEST SWAP2 POP POP SWAP3 SWAP6 POP SWAP3 SWAP6 SWAP1 SWAP4 POP JUMP JUMPDEST PUSH1 0x0 PUSH2 0x6DE DUP3 PUSH2 0x80E JUMP JUMPDEST PUSH2 0x6E8 DUP2 DUP6 PUSH2 0x819 JUMP JUMPDEST SWAP4 POP PUSH2 0x6F8 DUP2 DUP6 PUSH1 0x20 DUP7 ADD PUSH2 0x851 JUMP JUMPDEST PUSH2 0x701 DUP2 PUSH2 0x959 JUMP JUMPDEST DUP5 ADD SWAP2 POP POP SWAP3 SWAP2 POP POP JUMP JUMPDEST PUSH1 0x0 PUSH2 0x719 PUSH1 0x15 DUP4 PUSH2 0x819 JUMP JUMPDEST SWAP2 POP PUSH2 0x724 DUP3 PUSH2 0x96A JUMP JUMPDEST PUSH1 0x20 DUP3 ADD SWAP1 POP SWAP2 SWAP1 POP JUMP JUMPDEST PUSH2 0x738 DUP2 PUSH2 0x838 JUMP JUMPDEST DUP3 MSTORE POP POP JUMP JUMPDEST PUSH1 0x0 PUSH1 0x80 DUP3 ADD SWAP1 POP DUP2 DUP2 SUB PUSH1 0x0 DUP4 ADD MSTORE PUSH2 0x758 DUP2 DUP8 PUSH2 0x6D3 JUMP JUMPDEST SWAP1 POP DUP2 DUP2 SUB PUSH1 0x20 DUP4 ADD MSTORE PUSH2 0x76C DUP2 DUP7 PUSH2 0x6D3 JUMP JUMPDEST SWAP1 POP PUSH2 0x77B PUSH1 0x40 DUP4 ADD DUP6 PUSH2 0x72F JUMP JUMPDEST DUP2 DUP2 SUB PUSH1 0x60 DUP4 ADD MSTORE PUSH2 0x78D DUP2 DUP5 PUSH2 0x6D3 JUMP JUMPDEST SWAP1 POP SWAP6 SWAP5 POP POP POP POP POP JUMP JUMPDEST PUSH1 0x0 PUSH1 0x20 DUP3 ADD SWAP1 POP DUP2 DUP2 SUB PUSH1 0x0 DUP4 ADD MSTORE PUSH2 0x7B1 DUP2 PUSH2 0x70C JUMP JUMPDEST SWAP1 POP SWAP2 SWAP1 POP JUMP JUMPDEST PUSH1 0x0 PUSH2 0x7C2 PUSH2 0x7D3 JUMP JUMPDEST SWAP1 POP PUSH2 0x7CE DUP3 DUP3 PUSH2 0x8B6 JUMP JUMPDEST SWAP2 SWAP1 POP JUMP JUMPDEST PUSH1 0x0 PUSH1 0x40 MLOAD SWAP1 POP SWAP1 JUMP JUMPDEST PUSH1 0x0 PUSH8 0xFFFFFFFFFFFFFFFF DUP3 GT ISZERO PUSH2 0x7F8 JUMPI PUSH2 0x7F7 PUSH2 0x916 JUMP JUMPDEST JUMPDEST PUSH2 0x801 DUP3 PUSH2 0x959 JUMP JUMPDEST SWAP1 POP PUSH1 0x20 DUP2 ADD SWAP1 POP SWAP2 SWAP1 POP JUMP JUMPDEST PUSH1 0x0 DUP2 MLOAD SWAP1 POP SWAP2 SWAP1 POP JUMP JUMPDEST PUSH1 0x0 DUP3 DUP3 MSTORE PUSH1 0x20 DUP3 ADD SWAP1 POP SWAP3 SWAP2 POP POP JUMP JUMPDEST PUSH1 0x0 PUSH2 0xFFFF DUP3 AND SWAP1 POP SWAP2 SWAP1 POP JUMP JUMPDEST PUSH1 0x0 DUP2 SWAP1 POP SWAP2 SWAP1 POP JUMP JUMPDEST DUP3 DUP2 DUP4 CALLDATACOPY PUSH1 0x0 DUP4 DUP4 ADD MSTORE POP POP POP JUMP JUMPDEST PUSH1 0x0 JUMPDEST DUP4 DUP2 LT ISZERO PUSH2 0x86F JUMPI DUP1 DUP3 ADD MLOAD DUP2 DUP5 ADD MSTORE PUSH1 0x20 DUP2 ADD SWAP1 POP PUSH2 0x854 JUMP JUMPDEST DUP4 DUP2 GT ISZERO PUSH2 0x87E JUMPI PUSH1 0x0 DUP5 DUP5 ADD MSTORE JUMPDEST POP POP POP POP JUMP JUMPDEST PUSH1 0x0 PUSH1 0x2 DUP3 DIV SWAP1 POP PUSH1 0x1 DUP3 AND DUP1 PUSH2 0x89C JUMPI PUSH1 0x7F DUP3 AND SWAP2 POP JUMPDEST PUSH1 0x20 DUP3 LT DUP2 EQ ISZERO PUSH2 0x8B0 JUMPI PUSH2 0x8AF PUSH2 0x8E7 JUMP JUMPDEST JUMPDEST POP SWAP2 SWAP1 POP JUMP JUMPDEST PUSH2 0x8BF DUP3 PUSH2 0x959 JUMP JUMPDEST DUP2 ADD DUP2 DUP2 LT PUSH8 0xFFFFFFFFFFFFFFFF DUP3 GT OR ISZERO PUSH2 0x8DE JUMPI PUSH2 0x8DD PUSH2 0x916 JUMP JUMPDEST JUMPDEST DUP1 PUSH1 0x40 MSTORE POP POP POP JUMP JUMPDEST PUSH32 0x4E487B7100000000000000000000000000000000000000000000000000000000 PUSH1 0x0 MSTORE PUSH1 0x22 PUSH1 0x4 MSTORE PUSH1 0x24 PUSH1 0x0 REVERT JUMPDEST PUSH32 0x4E487B7100000000000000000000000000000000000000000000000000000000 PUSH1 0x0 MSTORE PUSH1 0x41 PUSH1 0x4 MSTORE PUSH1 0x24 PUSH1 0x0 REVERT JUMPDEST PUSH1 0x0 DUP1 REVERT JUMPDEST PUSH1 0x0 DUP1 REVERT JUMPDEST PUSH1 0x0 DUP1 REVERT JUMPDEST PUSH1 0x0 DUP1 REVERT JUMPDEST PUSH1 0x0 PUSH1 0x1F NOT PUSH1 0x1F DUP4 ADD AND SWAP1 POP SWAP2 SWAP1 POP JUMP JUMPDEST PUSH32 0x416363657373206973206E6F7420616C6C6F7765640000000000000000000000 PUSH1 0x0 DUP3 ADD MSTORE POP JUMP JUMPDEST PUSH2 0x99C DUP2 PUSH2 0x82A JUMP JUMPDEST DUP2 EQ PUSH2 0x9A7 JUMPI PUSH1 0x0 DUP1 REVERT JUMPDEST POP JUMP JUMPDEST PUSH2 0x9B3 DUP2 PUSH2 0x838 JUMP JUMPDEST DUP2 EQ PUSH2 0x9BE JUMPI PUSH1 0x0 DUP1 REVERT JUMPDEST POP JUMP INVALID LOG2 PUSH5 0x6970667358 0x22 SLT KECCAK256 PUSH11 0xEDA666BBF2C8A76B7F288D 0xBC 0xDF 0xF7 0xBA 0xDA 0xAF 0x5C 0x23 0xBA POP 0xC4 SUB EXTCODESIZE 0xF8 0x2A REVERT LOG0 0xF 0xDF 0xC4 PUSH5 0x736F6C6343 STOP ADDMOD SMOD STOP CALLER "
				},
				"gasEstimates": {
					"creation": {
						"codeDepositCost": "510200",
						"executionCost": "24810",
						"totalCost": "535010"
					},
					"external": {
						"retreive_doctor_details(uint16)": "infinite",
						"store_doctor_details(uint16,string,string,uint256,string)": "infinite"
					}
				},
				"methodIdentifiers": {
					"retreive_doctor_details(uint16)": "68bdecfe",
					"store_doctor_details(uint16,string,string,uint256,string)": "6cac3a18"
				}
			},
			"storageLayout": {
				"storage": [
					{
						"astId": 6,
						"contract": "doctors.sol:Doctor",
						"label": "doctorlist",
						"offset": 0,
						"slot": "0",
						"type": "t_mapping(t_uint256,t_struct(doctor)15_storage)"
					},
					{
						"astId": 18,
						"contract": "doctors.sol:Doctor",
						"label": "d",
						"offset": 0,
						"slot": "1",
						"type": "t_struct(doctor)15_storage"
					},
					{
						"astId": 20,
						"contract": "doctors.sol:Doctor",
						"label": "owner",
						"offset": 0,
						"slot": "5",
						"type": "t_address"
					}
				],
				"types": {
					"t_address": {
						"encoding": "inplace",
						"label": "address",
						"numberOfBytes": "20"
					},
					"t_mapping(t_uint256,t_struct(doctor)15_storage)": {
						"encoding": "mapping",
						"key": "t_uint256",
						"label": "mapping(uint256 => struct Doctor.doctor)",
						"numberOfBytes": "32",
						"value": "t_struct(doctor)15_storage"
					},
					"t_string_storage": {
						"encoding": "bytes",
						"label": "string",
						"numberOfBytes": "32"
					},
					"t_struct(doctor)15_storage": {
						"encoding": "inplace",
						"label": "struct Doctor.doctor",
						"members": [
							{
								"astId": 8,
								"contract": "doctors.sol:Doctor",
								"label": "doctor_name",
								"offset": 0,
								"slot": "0",
								"type": "t_string_storage"
							},
							{
								"astId": 10,
								"contract": "doctors.sol:Doctor",
								"label": "doctor_specialisation",
								"offset": 0,
								"slot": "1",
								"type": "t_string_storage"
							},
							{
								"astId": 12,
								"contract": "doctors.sol:Doctor",
								"label": "doctor_ph_no",
								"offset": 0,
								"slot": "2",
								"type": "t_uint256"
							},
							{
								"astId": 14,
								"contract": "doctors.sol:Doctor",
								"label": "doctor_address",
								"offset": 0,
								"slot": "3",
								"type": "t_string_storage"
							}
						],
						"numberOfBytes": "128"
					},
					"t_uint256": {
						"encoding": "inplace",
						"label": "uint256",
						"numberOfBytes": "32"
					}
				}
			},
			"userdoc": {
				"kind": "user",
				"methods": {},
				"version": 1
			}
		}
	}
}