{
	"patient.sol": {
		"Patient": {
			"abi": [
				{
					"inputs": [],
					"stateMutability": "nonpayable",
					"type": "constructor"
				},
				{
					"inputs": [
						{
							"internalType": "uint256",
							"name": "patient_id",
							"type": "uint256"
						}
					],
					"name": "retreive_attendant_details",
					"outputs": [
						{
							"internalType": "string",
							"name": "",
							"type": "string"
						},
						{
							"internalType": "string",
							"name": "",
							"type": "string"
						},
						{
							"internalType": "uint256",
							"name": "",
							"type": "uint256"
						}
					],
					"stateMutability": "view",
					"type": "function"
				},
				{
					"inputs": [
						{
							"internalType": "uint256",
							"name": "patient_id",
							"type": "uint256"
						}
					],
					"name": "retreive_patient_details",
					"outputs": [
						{
							"internalType": "string",
							"name": "",
							"type": "string"
						},
						{
							"internalType": "uint256",
							"name": "",
							"type": "uint256"
						},
						{
							"internalType": "string",
							"name": "",
							"type": "string"
						},
						{
							"internalType": "string",
							"name": "",
							"type": "string"
						},
						{
							"internalType": "uint256",
							"name": "",
							"type": "uint256"
						},
						{
							"internalType": "string",
							"name": "",
							"type": "string"
						},
						{
							"internalType": "uint256",
							"name": "",
							"type": "uint256"
						},
						{
							"internalType": "string",
							"name": "",
							"type": "string"
						},
						{
							"internalType": "uint256",
							"name": "",
							"type": "uint256"
						}
					],
					"stateMutability": "view",
					"type": "function"
				},
				{
					"inputs": [
						{
							"internalType": "uint256",
							"name": "patient_id",
							"type": "uint256"
						},
						{
							"internalType": "string",
							"name": "_attendant_name",
							"type": "string"
						},
						{
							"internalType": "string",
							"name": "_attendant_relation",
							"type": "string"
						},
						{
							"internalType": "uint256",
							"name": "_attendant_phn_no",
							"type": "uint256"
						}
					],
					"name": "store_attendant_details",
					"outputs": [],
					"stateMutability": "nonpayable",
					"type": "function"
				},
				{
					"inputs": [
						{
							"internalType": "uint256",
							"name": "patient_id",
							"type": "uint256"
						},
						{
							"internalType": "string",
							"name": "_patient_name",
							"type": "string"
						},
						{
							"internalType": "uint256",
							"name": "_age",
							"type": "uint256"
						},
						{
							"internalType": "string",
							"name": "_gender",
							"type": "string"
						},
						{
							"internalType": "string",
							"name": "_height",
							"type": "string"
						},
						{
							"internalType": "uint256",
							"name": "_weight",
							"type": "uint256"
						},
						{
							"internalType": "string",
							"name": "_patient_address",
							"type": "string"
						},
						{
							"internalType": "uint256",
							"name": "_phone_no",
							"type": "uint256"
						},
						{
							"internalType": "string",
							"name": "_email_id",
							"type": "string"
						},
						{
							"internalType": "uint256",
							"name": "_date",
							"type": "uint256"
						}
					],
					"name": "store_patient_details",
					"outputs": [],
					"stateMutability": "nonpayable",
					"type": "function"
				}
			],
			"devdoc": {
				"details": "Store & retreive patient details",
				"kind": "dev",
				"methods": {
					"retreive_attendant_details(uint256)": {
						"details": "Retreive attendant details",
						"params": {
							"patient_id": "patient id "
						}
					},
					"retreive_patient_details(uint256)": {
						"details": "Retreive patient details",
						"params": {
							"patient_id": "patient id "
						}
					},
					"store_attendant_details(uint256,string,string,uint256)": {
						"details": "Store attendant details",
						"params": {
							"_attendant_name": "name of attendant",
							"_attendant_phn_no": "phone no ",
							"_attendant_relation": "relation to patient",
							"patient_id": "patient id"
						}
					},
					"store_patient_details(uint256,string,uint256,string,string,uint256,string,uint256,string,uint256)": {
						"details": "Store patient details",
						"params": {
							"_age": "age",
							"_date": "date",
							"_email_id": "mail id",
							"_gender": "gender",
							"_height": "height",
							"_patient_address": "address",
							"_patient_name": "patient name",
							"_phone_no": "phone number",
							"_weight": "weight",
							"patient_id": "patient id"
						}
					}
				},
				"title": "Medical records",
				"version": 1
			},
			"evm": {
				"assembly": "    /* \"patient.sol\":109:4041  contract Patient {\r... */\n  mstore(0x40, 0x80)\n    /* \"patient.sol\":775:887  constructor() public {\r... */\n  callvalue\n  dup1\n  iszero\n  tag_1\n  jumpi\n  0x00\n  dup1\n  revert\ntag_1:\n  pop\n    /* \"patient.sol\":815:857  0xE6005Cc724c2d44F0aF23d663017a7E375DD7F35 */\n  0xe6005cc724c2d44f0af23d663017a7e375dd7f35\n    /* \"patient.sol\":807:812  owner */\n  0x11\n  0x00\n    /* \"patient.sol\":807:857  owner = 0xE6005Cc724c2d44F0aF23d663017a7E375DD7F35 */\n  0x0100\n  exp\n  dup2\n  sload\n  dup2\n  0xffffffffffffffffffffffffffffffffffffffff\n  mul\n  not\n  and\n  swap1\n  dup4\n  0xffffffffffffffffffffffffffffffffffffffff\n  and\n  mul\n  or\n  swap1\n  sstore\n  pop\n    /* \"patient.sol\":109:4041  contract Patient {\r... */\n  dataSize(sub_0)\n  dup1\n  dataOffset(sub_0)\n  0x00\n  codecopy\n  0x00\n  return\nstop\n\nsub_0: assembly {\n        /* \"patient.sol\":109:4041  contract Patient {\r... */\n      mstore(0x40, 0x80)\n      callvalue\n      dup1\n      iszero\n      tag_1\n      jumpi\n      0x00\n      dup1\n      revert\n    tag_1:\n      pop\n      jumpi(tag_2, lt(calldatasize, 0x04))\n      shr(0xe0, calldataload(0x00))\n      dup1\n      0x65d4352a\n      eq\n      tag_3\n      jumpi\n      dup1\n      0xc909f8f7\n      eq\n      tag_4\n      jumpi\n      dup1\n      0xd734f9b7\n      eq\n      tag_5\n      jumpi\n      dup1\n      0xf5b31bfe\n      eq\n      tag_6\n      jumpi\n    tag_2:\n      0x00\n      dup1\n      revert\n        /* \"patient.sol\":2931:3590  function retreive_patient_details(uint256 patient_id)\r... */\n    tag_3:\n      tag_7\n      0x04\n      dup1\n      calldatasize\n      sub\n      dup2\n      add\n      swap1\n      tag_8\n      swap2\n      swap1\n      tag_9\n      jump\t// in\n    tag_8:\n      tag_10\n      jump\t// in\n    tag_7:\n      mload(0x40)\n      tag_11\n      swap10\n      swap9\n      swap8\n      swap7\n      swap6\n      swap5\n      swap4\n      swap3\n      swap2\n      swap1\n      tag_12\n      jump\t// in\n    tag_11:\n      mload(0x40)\n      dup1\n      swap2\n      sub\n      swap1\n      return\n        /* \"patient.sol\":1440:2143  function store_patient_details(\r... */\n    tag_4:\n      tag_13\n      0x04\n      dup1\n      calldatasize\n      sub\n      dup2\n      add\n      swap1\n      tag_14\n      swap2\n      swap1\n      tag_15\n      jump\t// in\n    tag_14:\n      tag_16\n      jump\t// in\n    tag_13:\n      stop\n        /* \"patient.sol\":3695:4038  function retreive_attendant_details(uint256 patient_id)\r... */\n    tag_5:\n      tag_17\n      0x04\n      dup1\n      calldatasize\n      sub\n      dup2\n      add\n      swap1\n      tag_18\n      swap2\n      swap1\n      tag_9\n      jump\t// in\n    tag_18:\n      tag_19\n      jump\t// in\n    tag_17:\n      mload(0x40)\n      tag_20\n      swap4\n      swap3\n      swap2\n      swap1\n      tag_21\n      jump\t// in\n    tag_20:\n      mload(0x40)\n      dup1\n      swap2\n      sub\n      swap1\n      return\n        /* \"patient.sol\":2391:2828  function store_attendant_details(\r... */\n    tag_6:\n      tag_22\n      0x04\n      dup1\n      calldatasize\n      sub\n      dup2\n      add\n      swap1\n      tag_23\n      swap2\n      swap1\n      tag_24\n      jump\t// in\n    tag_23:\n      tag_25\n      jump\t// in\n    tag_22:\n      stop\n        /* \"patient.sol\":2931:3590  function retreive_patient_details(uint256 patient_id)\r... */\n    tag_10:\n        /* \"patient.sol\":3047:3060  string memory */\n      0x60\n        /* \"patient.sol\":3075:3082  uint256 */\n      0x00\n        /* \"patient.sol\":3097:3110  string memory */\n      0x60\n        /* \"patient.sol\":3125:3138  string memory */\n      dup1\n        /* \"patient.sol\":3153:3160  uint256 */\n      0x00\n        /* \"patient.sol\":3175:3188  string memory */\n      0x60\n        /* \"patient.sol\":3203:3210  uint256 */\n      0x00\n        /* \"patient.sol\":3225:3238  string memory */\n      0x60\n        /* \"patient.sol\":3253:3260  uint256 */\n      0x00\n        /* \"patient.sol\":3288:3304  patient memory p */\n      dup1\n        /* \"patient.sol\":3307:3318  patientlist */\n      0x00\n        /* \"patient.sol\":3307:3330  patientlist[patient_id] */\n      dup1\n        /* \"patient.sol\":3319:3329  patient_id */\n      dup13\n        /* \"patient.sol\":3307:3330  patientlist[patient_id] */\n      dup2\n      mstore\n      0x20\n      add\n      swap1\n      dup2\n      mstore\n      0x20\n      add\n      0x00\n      keccak256\n        /* \"patient.sol\":3288:3330  patient memory p = patientlist[patient_id] */\n      mload(0x40)\n      dup1\n      0x0160\n      add\n      0x40\n      mstore\n      swap1\n      dup2\n      0x00\n      dup3\n      add\n      dup1\n      sload\n      tag_27\n      swap1\n      tag_28\n      jump\t// in\n    tag_27:\n      dup1\n      0x1f\n      add\n      0x20\n      dup1\n      swap2\n      div\n      mul\n      0x20\n      add\n      mload(0x40)\n      swap1\n      dup2\n      add\n      0x40\n      mstore\n      dup1\n      swap3\n      swap2\n      swap1\n      dup2\n      dup2\n      mstore\n      0x20\n      add\n      dup3\n      dup1\n      sload\n      tag_29\n      swap1\n      tag_28\n      jump\t// in\n    tag_29:\n      dup1\n      iszero\n      tag_30\n      jumpi\n      dup1\n      0x1f\n      lt\n      tag_31\n      jumpi\n      0x0100\n      dup1\n      dup4\n      sload\n      div\n      mul\n      dup4\n      mstore\n      swap2\n      0x20\n      add\n      swap2\n      jump(tag_30)\n    tag_31:\n      dup3\n      add\n      swap2\n      swap1\n      0x00\n      mstore\n      keccak256(0x00, 0x20)\n      swap1\n    tag_32:\n      dup2\n      sload\n      dup2\n      mstore\n      swap1\n      0x01\n      add\n      swap1\n      0x20\n      add\n      dup1\n      dup4\n      gt\n      tag_32\n      jumpi\n      dup3\n      swap1\n      sub\n      0x1f\n      and\n      dup3\n      add\n      swap2\n    tag_30:\n      pop\n      pop\n      pop\n      pop\n      pop\n      dup2\n      mstore\n      0x20\n      add\n      0x01\n      dup3\n      add\n      sload\n      dup2\n      mstore\n      0x20\n      add\n      0x02\n      dup3\n      add\n      dup1\n      sload\n      tag_33\n      swap1\n      tag_28\n      jump\t// in\n    tag_33:\n      dup1\n      0x1f\n      add\n      0x20\n      dup1\n      swap2\n      div\n      mul\n      0x20\n      add\n      mload(0x40)\n      swap1\n      dup2\n      add\n      0x40\n      mstore\n      dup1\n      swap3\n      swap2\n      swap1\n      dup2\n      dup2\n      mstore\n      0x20\n      add\n      dup3\n      dup1\n      sload\n      tag_34\n      swap1\n      tag_28\n      jump\t// in\n    tag_34:\n      dup1\n      iszero\n      tag_35\n      jumpi\n      dup1\n      0x1f\n      lt\n      tag_36\n      jumpi\n      0x0100\n      dup1\n      dup4\n      sload\n      div\n      mul\n      dup4\n      mstore\n      swap2\n      0x20\n      add\n      swap2\n      jump(tag_35)\n    tag_36:\n      dup3\n      add\n      swap2\n      swap1\n      0x00\n      mstore\n      keccak256(0x00, 0x20)\n      swap1\n    tag_37:\n      dup2\n      sload\n      dup2\n      mstore\n      swap1\n      0x01\n      add\n      swap1\n      0x20\n      add\n      dup1\n      dup4\n      gt\n      tag_37\n      jumpi\n      dup3\n      swap1\n      sub\n      0x1f\n      and\n      dup3\n      add\n      swap2\n    tag_35:\n      pop\n      pop\n      pop\n      pop\n      pop\n      dup2\n      mstore\n      0x20\n      add\n      0x03\n      dup3\n      add\n      dup1\n      sload\n      tag_38\n      swap1\n      tag_28\n      jump\t// in\n    tag_38:\n      dup1\n      0x1f\n      add\n      0x20\n      dup1\n      swap2\n      div\n      mul\n      0x20\n      add\n      mload(0x40)\n      swap1\n      dup2\n      add\n      0x40\n      mstore\n      dup1\n      swap3\n      swap2\n      swap1\n      dup2\n      dup2\n      mstore\n      0x20\n      add\n      dup3\n      dup1\n      sload\n      tag_39\n      swap1\n      tag_28\n      jump\t// in\n    tag_39:\n      dup1\n      iszero\n      tag_40\n      jumpi\n      dup1\n      0x1f\n      lt\n      tag_41\n      jumpi\n      0x0100\n      dup1\n      dup4\n      sload\n      div\n      mul\n      dup4\n      mstore\n      swap2\n      0x20\n      add\n      swap2\n      jump(tag_40)\n    tag_41:\n      dup3\n      add\n      swap2\n      swap1\n      0x00\n      mstore\n      keccak256(0x00, 0x20)\n      swap1\n    tag_42:\n      dup2\n      sload\n      dup2\n      mstore\n      swap1\n      0x01\n      add\n      swap1\n      0x20\n      add\n      dup1\n      dup4\n      gt\n      tag_42\n      jumpi\n      dup3\n      swap1\n      sub\n      0x1f\n      and\n      dup3\n      add\n      swap2\n    tag_40:\n      pop\n      pop\n      pop\n      pop\n      pop\n      dup2\n      mstore\n      0x20\n      add\n      0x04\n      dup3\n      add\n      sload\n      dup2\n      mstore\n      0x20\n      add\n      0x05\n      dup3\n      add\n      dup1\n      sload\n      tag_43\n      swap1\n      tag_28\n      jump\t// in\n    tag_43:\n      dup1\n      0x1f\n      add\n      0x20\n      dup1\n      swap2\n      div\n      mul\n      0x20\n      add\n      mload(0x40)\n      swap1\n      dup2\n      add\n      0x40\n      mstore\n      dup1\n      swap3\n      swap2\n      swap1\n      dup2\n      dup2\n      mstore\n      0x20\n      add\n      dup3\n      dup1\n      sload\n      tag_44\n      swap1\n      tag_28\n      jump\t// in\n    tag_44:\n      dup1\n      iszero\n      tag_45\n      jumpi\n      dup1\n      0x1f\n      lt\n      tag_46\n      jumpi\n      0x0100\n      dup1\n      dup4\n      sload\n      div\n      mul\n      dup4\n      mstore\n      swap2\n      0x20\n      add\n      swap2\n      jump(tag_45)\n    tag_46:\n      dup3\n      add\n      swap2\n      swap1\n      0x00\n      mstore\n      keccak256(0x00, 0x20)\n      swap1\n    tag_47:\n      dup2\n      sload\n      dup2\n      mstore\n      swap1\n      0x01\n      add\n      swap1\n      0x20\n      add\n      dup1\n      dup4\n      gt\n      tag_47\n      jumpi\n      dup3\n      swap1\n      sub\n      0x1f\n      and\n      dup3\n      add\n      swap2\n    tag_45:\n      pop\n      pop\n      pop\n      pop\n      pop\n      dup2\n      mstore\n      0x20\n      add\n      0x06\n      dup3\n      add\n      sload\n      dup2\n      mstore\n      0x20\n      add\n      0x07\n      dup3\n      add\n      dup1\n      sload\n      tag_48\n      swap1\n      tag_28\n      jump\t// in\n    tag_48:\n      dup1\n      0x1f\n      add\n      0x20\n      dup1\n      swap2\n      div\n      mul\n      0x20\n      add\n      mload(0x40)\n      swap1\n      dup2\n      add\n      0x40\n      mstore\n      dup1\n      swap3\n      swap2\n      swap1\n      dup2\n      dup2\n      mstore\n      0x20\n      add\n      dup3\n      dup1\n      sload\n      tag_49\n      swap1\n      tag_28\n      jump\t// in\n    tag_49:\n      dup1\n      iszero\n      tag_50\n      jumpi\n      dup1\n      0x1f\n      lt\n      tag_51\n      jumpi\n      0x0100\n      dup1\n      dup4\n      sload\n      div\n      mul\n      dup4\n      mstore\n      swap2\n      0x20\n      add\n      swap2\n      jump(tag_50)\n    tag_51:\n      dup3\n      add\n      swap2\n      swap1\n      0x00\n      mstore\n      keccak256(0x00, 0x20)\n      swap1\n    tag_52:\n      dup2\n      sload\n      dup2\n      mstore\n      swap1\n      0x01\n      add\n      swap1\n      0x20\n      add\n      dup1\n      dup4\n      gt\n      tag_52\n      jumpi\n      dup3\n      swap1\n      sub\n      0x1f\n      and\n      dup3\n      add\n      swap2\n    tag_50:\n      pop\n      pop\n      pop\n      pop\n      pop\n      dup2\n      mstore\n      0x20\n      add\n      0x08\n      dup3\n      add\n      sload\n      dup2\n      mstore\n      0x20\n      add\n      0x09\n      dup3\n      add\n      sload\n      dup2\n      mstore\n      0x20\n      add\n      0x0a\n      dup3\n      add\n      sload\n      dup2\n      mstore\n      pop\n      pop\n      swap1\n      pop\n        /* \"patient.sol\":3365:3366  p */\n      dup1\n        /* \"patient.sol\":3365:3379  p.patient_name */\n      0x00\n      add\n      mload\n        /* \"patient.sol\":3394:3395  p */\n      dup2\n        /* \"patient.sol\":3394:3399  p.age */\n      0x20\n      add\n      mload\n        /* \"patient.sol\":3414:3415  p */\n      dup3\n        /* \"patient.sol\":3414:3422  p.gender */\n      0x40\n      add\n      mload\n        /* \"patient.sol\":3437:3438  p */\n      dup4\n        /* \"patient.sol\":3437:3445  p.height */\n      0x60\n      add\n      mload\n        /* \"patient.sol\":3460:3461  p */\n      dup5\n        /* \"patient.sol\":3460:3468  p.weight */\n      0x80\n      add\n      mload\n        /* \"patient.sol\":3483:3484  p */\n      dup6\n        /* \"patient.sol\":3483:3500  p.patient_address */\n      0xa0\n      add\n      mload\n        /* \"patient.sol\":3515:3516  p */\n      dup7\n        /* \"patient.sol\":3515:3525  p.phone_no */\n      0xc0\n      add\n      mload\n        /* \"patient.sol\":3540:3541  p */\n      dup8\n        /* \"patient.sol\":3540:3550  p.email_id */\n      0xe0\n      add\n      mload\n        /* \"patient.sol\":3565:3566  p */\n      dup9\n        /* \"patient.sol\":3565:3571  p.date */\n      0x0100\n      add\n      mload\n        /* \"patient.sol\":3343:3582  return (\r... */\n      swap10\n      pop\n      swap10\n      pop\n      swap10\n      pop\n      swap10\n      pop\n      swap10\n      pop\n      swap10\n      pop\n      swap10\n      pop\n      swap10\n      pop\n      swap10\n      pop\n      pop\n        /* \"patient.sol\":2931:3590  function retreive_patient_details(uint256 patient_id)\r... */\n      swap2\n      swap4\n      swap6\n      swap8\n      swap10\n      swap1\n      swap3\n      swap5\n      swap7\n      swap9\n      pop\n      jump\t// out\n        /* \"patient.sol\":1440:2143  function store_patient_details(\r... */\n    tag_16:\n        /* \"patient.sol\":996:1001  owner */\n      0x11\n      0x00\n      swap1\n      sload\n      swap1\n      0x0100\n      exp\n      swap1\n      div\n      0xffffffffffffffffffffffffffffffffffffffff\n      and\n        /* \"patient.sol\":982:1001  msg.sender == owner */\n      0xffffffffffffffffffffffffffffffffffffffff\n      and\n        /* \"patient.sol\":982:992  msg.sender */\n      caller\n        /* \"patient.sol\":982:1001  msg.sender == owner */\n      0xffffffffffffffffffffffffffffffffffffffff\n      and\n      eq\n        /* \"patient.sol\":974:1027  require(msg.sender == owner, \"Access is not allowed\") */\n      tag_54\n      jumpi\n      mload(0x40)\n      0x08c379a000000000000000000000000000000000000000000000000000000000\n      dup2\n      mstore\n      0x04\n      add\n      tag_55\n      swap1\n      tag_56\n      jump\t// in\n    tag_55:\n      mload(0x40)\n      dup1\n      swap2\n      sub\n      swap1\n      revert\n    tag_54:\n        /* \"patient.sol\":1834:1847  _patient_name */\n      dup9\n        /* \"patient.sol\":1817:1818  p */\n      0x02\n        /* \"patient.sol\":1817:1831  p.patient_name */\n      0x00\n      add\n        /* \"patient.sol\":1817:1847  p.patient_name = _patient_name */\n      swap1\n      dup1\n      mload\n      swap1\n      0x20\n      add\n      swap1\n      tag_58\n      swap3\n      swap2\n      swap1\n      tag_59\n      jump\t// in\n    tag_58:\n      pop\n        /* \"patient.sol\":1866:1870  _age */\n      dup8\n        /* \"patient.sol\":1858:1859  p */\n      0x02\n        /* \"patient.sol\":1858:1863  p.age */\n      0x01\n      add\n        /* \"patient.sol\":1858:1870  p.age = _age */\n      dup2\n      swap1\n      sstore\n      pop\n        /* \"patient.sol\":1892:1899  _gender */\n      dup7\n        /* \"patient.sol\":1881:1882  p */\n      0x02\n        /* \"patient.sol\":1881:1889  p.gender */\n      dup1\n      add\n        /* \"patient.sol\":1881:1899  p.gender = _gender */\n      swap1\n      dup1\n      mload\n      swap1\n      0x20\n      add\n      swap1\n      tag_60\n      swap3\n      swap2\n      swap1\n      tag_59\n      jump\t// in\n    tag_60:\n      pop\n        /* \"patient.sol\":1921:1928  _height */\n      dup6\n        /* \"patient.sol\":1910:1911  p */\n      0x02\n        /* \"patient.sol\":1910:1918  p.height */\n      0x03\n      add\n        /* \"patient.sol\":1910:1928  p.height = _height */\n      swap1\n      dup1\n      mload\n      swap1\n      0x20\n      add\n      swap1\n      tag_61\n      swap3\n      swap2\n      swap1\n      tag_59\n      jump\t// in\n    tag_61:\n      pop\n        /* \"patient.sol\":1950:1957  _weight */\n      dup5\n        /* \"patient.sol\":1939:1940  p */\n      0x02\n        /* \"patient.sol\":1939:1947  p.weight */\n      0x04\n      add\n        /* \"patient.sol\":1939:1957  p.weight = _weight */\n      dup2\n      swap1\n      sstore\n      pop\n        /* \"patient.sol\":1988:2004  _patient_address */\n      dup4\n        /* \"patient.sol\":1968:1969  p */\n      0x02\n        /* \"patient.sol\":1968:1985  p.patient_address */\n      0x05\n      add\n        /* \"patient.sol\":1968:2004  p.patient_address = _patient_address */\n      swap1\n      dup1\n      mload\n      swap1\n      0x20\n      add\n      swap1\n      tag_62\n      swap3\n      swap2\n      swap1\n      tag_59\n      jump\t// in\n    tag_62:\n      pop\n        /* \"patient.sol\":2028:2037  _phone_no */\n      dup3\n        /* \"patient.sol\":2015:2016  p */\n      0x02\n        /* \"patient.sol\":2015:2025  p.phone_no */\n      0x06\n      add\n        /* \"patient.sol\":2015:2037  p.phone_no = _phone_no */\n      dup2\n      swap1\n      sstore\n      pop\n        /* \"patient.sol\":2061:2070  _email_id */\n      dup2\n        /* \"patient.sol\":2048:2049  p */\n      0x02\n        /* \"patient.sol\":2048:2058  p.email_id */\n      0x07\n      add\n        /* \"patient.sol\":2048:2070  p.email_id = _email_id */\n      swap1\n      dup1\n      mload\n      swap1\n      0x20\n      add\n      swap1\n      tag_63\n      swap3\n      swap2\n      swap1\n      tag_59\n      jump\t// in\n    tag_63:\n      pop\n        /* \"patient.sol\":2090:2095  _date */\n      dup1\n        /* \"patient.sol\":2081:2082  p */\n      0x02\n        /* \"patient.sol\":2081:2087  p.date */\n      0x08\n      add\n        /* \"patient.sol\":2081:2095  p.date = _date */\n      dup2\n      swap1\n      sstore\n      pop\n        /* \"patient.sol\":2134:2135  p */\n      0x02\n        /* \"patient.sol\":2108:2119  patientlist */\n      0x00\n        /* \"patient.sol\":2108:2131  patientlist[patient_id] */\n      dup1\n        /* \"patient.sol\":2120:2130  patient_id */\n      dup13\n        /* \"patient.sol\":2108:2131  patientlist[patient_id] */\n      dup2\n      mstore\n      0x20\n      add\n      swap1\n      dup2\n      mstore\n      0x20\n      add\n      0x00\n      keccak256\n        /* \"patient.sol\":2108:2135  patientlist[patient_id] = p */\n      0x00\n      dup3\n      add\n      dup2\n      0x00\n      add\n      swap1\n      dup1\n      sload\n      tag_64\n      swap1\n      tag_28\n      jump\t// in\n    tag_64:\n      tag_65\n      swap3\n      swap2\n      swap1\n      tag_66\n      jump\t// in\n    tag_65:\n      pop\n      0x01\n      dup3\n      add\n      sload\n      dup2\n      0x01\n      add\n      sstore\n      0x02\n      dup3\n      add\n      dup2\n      0x02\n      add\n      swap1\n      dup1\n      sload\n      tag_67\n      swap1\n      tag_28\n      jump\t// in\n    tag_67:\n      tag_68\n      swap3\n      swap2\n      swap1\n      tag_66\n      jump\t// in\n    tag_68:\n      pop\n      0x03\n      dup3\n      add\n      dup2\n      0x03\n      add\n      swap1\n      dup1\n      sload\n      tag_69\n      swap1\n      tag_28\n      jump\t// in\n    tag_69:\n      tag_70\n      swap3\n      swap2\n      swap1\n      tag_66\n      jump\t// in\n    tag_70:\n      pop\n      0x04\n      dup3\n      add\n      sload\n      dup2\n      0x04\n      add\n      sstore\n      0x05\n      dup3\n      add\n      dup2\n      0x05\n      add\n      swap1\n      dup1\n      sload\n      tag_71\n      swap1\n      tag_28\n      jump\t// in\n    tag_71:\n      tag_72\n      swap3\n      swap2\n      swap1\n      tag_66\n      jump\t// in\n    tag_72:\n      pop\n      0x06\n      dup3\n      add\n      sload\n      dup2\n      0x06\n      add\n      sstore\n      0x07\n      dup3\n      add\n      dup2\n      0x07\n      add\n      swap1\n      dup1\n      sload\n      tag_73\n      swap1\n      tag_28\n      jump\t// in\n    tag_73:\n      tag_74\n      swap3\n      swap2\n      swap1\n      tag_66\n      jump\t// in\n    tag_74:\n      pop\n      0x08\n      dup3\n      add\n      sload\n      dup2\n      0x08\n      add\n      sstore\n      0x09\n      dup3\n      add\n      sload\n      dup2\n      0x09\n      add\n      sstore\n      0x0a\n      dup3\n      add\n      sload\n      dup2\n      0x0a\n      add\n      sstore\n      swap1\n      pop\n      pop\n        /* \"patient.sol\":1440:2143  function store_patient_details(\r... */\n      pop\n      pop\n      pop\n      pop\n      pop\n      pop\n      pop\n      pop\n      pop\n      pop\n      jump\t// out\n        /* \"patient.sol\":3695:4038  function retreive_attendant_details(uint256 patient_id)\r... */\n    tag_19:\n        /* \"patient.sol\":3813:3826  string memory */\n      0x60\n        /* \"patient.sol\":3841:3854  string memory */\n      dup1\n        /* \"patient.sol\":3869:3876  uint256 */\n      0x00\n        /* \"patient.sol\":3904:3922  attendant memory a */\n      dup1\n        /* \"patient.sol\":3925:3938  attendantlist */\n      0x01\n        /* \"patient.sol\":3925:3950  attendantlist[patient_id] */\n      0x00\n        /* \"patient.sol\":3939:3949  patient_id */\n      dup7\n        /* \"patient.sol\":3925:3950  attendantlist[patient_id] */\n      dup2\n      mstore\n      0x20\n      add\n      swap1\n      dup2\n      mstore\n      0x20\n      add\n      0x00\n      keccak256\n        /* \"patient.sol\":3904:3950  attendant memory a = attendantlist[patient_id] */\n      mload(0x40)\n      dup1\n      0x80\n      add\n      0x40\n      mstore\n      swap1\n      dup2\n      0x00\n      dup3\n      add\n      sload\n      dup2\n      mstore\n      0x20\n      add\n      0x01\n      dup3\n      add\n      dup1\n      sload\n      tag_76\n      swap1\n      tag_28\n      jump\t// in\n    tag_76:\n      dup1\n      0x1f\n      add\n      0x20\n      dup1\n      swap2\n      div\n      mul\n      0x20\n      add\n      mload(0x40)\n      swap1\n      dup2\n      add\n      0x40\n      mstore\n      dup1\n      swap3\n      swap2\n      swap1\n      dup2\n      dup2\n      mstore\n      0x20\n      add\n      dup3\n      dup1\n      sload\n      tag_77\n      swap1\n      tag_28\n      jump\t// in\n    tag_77:\n      dup1\n      iszero\n      tag_78\n      jumpi\n      dup1\n      0x1f\n      lt\n      tag_79\n      jumpi\n      0x0100\n      dup1\n      dup4\n      sload\n      div\n      mul\n      dup4\n      mstore\n      swap2\n      0x20\n      add\n      swap2\n      jump(tag_78)\n    tag_79:\n      dup3\n      add\n      swap2\n      swap1\n      0x00\n      mstore\n      keccak256(0x00, 0x20)\n      swap1\n    tag_80:\n      dup2\n      sload\n      dup2\n      mstore\n      swap1\n      0x01\n      add\n      swap1\n      0x20\n      add\n      dup1\n      dup4\n      gt\n      tag_80\n      jumpi\n      dup3\n      swap1\n      sub\n      0x1f\n      and\n      dup3\n      add\n      swap2\n    tag_78:\n      pop\n      pop\n      pop\n      pop\n      pop\n      dup2\n      mstore\n      0x20\n      add\n      0x02\n      dup3\n      add\n      dup1\n      sload\n      tag_81\n      swap1\n      tag_28\n      jump\t// in\n    tag_81:\n      dup1\n      0x1f\n      add\n      0x20\n      dup1\n      swap2\n      div\n      mul\n      0x20\n      add\n      mload(0x40)\n      swap1\n      dup2\n      add\n      0x40\n      mstore\n      dup1\n      swap3\n      swap2\n      swap1\n      dup2\n      dup2\n      mstore\n      0x20\n      add\n      dup3\n      dup1\n      sload\n      tag_82\n      swap1\n      tag_28\n      jump\t// in\n    tag_82:\n      dup1\n      iszero\n      tag_83\n      jumpi\n      dup1\n      0x1f\n      lt\n      tag_84\n      jumpi\n      0x0100\n      dup1\n      dup4\n      sload\n      div\n      mul\n      dup4\n      mstore\n      swap2\n      0x20\n      add\n      swap2\n      jump(tag_83)\n    tag_84:\n      dup3\n      add\n      swap2\n      swap1\n      0x00\n      mstore\n      keccak256(0x00, 0x20)\n      swap1\n    tag_85:\n      dup2\n      sload\n      dup2\n      mstore\n      swap1\n      0x01\n      add\n      swap1\n      0x20\n      add\n      dup1\n      dup4\n      gt\n      tag_85\n      jumpi\n      dup3\n      swap1\n      sub\n      0x1f\n      and\n      dup3\n      add\n      swap2\n    tag_83:\n      pop\n      pop\n      pop\n      pop\n      pop\n      dup2\n      mstore\n      0x20\n      add\n      0x03\n      dup3\n      add\n      sload\n      dup2\n      mstore\n      pop\n      pop\n      swap1\n      pop\n        /* \"patient.sol\":3971:3972  a */\n      dup1\n        /* \"patient.sol\":3971:3987  a.attendant_name */\n      0x20\n      add\n      mload\n        /* \"patient.sol\":3989:3990  a */\n      dup2\n        /* \"patient.sol\":3989:4009  a.attendant_relation */\n      0x40\n      add\n      mload\n        /* \"patient.sol\":4011:4012  a */\n      dup3\n        /* \"patient.sol\":4011:4029  a.attendant_phn_no */\n      0x60\n      add\n      mload\n        /* \"patient.sol\":3963:4030  return (a.attendant_name, a.attendant_relation, a.attendant_phn_no) */\n      swap4\n      pop\n      swap4\n      pop\n      swap4\n      pop\n      pop\n        /* \"patient.sol\":3695:4038  function retreive_attendant_details(uint256 patient_id)\r... */\n      swap2\n      swap4\n      swap1\n      swap3\n      pop\n      jump\t// out\n        /* \"patient.sol\":2391:2828  function store_attendant_details(\r... */\n    tag_25:\n        /* \"patient.sol\":996:1001  owner */\n      0x11\n      0x00\n      swap1\n      sload\n      swap1\n      0x0100\n      exp\n      swap1\n      div\n      0xffffffffffffffffffffffffffffffffffffffff\n      and\n        /* \"patient.sol\":982:1001  msg.sender == owner */\n      0xffffffffffffffffffffffffffffffffffffffff\n      and\n        /* \"patient.sol\":982:992  msg.sender */\n      caller\n        /* \"patient.sol\":982:1001  msg.sender == owner */\n      0xffffffffffffffffffffffffffffffffffffffff\n      and\n      eq\n        /* \"patient.sol\":974:1027  require(msg.sender == owner, \"Access is not allowed\") */\n      tag_87\n      jumpi\n      mload(0x40)\n      0x08c379a000000000000000000000000000000000000000000000000000000000\n      dup2\n      mstore\n      0x04\n      add\n      tag_88\n      swap1\n      tag_56\n      jump\t// in\n    tag_88:\n      mload(0x40)\n      dup1\n      swap2\n      sub\n      swap1\n      revert\n    tag_87:\n        /* \"patient.sol\":2621:2631  patient_id */\n      dup4\n        /* \"patient.sol\":2606:2607  a */\n      0x0d\n        /* \"patient.sol\":2606:2618  a.patient_id */\n      0x00\n      add\n        /* \"patient.sol\":2606:2631  a.patient_id = patient_id */\n      dup2\n      swap1\n      sstore\n      pop\n        /* \"patient.sol\":2661:2676  _attendant_name */\n      dup3\n        /* \"patient.sol\":2642:2643  a */\n      0x0d\n        /* \"patient.sol\":2642:2658  a.attendant_name */\n      0x01\n      add\n        /* \"patient.sol\":2642:2676  a.attendant_name = _attendant_name */\n      swap1\n      dup1\n      mload\n      swap1\n      0x20\n      add\n      swap1\n      tag_90\n      swap3\n      swap2\n      swap1\n      tag_59\n      jump\t// in\n    tag_90:\n      pop\n        /* \"patient.sol\":2710:2729  _attendant_relation */\n      dup2\n        /* \"patient.sol\":2687:2688  a */\n      0x0d\n        /* \"patient.sol\":2687:2707  a.attendant_relation */\n      0x02\n      add\n        /* \"patient.sol\":2687:2729  a.attendant_relation = _attendant_relation */\n      swap1\n      dup1\n      mload\n      swap1\n      0x20\n      add\n      swap1\n      tag_91\n      swap3\n      swap2\n      swap1\n      tag_59\n      jump\t// in\n    tag_91:\n      pop\n        /* \"patient.sol\":2761:2778  _attendant_phn_no */\n      dup1\n        /* \"patient.sol\":2740:2741  a */\n      0x0d\n        /* \"patient.sol\":2740:2758  a.attendant_phn_no */\n      0x03\n      add\n        /* \"patient.sol\":2740:2778  a.attendant_phn_no = _attendant_phn_no */\n      dup2\n      swap1\n      sstore\n      pop\n        /* \"patient.sol\":2819:2820  a */\n      0x0d\n        /* \"patient.sol\":2791:2804  attendantlist */\n      0x01\n        /* \"patient.sol\":2791:2816  attendantlist[patient_id] */\n      0x00\n        /* \"patient.sol\":2805:2815  patient_id */\n      dup7\n        /* \"patient.sol\":2791:2816  attendantlist[patient_id] */\n      dup2\n      mstore\n      0x20\n      add\n      swap1\n      dup2\n      mstore\n      0x20\n      add\n      0x00\n      keccak256\n        /* \"patient.sol\":2791:2820  attendantlist[patient_id] = a */\n      0x00\n      dup3\n      add\n      sload\n      dup2\n      0x00\n      add\n      sstore\n      0x01\n      dup3\n      add\n      dup2\n      0x01\n      add\n      swap1\n      dup1\n      sload\n      tag_92\n      swap1\n      tag_28\n      jump\t// in\n    tag_92:\n      tag_93\n      swap3\n      swap2\n      swap1\n      tag_66\n      jump\t// in\n    tag_93:\n      pop\n      0x02\n      dup3\n      add\n      dup2\n      0x02\n      add\n      swap1\n      dup1\n      sload\n      tag_94\n      swap1\n      tag_28\n      jump\t// in\n    tag_94:\n      tag_95\n      swap3\n      swap2\n      swap1\n      tag_66\n      jump\t// in\n    tag_95:\n      pop\n      0x03\n      dup3\n      add\n      sload\n      dup2\n      0x03\n      add\n      sstore\n      swap1\n      pop\n      pop\n        /* \"patient.sol\":2391:2828  function store_attendant_details(\r... */\n      pop\n      pop\n      pop\n      pop\n      jump\t// out\n    tag_59:\n      dup3\n      dup1\n      sload\n      tag_96\n      swap1\n      tag_28\n      jump\t// in\n    tag_96:\n      swap1\n      0x00\n      mstore\n      keccak256(0x00, 0x20)\n      swap1\n      0x1f\n      add\n      0x20\n      swap1\n      div\n      dup2\n      add\n      swap3\n      dup3\n      tag_98\n      jumpi\n      0x00\n      dup6\n      sstore\n      jump(tag_97)\n    tag_98:\n      dup3\n      0x1f\n      lt\n      tag_99\n      jumpi\n      dup1\n      mload\n      not(0xff)\n      and\n      dup4\n      dup1\n      add\n      or\n      dup6\n      sstore\n      jump(tag_97)\n    tag_99:\n      dup3\n      dup1\n      add\n      0x01\n      add\n      dup6\n      sstore\n      dup3\n      iszero\n      tag_97\n      jumpi\n      swap2\n      dup3\n      add\n    tag_100:\n      dup3\n      dup2\n      gt\n      iszero\n      tag_101\n      jumpi\n      dup3\n      mload\n      dup3\n      sstore\n      swap2\n      0x20\n      add\n      swap2\n      swap1\n      0x01\n      add\n      swap1\n      jump(tag_100)\n    tag_101:\n    tag_97:\n      pop\n      swap1\n      pop\n      tag_102\n      swap2\n      swap1\n      tag_103\n      jump\t// in\n    tag_102:\n      pop\n      swap1\n      jump\t// out\n    tag_66:\n      dup3\n      dup1\n      sload\n      tag_104\n      swap1\n      tag_28\n      jump\t// in\n    tag_104:\n      swap1\n      0x00\n      mstore\n      keccak256(0x00, 0x20)\n      swap1\n      0x1f\n      add\n      0x20\n      swap1\n      div\n      dup2\n      add\n      swap3\n      dup3\n      tag_106\n      jumpi\n      0x00\n      dup6\n      sstore\n      jump(tag_105)\n    tag_106:\n      dup3\n      0x1f\n      lt\n      tag_107\n      jumpi\n      dup1\n      sload\n      dup6\n      sstore\n      jump(tag_105)\n    tag_107:\n      dup3\n      dup1\n      add\n      0x01\n      add\n      dup6\n      sstore\n      dup3\n      iszero\n      tag_105\n      jumpi\n      0x00\n      mstore\n      keccak256(0x00, 0x20)\n      swap2\n      0x1f\n      add\n      0x20\n      swap1\n      div\n      dup3\n      add\n    tag_108:\n      dup3\n      dup2\n      gt\n      iszero\n      tag_109\n      jumpi\n      dup3\n      sload\n      dup3\n      sstore\n      swap2\n      0x01\n      add\n      swap2\n      swap1\n      0x01\n      add\n      swap1\n      jump(tag_108)\n    tag_109:\n    tag_105:\n      pop\n      swap1\n      pop\n      tag_110\n      swap2\n      swap1\n      tag_103\n      jump\t// in\n    tag_110:\n      pop\n      swap1\n      jump\t// out\n    tag_103:\n    tag_111:\n      dup1\n      dup3\n      gt\n      iszero\n      tag_112\n      jumpi\n      0x00\n      dup2\n      0x00\n      swap1\n      sstore\n      pop\n      0x01\n      add\n      jump(tag_111)\n    tag_112:\n      pop\n      swap1\n      jump\t// out\n        /* \"#utility.yul\":7:419   */\n    tag_114:\n        /* \"#utility.yul\":85:90   */\n      0x00\n        /* \"#utility.yul\":110:176   */\n      tag_116\n        /* \"#utility.yul\":126:175   */\n      tag_117\n        /* \"#utility.yul\":168:174   */\n      dup5\n        /* \"#utility.yul\":126:175   */\n      tag_118\n      jump\t// in\n    tag_117:\n        /* \"#utility.yul\":110:176   */\n      tag_119\n      jump\t// in\n    tag_116:\n        /* \"#utility.yul\":101:176   */\n      swap1\n      pop\n        /* \"#utility.yul\":199:205   */\n      dup3\n        /* \"#utility.yul\":192:197   */\n      dup2\n        /* \"#utility.yul\":185:206   */\n      mstore\n        /* \"#utility.yul\":237:241   */\n      0x20\n        /* \"#utility.yul\":230:235   */\n      dup2\n        /* \"#utility.yul\":226:242   */\n      add\n        /* \"#utility.yul\":275:278   */\n      dup5\n        /* \"#utility.yul\":266:272   */\n      dup5\n        /* \"#utility.yul\":261:264   */\n      dup5\n        /* \"#utility.yul\":257:273   */\n      add\n        /* \"#utility.yul\":254:279   */\n      gt\n        /* \"#utility.yul\":251:363   */\n      iszero\n      tag_120\n      jumpi\n        /* \"#utility.yul\":282:361   */\n      tag_121\n      tag_122\n      jump\t// in\n    tag_121:\n        /* \"#utility.yul\":251:363   */\n    tag_120:\n        /* \"#utility.yul\":372:413   */\n      tag_123\n        /* \"#utility.yul\":406:412   */\n      dup5\n        /* \"#utility.yul\":401:404   */\n      dup3\n        /* \"#utility.yul\":396:399   */\n      dup6\n        /* \"#utility.yul\":372:413   */\n      tag_124\n      jump\t// in\n    tag_123:\n        /* \"#utility.yul\":91:419   */\n      pop\n        /* \"#utility.yul\":7:419   */\n      swap4\n      swap3\n      pop\n      pop\n      pop\n      jump\t// out\n        /* \"#utility.yul\":439:779   */\n    tag_125:\n        /* \"#utility.yul\":495:500   */\n      0x00\n        /* \"#utility.yul\":544:547   */\n      dup3\n        /* \"#utility.yul\":537:541   */\n      0x1f\n        /* \"#utility.yul\":529:535   */\n      dup4\n        /* \"#utility.yul\":525:542   */\n      add\n        /* \"#utility.yul\":521:548   */\n      slt\n        /* \"#utility.yul\":511:633   */\n      tag_127\n      jumpi\n        /* \"#utility.yul\":552:631   */\n      tag_128\n      tag_129\n      jump\t// in\n    tag_128:\n        /* \"#utility.yul\":511:633   */\n    tag_127:\n        /* \"#utility.yul\":669:675   */\n      dup2\n        /* \"#utility.yul\":656:676   */\n      calldataload\n        /* \"#utility.yul\":694:773   */\n      tag_130\n        /* \"#utility.yul\":769:772   */\n      dup5\n        /* \"#utility.yul\":761:767   */\n      dup3\n        /* \"#utility.yul\":754:758   */\n      0x20\n        /* \"#utility.yul\":746:752   */\n      dup7\n        /* \"#utility.yul\":742:759   */\n      add\n        /* \"#utility.yul\":694:773   */\n      tag_114\n      jump\t// in\n    tag_130:\n        /* \"#utility.yul\":685:773   */\n      swap2\n      pop\n        /* \"#utility.yul\":501:779   */\n      pop\n        /* \"#utility.yul\":439:779   */\n      swap3\n      swap2\n      pop\n      pop\n      jump\t// out\n        /* \"#utility.yul\":785:924   */\n    tag_131:\n        /* \"#utility.yul\":831:836   */\n      0x00\n        /* \"#utility.yul\":869:875   */\n      dup2\n        /* \"#utility.yul\":856:876   */\n      calldataload\n        /* \"#utility.yul\":847:876   */\n      swap1\n      pop\n        /* \"#utility.yul\":885:918   */\n      tag_133\n        /* \"#utility.yul\":912:917   */\n      dup2\n        /* \"#utility.yul\":885:918   */\n      tag_134\n      jump\t// in\n    tag_133:\n        /* \"#utility.yul\":785:924   */\n      swap3\n      swap2\n      pop\n      pop\n      jump\t// out\n        /* \"#utility.yul\":930:1259   */\n    tag_9:\n        /* \"#utility.yul\":989:995   */\n      0x00\n        /* \"#utility.yul\":1038:1040   */\n      0x20\n        /* \"#utility.yul\":1026:1035   */\n      dup3\n        /* \"#utility.yul\":1017:1024   */\n      dup5\n        /* \"#utility.yul\":1013:1036   */\n      sub\n        /* \"#utility.yul\":1009:1041   */\n      slt\n        /* \"#utility.yul\":1006:1125   */\n      iszero\n      tag_136\n      jumpi\n        /* \"#utility.yul\":1044:1123   */\n      tag_137\n      tag_138\n      jump\t// in\n    tag_137:\n        /* \"#utility.yul\":1006:1125   */\n    tag_136:\n        /* \"#utility.yul\":1164:1165   */\n      0x00\n        /* \"#utility.yul\":1189:1242   */\n      tag_139\n        /* \"#utility.yul\":1234:1241   */\n      dup5\n        /* \"#utility.yul\":1225:1231   */\n      dup3\n        /* \"#utility.yul\":1214:1223   */\n      dup6\n        /* \"#utility.yul\":1210:1232   */\n      add\n        /* \"#utility.yul\":1189:1242   */\n      tag_131\n      jump\t// in\n    tag_139:\n        /* \"#utility.yul\":1179:1242   */\n      swap2\n      pop\n        /* \"#utility.yul\":1135:1252   */\n      pop\n        /* \"#utility.yul\":930:1259   */\n      swap3\n      swap2\n      pop\n      pop\n      jump\t// out\n        /* \"#utility.yul\":1265:2390   */\n    tag_24:\n        /* \"#utility.yul\":1371:1377   */\n      0x00\n        /* \"#utility.yul\":1379:1385   */\n      dup1\n        /* \"#utility.yul\":1387:1393   */\n      0x00\n        /* \"#utility.yul\":1395:1401   */\n      dup1\n        /* \"#utility.yul\":1444:1447   */\n      0x80\n        /* \"#utility.yul\":1432:1441   */\n      dup6\n        /* \"#utility.yul\":1423:1430   */\n      dup8\n        /* \"#utility.yul\":1419:1442   */\n      sub\n        /* \"#utility.yul\":1415:1448   */\n      slt\n        /* \"#utility.yul\":1412:1532   */\n      iszero\n      tag_141\n      jumpi\n        /* \"#utility.yul\":1451:1530   */\n      tag_142\n      tag_138\n      jump\t// in\n    tag_142:\n        /* \"#utility.yul\":1412:1532   */\n    tag_141:\n        /* \"#utility.yul\":1571:1572   */\n      0x00\n        /* \"#utility.yul\":1596:1649   */\n      tag_143\n        /* \"#utility.yul\":1641:1648   */\n      dup8\n        /* \"#utility.yul\":1632:1638   */\n      dup3\n        /* \"#utility.yul\":1621:1630   */\n      dup9\n        /* \"#utility.yul\":1617:1639   */\n      add\n        /* \"#utility.yul\":1596:1649   */\n      tag_131\n      jump\t// in\n    tag_143:\n        /* \"#utility.yul\":1586:1649   */\n      swap5\n      pop\n        /* \"#utility.yul\":1542:1659   */\n      pop\n        /* \"#utility.yul\":1726:1728   */\n      0x20\n        /* \"#utility.yul\":1715:1724   */\n      dup6\n        /* \"#utility.yul\":1711:1729   */\n      add\n        /* \"#utility.yul\":1698:1730   */\n      calldataload\n        /* \"#utility.yul\":1757:1775   */\n      0xffffffffffffffff\n        /* \"#utility.yul\":1749:1755   */\n      dup2\n        /* \"#utility.yul\":1746:1776   */\n      gt\n        /* \"#utility.yul\":1743:1860   */\n      iszero\n      tag_144\n      jumpi\n        /* \"#utility.yul\":1779:1858   */\n      tag_145\n      tag_146\n      jump\t// in\n    tag_145:\n        /* \"#utility.yul\":1743:1860   */\n    tag_144:\n        /* \"#utility.yul\":1884:1947   */\n      tag_147\n        /* \"#utility.yul\":1939:1946   */\n      dup8\n        /* \"#utility.yul\":1930:1936   */\n      dup3\n        /* \"#utility.yul\":1919:1928   */\n      dup9\n        /* \"#utility.yul\":1915:1937   */\n      add\n        /* \"#utility.yul\":1884:1947   */\n      tag_125\n      jump\t// in\n    tag_147:\n        /* \"#utility.yul\":1874:1947   */\n      swap4\n      pop\n        /* \"#utility.yul\":1669:1957   */\n      pop\n        /* \"#utility.yul\":2024:2026   */\n      0x40\n        /* \"#utility.yul\":2013:2022   */\n      dup6\n        /* \"#utility.yul\":2009:2027   */\n      add\n        /* \"#utility.yul\":1996:2028   */\n      calldataload\n        /* \"#utility.yul\":2055:2073   */\n      0xffffffffffffffff\n        /* \"#utility.yul\":2047:2053   */\n      dup2\n        /* \"#utility.yul\":2044:2074   */\n      gt\n        /* \"#utility.yul\":2041:2158   */\n      iszero\n      tag_148\n      jumpi\n        /* \"#utility.yul\":2077:2156   */\n      tag_149\n      tag_146\n      jump\t// in\n    tag_149:\n        /* \"#utility.yul\":2041:2158   */\n    tag_148:\n        /* \"#utility.yul\":2182:2245   */\n      tag_150\n        /* \"#utility.yul\":2237:2244   */\n      dup8\n        /* \"#utility.yul\":2228:2234   */\n      dup3\n        /* \"#utility.yul\":2217:2226   */\n      dup9\n        /* \"#utility.yul\":2213:2235   */\n      add\n        /* \"#utility.yul\":2182:2245   */\n      tag_125\n      jump\t// in\n    tag_150:\n        /* \"#utility.yul\":2172:2245   */\n      swap3\n      pop\n        /* \"#utility.yul\":1967:2255   */\n      pop\n        /* \"#utility.yul\":2294:2296   */\n      0x60\n        /* \"#utility.yul\":2320:2373   */\n      tag_151\n        /* \"#utility.yul\":2365:2372   */\n      dup8\n        /* \"#utility.yul\":2356:2362   */\n      dup3\n        /* \"#utility.yul\":2345:2354   */\n      dup9\n        /* \"#utility.yul\":2341:2363   */\n      add\n        /* \"#utility.yul\":2320:2373   */\n      tag_131\n      jump\t// in\n    tag_151:\n        /* \"#utility.yul\":2310:2373   */\n      swap2\n      pop\n        /* \"#utility.yul\":2265:2383   */\n      pop\n        /* \"#utility.yul\":1265:2390   */\n      swap3\n      swap6\n      swap2\n      swap5\n      pop\n      swap3\n      pop\n      jump\t// out\n        /* \"#utility.yul\":2396:4937   */\n    tag_15:\n        /* \"#utility.yul\":2586:2592   */\n      0x00\n        /* \"#utility.yul\":2594:2600   */\n      dup1\n        /* \"#utility.yul\":2602:2608   */\n      0x00\n        /* \"#utility.yul\":2610:2616   */\n      dup1\n        /* \"#utility.yul\":2618:2624   */\n      0x00\n        /* \"#utility.yul\":2626:2632   */\n      dup1\n        /* \"#utility.yul\":2634:2640   */\n      0x00\n        /* \"#utility.yul\":2642:2648   */\n      dup1\n        /* \"#utility.yul\":2650:2656   */\n      0x00\n        /* \"#utility.yul\":2658:2664   */\n      dup1\n        /* \"#utility.yul\":2707:2710   */\n      0x0140\n        /* \"#utility.yul\":2695:2704   */\n      dup12\n        /* \"#utility.yul\":2686:2693   */\n      dup14\n        /* \"#utility.yul\":2682:2705   */\n      sub\n        /* \"#utility.yul\":2678:2711   */\n      slt\n        /* \"#utility.yul\":2675:2795   */\n      iszero\n      tag_153\n      jumpi\n        /* \"#utility.yul\":2714:2793   */\n      tag_154\n      tag_138\n      jump\t// in\n    tag_154:\n        /* \"#utility.yul\":2675:2795   */\n    tag_153:\n        /* \"#utility.yul\":2834:2835   */\n      0x00\n        /* \"#utility.yul\":2859:2912   */\n      tag_155\n        /* \"#utility.yul\":2904:2911   */\n      dup14\n        /* \"#utility.yul\":2895:2901   */\n      dup3\n        /* \"#utility.yul\":2884:2893   */\n      dup15\n        /* \"#utility.yul\":2880:2902   */\n      add\n        /* \"#utility.yul\":2859:2912   */\n      tag_131\n      jump\t// in\n    tag_155:\n        /* \"#utility.yul\":2849:2912   */\n      swap11\n      pop\n        /* \"#utility.yul\":2805:2922   */\n      pop\n        /* \"#utility.yul\":2989:2991   */\n      0x20\n        /* \"#utility.yul\":2978:2987   */\n      dup12\n        /* \"#utility.yul\":2974:2992   */\n      add\n        /* \"#utility.yul\":2961:2993   */\n      calldataload\n        /* \"#utility.yul\":3020:3038   */\n      0xffffffffffffffff\n        /* \"#utility.yul\":3012:3018   */\n      dup2\n        /* \"#utility.yul\":3009:3039   */\n      gt\n        /* \"#utility.yul\":3006:3123   */\n      iszero\n      tag_156\n      jumpi\n        /* \"#utility.yul\":3042:3121   */\n      tag_157\n      tag_146\n      jump\t// in\n    tag_157:\n        /* \"#utility.yul\":3006:3123   */\n    tag_156:\n        /* \"#utility.yul\":3147:3210   */\n      tag_158\n        /* \"#utility.yul\":3202:3209   */\n      dup14\n        /* \"#utility.yul\":3193:3199   */\n      dup3\n        /* \"#utility.yul\":3182:3191   */\n      dup15\n        /* \"#utility.yul\":3178:3200   */\n      add\n        /* \"#utility.yul\":3147:3210   */\n      tag_125\n      jump\t// in\n    tag_158:\n        /* \"#utility.yul\":3137:3210   */\n      swap10\n      pop\n        /* \"#utility.yul\":2932:3220   */\n      pop\n        /* \"#utility.yul\":3259:3261   */\n      0x40\n        /* \"#utility.yul\":3285:3338   */\n      tag_159\n        /* \"#utility.yul\":3330:3337   */\n      dup14\n        /* \"#utility.yul\":3321:3327   */\n      dup3\n        /* \"#utility.yul\":3310:3319   */\n      dup15\n        /* \"#utility.yul\":3306:3328   */\n      add\n        /* \"#utility.yul\":3285:3338   */\n      tag_131\n      jump\t// in\n    tag_159:\n        /* \"#utility.yul\":3275:3338   */\n      swap9\n      pop\n        /* \"#utility.yul\":3230:3348   */\n      pop\n        /* \"#utility.yul\":3415:3417   */\n      0x60\n        /* \"#utility.yul\":3404:3413   */\n      dup12\n        /* \"#utility.yul\":3400:3418   */\n      add\n        /* \"#utility.yul\":3387:3419   */\n      calldataload\n        /* \"#utility.yul\":3446:3464   */\n      0xffffffffffffffff\n        /* \"#utility.yul\":3438:3444   */\n      dup2\n        /* \"#utility.yul\":3435:3465   */\n      gt\n        /* \"#utility.yul\":3432:3549   */\n      iszero\n      tag_160\n      jumpi\n        /* \"#utility.yul\":3468:3547   */\n      tag_161\n      tag_146\n      jump\t// in\n    tag_161:\n        /* \"#utility.yul\":3432:3549   */\n    tag_160:\n        /* \"#utility.yul\":3573:3636   */\n      tag_162\n        /* \"#utility.yul\":3628:3635   */\n      dup14\n        /* \"#utility.yul\":3619:3625   */\n      dup3\n        /* \"#utility.yul\":3608:3617   */\n      dup15\n        /* \"#utility.yul\":3604:3626   */\n      add\n        /* \"#utility.yul\":3573:3636   */\n      tag_125\n      jump\t// in\n    tag_162:\n        /* \"#utility.yul\":3563:3636   */\n      swap8\n      pop\n        /* \"#utility.yul\":3358:3646   */\n      pop\n        /* \"#utility.yul\":3713:3716   */\n      0x80\n        /* \"#utility.yul\":3702:3711   */\n      dup12\n        /* \"#utility.yul\":3698:3717   */\n      add\n        /* \"#utility.yul\":3685:3718   */\n      calldataload\n        /* \"#utility.yul\":3745:3763   */\n      0xffffffffffffffff\n        /* \"#utility.yul\":3737:3743   */\n      dup2\n        /* \"#utility.yul\":3734:3764   */\n      gt\n        /* \"#utility.yul\":3731:3848   */\n      iszero\n      tag_163\n      jumpi\n        /* \"#utility.yul\":3767:3846   */\n      tag_164\n      tag_146\n      jump\t// in\n    tag_164:\n        /* \"#utility.yul\":3731:3848   */\n    tag_163:\n        /* \"#utility.yul\":3872:3935   */\n      tag_165\n        /* \"#utility.yul\":3927:3934   */\n      dup14\n        /* \"#utility.yul\":3918:3924   */\n      dup3\n        /* \"#utility.yul\":3907:3916   */\n      dup15\n        /* \"#utility.yul\":3903:3925   */\n      add\n        /* \"#utility.yul\":3872:3935   */\n      tag_125\n      jump\t// in\n    tag_165:\n        /* \"#utility.yul\":3862:3935   */\n      swap7\n      pop\n        /* \"#utility.yul\":3656:3945   */\n      pop\n        /* \"#utility.yul\":3984:3987   */\n      0xa0\n        /* \"#utility.yul\":4011:4064   */\n      tag_166\n        /* \"#utility.yul\":4056:4063   */\n      dup14\n        /* \"#utility.yul\":4047:4053   */\n      dup3\n        /* \"#utility.yul\":4036:4045   */\n      dup15\n        /* \"#utility.yul\":4032:4054   */\n      add\n        /* \"#utility.yul\":4011:4064   */\n      tag_131\n      jump\t// in\n    tag_166:\n        /* \"#utility.yul\":4001:4064   */\n      swap6\n      pop\n        /* \"#utility.yul\":3955:4074   */\n      pop\n        /* \"#utility.yul\":4141:4144   */\n      0xc0\n        /* \"#utility.yul\":4130:4139   */\n      dup12\n        /* \"#utility.yul\":4126:4145   */\n      add\n        /* \"#utility.yul\":4113:4146   */\n      calldataload\n        /* \"#utility.yul\":4173:4191   */\n      0xffffffffffffffff\n        /* \"#utility.yul\":4165:4171   */\n      dup2\n        /* \"#utility.yul\":4162:4192   */\n      gt\n        /* \"#utility.yul\":4159:4276   */\n      iszero\n      tag_167\n      jumpi\n        /* \"#utility.yul\":4195:4274   */\n      tag_168\n      tag_146\n      jump\t// in\n    tag_168:\n        /* \"#utility.yul\":4159:4276   */\n    tag_167:\n        /* \"#utility.yul\":4300:4363   */\n      tag_169\n        /* \"#utility.yul\":4355:4362   */\n      dup14\n        /* \"#utility.yul\":4346:4352   */\n      dup3\n        /* \"#utility.yul\":4335:4344   */\n      dup15\n        /* \"#utility.yul\":4331:4353   */\n      add\n        /* \"#utility.yul\":4300:4363   */\n      tag_125\n      jump\t// in\n    tag_169:\n        /* \"#utility.yul\":4290:4363   */\n      swap5\n      pop\n        /* \"#utility.yul\":4084:4373   */\n      pop\n        /* \"#utility.yul\":4412:4415   */\n      0xe0\n        /* \"#utility.yul\":4439:4492   */\n      tag_170\n        /* \"#utility.yul\":4484:4491   */\n      dup14\n        /* \"#utility.yul\":4475:4481   */\n      dup3\n        /* \"#utility.yul\":4464:4473   */\n      dup15\n        /* \"#utility.yul\":4460:4482   */\n      add\n        /* \"#utility.yul\":4439:4492   */\n      tag_131\n      jump\t// in\n    tag_170:\n        /* \"#utility.yul\":4429:4492   */\n      swap4\n      pop\n        /* \"#utility.yul\":4383:4502   */\n      pop\n        /* \"#utility.yul\":4569:4572   */\n      0x0100\n        /* \"#utility.yul\":4558:4567   */\n      dup12\n        /* \"#utility.yul\":4554:4573   */\n      add\n        /* \"#utility.yul\":4541:4574   */\n      calldataload\n        /* \"#utility.yul\":4601:4619   */\n      0xffffffffffffffff\n        /* \"#utility.yul\":4593:4599   */\n      dup2\n        /* \"#utility.yul\":4590:4620   */\n      gt\n        /* \"#utility.yul\":4587:4704   */\n      iszero\n      tag_171\n      jumpi\n        /* \"#utility.yul\":4623:4702   */\n      tag_172\n      tag_146\n      jump\t// in\n    tag_172:\n        /* \"#utility.yul\":4587:4704   */\n    tag_171:\n        /* \"#utility.yul\":4728:4791   */\n      tag_173\n        /* \"#utility.yul\":4783:4790   */\n      dup14\n        /* \"#utility.yul\":4774:4780   */\n      dup3\n        /* \"#utility.yul\":4763:4772   */\n      dup15\n        /* \"#utility.yul\":4759:4781   */\n      add\n        /* \"#utility.yul\":4728:4791   */\n      tag_125\n      jump\t// in\n    tag_173:\n        /* \"#utility.yul\":4718:4791   */\n      swap3\n      pop\n        /* \"#utility.yul\":4512:4801   */\n      pop\n        /* \"#utility.yul\":4840:4843   */\n      0x0120\n        /* \"#utility.yul\":4867:4920   */\n      tag_174\n        /* \"#utility.yul\":4912:4919   */\n      dup14\n        /* \"#utility.yul\":4903:4909   */\n      dup3\n        /* \"#utility.yul\":4892:4901   */\n      dup15\n        /* \"#utility.yul\":4888:4910   */\n      add\n        /* \"#utility.yul\":4867:4920   */\n      tag_131\n      jump\t// in\n    tag_174:\n        /* \"#utility.yul\":4857:4920   */\n      swap2\n      pop\n        /* \"#utility.yul\":4811:4930   */\n      pop\n        /* \"#utility.yul\":2396:4937   */\n      swap3\n      swap6\n      swap9\n      swap12\n      swap2\n      swap5\n      swap8\n      swap11\n      pop\n      swap3\n      swap6\n      swap9\n      pop\n      jump\t// out\n        /* \"#utility.yul\":4943:5307   */\n    tag_175:\n        /* \"#utility.yul\":5031:5034   */\n      0x00\n        /* \"#utility.yul\":5059:5098   */\n      tag_177\n        /* \"#utility.yul\":5092:5097   */\n      dup3\n        /* \"#utility.yul\":5059:5098   */\n      tag_178\n      jump\t// in\n    tag_177:\n        /* \"#utility.yul\":5114:5185   */\n      tag_179\n        /* \"#utility.yul\":5178:5184   */\n      dup2\n        /* \"#utility.yul\":5173:5176   */\n      dup6\n        /* \"#utility.yul\":5114:5185   */\n      tag_180\n      jump\t// in\n    tag_179:\n        /* \"#utility.yul\":5107:5185   */\n      swap4\n      pop\n        /* \"#utility.yul\":5194:5246   */\n      tag_181\n        /* \"#utility.yul\":5239:5245   */\n      dup2\n        /* \"#utility.yul\":5234:5237   */\n      dup6\n        /* \"#utility.yul\":5227:5231   */\n      0x20\n        /* \"#utility.yul\":5220:5225   */\n      dup7\n        /* \"#utility.yul\":5216:5232   */\n      add\n        /* \"#utility.yul\":5194:5246   */\n      tag_182\n      jump\t// in\n    tag_181:\n        /* \"#utility.yul\":5271:5300   */\n      tag_183\n        /* \"#utility.yul\":5293:5299   */\n      dup2\n        /* \"#utility.yul\":5271:5300   */\n      tag_184\n      jump\t// in\n    tag_183:\n        /* \"#utility.yul\":5266:5269   */\n      dup5\n        /* \"#utility.yul\":5262:5301   */\n      add\n        /* \"#utility.yul\":5255:5301   */\n      swap2\n      pop\n        /* \"#utility.yul\":5035:5307   */\n      pop\n        /* \"#utility.yul\":4943:5307   */\n      swap3\n      swap2\n      pop\n      pop\n      jump\t// out\n        /* \"#utility.yul\":5313:5679   */\n    tag_185:\n        /* \"#utility.yul\":5455:5458   */\n      0x00\n        /* \"#utility.yul\":5476:5543   */\n      tag_187\n        /* \"#utility.yul\":5540:5542   */\n      0x15\n        /* \"#utility.yul\":5535:5538   */\n      dup4\n        /* \"#utility.yul\":5476:5543   */\n      tag_180\n      jump\t// in\n    tag_187:\n        /* \"#utility.yul\":5469:5543   */\n      swap2\n      pop\n        /* \"#utility.yul\":5552:5645   */\n      tag_188\n        /* \"#utility.yul\":5641:5644   */\n      dup3\n        /* \"#utility.yul\":5552:5645   */\n      tag_189\n      jump\t// in\n    tag_188:\n        /* \"#utility.yul\":5670:5672   */\n      0x20\n        /* \"#utility.yul\":5665:5668   */\n      dup3\n        /* \"#utility.yul\":5661:5673   */\n      add\n        /* \"#utility.yul\":5654:5673   */\n      swap1\n      pop\n        /* \"#utility.yul\":5313:5679   */\n      swap2\n      swap1\n      pop\n      jump\t// out\n        /* \"#utility.yul\":5685:5803   */\n    tag_190:\n        /* \"#utility.yul\":5772:5796   */\n      tag_192\n        /* \"#utility.yul\":5790:5795   */\n      dup2\n        /* \"#utility.yul\":5772:5796   */\n      tag_193\n      jump\t// in\n    tag_192:\n        /* \"#utility.yul\":5767:5770   */\n      dup3\n        /* \"#utility.yul\":5760:5797   */\n      mstore\n        /* \"#utility.yul\":5685:5803   */\n      pop\n      pop\n      jump\t// out\n        /* \"#utility.yul\":5809:6433   */\n    tag_21:\n        /* \"#utility.yul\":5998:6002   */\n      0x00\n        /* \"#utility.yul\":6036:6038   */\n      0x60\n        /* \"#utility.yul\":6025:6034   */\n      dup3\n        /* \"#utility.yul\":6021:6039   */\n      add\n        /* \"#utility.yul\":6013:6039   */\n      swap1\n      pop\n        /* \"#utility.yul\":6085:6094   */\n      dup2\n        /* \"#utility.yul\":6079:6083   */\n      dup2\n        /* \"#utility.yul\":6075:6095   */\n      sub\n        /* \"#utility.yul\":6071:6072   */\n      0x00\n        /* \"#utility.yul\":6060:6069   */\n      dup4\n        /* \"#utility.yul\":6056:6073   */\n      add\n        /* \"#utility.yul\":6049:6096   */\n      mstore\n        /* \"#utility.yul\":6113:6191   */\n      tag_195\n        /* \"#utility.yul\":6186:6190   */\n      dup2\n        /* \"#utility.yul\":6177:6183   */\n      dup7\n        /* \"#utility.yul\":6113:6191   */\n      tag_175\n      jump\t// in\n    tag_195:\n        /* \"#utility.yul\":6105:6191   */\n      swap1\n      pop\n        /* \"#utility.yul\":6238:6247   */\n      dup2\n        /* \"#utility.yul\":6232:6236   */\n      dup2\n        /* \"#utility.yul\":6228:6248   */\n      sub\n        /* \"#utility.yul\":6223:6225   */\n      0x20\n        /* \"#utility.yul\":6212:6221   */\n      dup4\n        /* \"#utility.yul\":6208:6226   */\n      add\n        /* \"#utility.yul\":6201:6249   */\n      mstore\n        /* \"#utility.yul\":6266:6344   */\n      tag_196\n        /* \"#utility.yul\":6339:6343   */\n      dup2\n        /* \"#utility.yul\":6330:6336   */\n      dup6\n        /* \"#utility.yul\":6266:6344   */\n      tag_175\n      jump\t// in\n    tag_196:\n        /* \"#utility.yul\":6258:6344   */\n      swap1\n      pop\n        /* \"#utility.yul\":6354:6426   */\n      tag_197\n        /* \"#utility.yul\":6422:6424   */\n      0x40\n        /* \"#utility.yul\":6411:6420   */\n      dup4\n        /* \"#utility.yul\":6407:6425   */\n      add\n        /* \"#utility.yul\":6398:6404   */\n      dup5\n        /* \"#utility.yul\":6354:6426   */\n      tag_190\n      jump\t// in\n    tag_197:\n        /* \"#utility.yul\":5809:6433   */\n      swap5\n      swap4\n      pop\n      pop\n      pop\n      pop\n      jump\t// out\n        /* \"#utility.yul\":6439:8002   */\n    tag_12:\n        /* \"#utility.yul\":6856:6860   */\n      0x00\n        /* \"#utility.yul\":6894:6897   */\n      0x0120\n        /* \"#utility.yul\":6883:6892   */\n      dup3\n        /* \"#utility.yul\":6879:6898   */\n      add\n        /* \"#utility.yul\":6871:6898   */\n      swap1\n      pop\n        /* \"#utility.yul\":6944:6953   */\n      dup2\n        /* \"#utility.yul\":6938:6942   */\n      dup2\n        /* \"#utility.yul\":6934:6954   */\n      sub\n        /* \"#utility.yul\":6930:6931   */\n      0x00\n        /* \"#utility.yul\":6919:6928   */\n      dup4\n        /* \"#utility.yul\":6915:6932   */\n      add\n        /* \"#utility.yul\":6908:6955   */\n      mstore\n        /* \"#utility.yul\":6972:7050   */\n      tag_199\n        /* \"#utility.yul\":7045:7049   */\n      dup2\n        /* \"#utility.yul\":7036:7042   */\n      dup13\n        /* \"#utility.yul\":6972:7050   */\n      tag_175\n      jump\t// in\n    tag_199:\n        /* \"#utility.yul\":6964:7050   */\n      swap1\n      pop\n        /* \"#utility.yul\":7060:7132   */\n      tag_200\n        /* \"#utility.yul\":7128:7130   */\n      0x20\n        /* \"#utility.yul\":7117:7126   */\n      dup4\n        /* \"#utility.yul\":7113:7131   */\n      add\n        /* \"#utility.yul\":7104:7110   */\n      dup12\n        /* \"#utility.yul\":7060:7132   */\n      tag_190\n      jump\t// in\n    tag_200:\n        /* \"#utility.yul\":7179:7188   */\n      dup2\n        /* \"#utility.yul\":7173:7177   */\n      dup2\n        /* \"#utility.yul\":7169:7189   */\n      sub\n        /* \"#utility.yul\":7164:7166   */\n      0x40\n        /* \"#utility.yul\":7153:7162   */\n      dup4\n        /* \"#utility.yul\":7149:7167   */\n      add\n        /* \"#utility.yul\":7142:7190   */\n      mstore\n        /* \"#utility.yul\":7207:7285   */\n      tag_201\n        /* \"#utility.yul\":7280:7284   */\n      dup2\n        /* \"#utility.yul\":7271:7277   */\n      dup11\n        /* \"#utility.yul\":7207:7285   */\n      tag_175\n      jump\t// in\n    tag_201:\n        /* \"#utility.yul\":7199:7285   */\n      swap1\n      pop\n        /* \"#utility.yul\":7332:7341   */\n      dup2\n        /* \"#utility.yul\":7326:7330   */\n      dup2\n        /* \"#utility.yul\":7322:7342   */\n      sub\n        /* \"#utility.yul\":7317:7319   */\n      0x60\n        /* \"#utility.yul\":7306:7315   */\n      dup4\n        /* \"#utility.yul\":7302:7320   */\n      add\n        /* \"#utility.yul\":7295:7343   */\n      mstore\n        /* \"#utility.yul\":7360:7438   */\n      tag_202\n        /* \"#utility.yul\":7433:7437   */\n      dup2\n        /* \"#utility.yul\":7424:7430   */\n      dup10\n        /* \"#utility.yul\":7360:7438   */\n      tag_175\n      jump\t// in\n    tag_202:\n        /* \"#utility.yul\":7352:7438   */\n      swap1\n      pop\n        /* \"#utility.yul\":7448:7521   */\n      tag_203\n        /* \"#utility.yul\":7516:7519   */\n      0x80\n        /* \"#utility.yul\":7505:7514   */\n      dup4\n        /* \"#utility.yul\":7501:7520   */\n      add\n        /* \"#utility.yul\":7492:7498   */\n      dup9\n        /* \"#utility.yul\":7448:7521   */\n      tag_190\n      jump\t// in\n    tag_203:\n        /* \"#utility.yul\":7569:7578   */\n      dup2\n        /* \"#utility.yul\":7563:7567   */\n      dup2\n        /* \"#utility.yul\":7559:7579   */\n      sub\n        /* \"#utility.yul\":7553:7556   */\n      0xa0\n        /* \"#utility.yul\":7542:7551   */\n      dup4\n        /* \"#utility.yul\":7538:7557   */\n      add\n        /* \"#utility.yul\":7531:7580   */\n      mstore\n        /* \"#utility.yul\":7597:7675   */\n      tag_204\n        /* \"#utility.yul\":7670:7674   */\n      dup2\n        /* \"#utility.yul\":7661:7667   */\n      dup8\n        /* \"#utility.yul\":7597:7675   */\n      tag_175\n      jump\t// in\n    tag_204:\n        /* \"#utility.yul\":7589:7675   */\n      swap1\n      pop\n        /* \"#utility.yul\":7685:7758   */\n      tag_205\n        /* \"#utility.yul\":7753:7756   */\n      0xc0\n        /* \"#utility.yul\":7742:7751   */\n      dup4\n        /* \"#utility.yul\":7738:7757   */\n      add\n        /* \"#utility.yul\":7729:7735   */\n      dup7\n        /* \"#utility.yul\":7685:7758   */\n      tag_190\n      jump\t// in\n    tag_205:\n        /* \"#utility.yul\":7806:7815   */\n      dup2\n        /* \"#utility.yul\":7800:7804   */\n      dup2\n        /* \"#utility.yul\":7796:7816   */\n      sub\n        /* \"#utility.yul\":7790:7793   */\n      0xe0\n        /* \"#utility.yul\":7779:7788   */\n      dup4\n        /* \"#utility.yul\":7775:7794   */\n      add\n        /* \"#utility.yul\":7768:7817   */\n      mstore\n        /* \"#utility.yul\":7834:7912   */\n      tag_206\n        /* \"#utility.yul\":7907:7911   */\n      dup2\n        /* \"#utility.yul\":7898:7904   */\n      dup6\n        /* \"#utility.yul\":7834:7912   */\n      tag_175\n      jump\t// in\n    tag_206:\n        /* \"#utility.yul\":7826:7912   */\n      swap1\n      pop\n        /* \"#utility.yul\":7922:7995   */\n      tag_207\n        /* \"#utility.yul\":7990:7993   */\n      0x0100\n        /* \"#utility.yul\":7979:7988   */\n      dup4\n        /* \"#utility.yul\":7975:7994   */\n      add\n        /* \"#utility.yul\":7966:7972   */\n      dup5\n        /* \"#utility.yul\":7922:7995   */\n      tag_190\n      jump\t// in\n    tag_207:\n        /* \"#utility.yul\":6439:8002   */\n      swap11\n      swap10\n      pop\n      pop\n      pop\n      pop\n      pop\n      pop\n      pop\n      pop\n      pop\n      pop\n      jump\t// out\n        /* \"#utility.yul\":8008:8427   */\n    tag_56:\n        /* \"#utility.yul\":8174:8178   */\n      0x00\n        /* \"#utility.yul\":8212:8214   */\n      0x20\n        /* \"#utility.yul\":8201:8210   */\n      dup3\n        /* \"#utility.yul\":8197:8215   */\n      add\n        /* \"#utility.yul\":8189:8215   */\n      swap1\n      pop\n        /* \"#utility.yul\":8261:8270   */\n      dup2\n        /* \"#utility.yul\":8255:8259   */\n      dup2\n        /* \"#utility.yul\":8251:8271   */\n      sub\n        /* \"#utility.yul\":8247:8248   */\n      0x00\n        /* \"#utility.yul\":8236:8245   */\n      dup4\n        /* \"#utility.yul\":8232:8249   */\n      add\n        /* \"#utility.yul\":8225:8272   */\n      mstore\n        /* \"#utility.yul\":8289:8420   */\n      tag_209\n        /* \"#utility.yul\":8415:8419   */\n      dup2\n        /* \"#utility.yul\":8289:8420   */\n      tag_185\n      jump\t// in\n    tag_209:\n        /* \"#utility.yul\":8281:8420   */\n      swap1\n      pop\n        /* \"#utility.yul\":8008:8427   */\n      swap2\n      swap1\n      pop\n      jump\t// out\n        /* \"#utility.yul\":8433:8562   */\n    tag_119:\n        /* \"#utility.yul\":8467:8473   */\n      0x00\n        /* \"#utility.yul\":8494:8514   */\n      tag_211\n      tag_212\n      jump\t// in\n    tag_211:\n        /* \"#utility.yul\":8484:8514   */\n      swap1\n      pop\n        /* \"#utility.yul\":8523:8556   */\n      tag_213\n        /* \"#utility.yul\":8551:8555   */\n      dup3\n        /* \"#utility.yul\":8543:8549   */\n      dup3\n        /* \"#utility.yul\":8523:8556   */\n      tag_214\n      jump\t// in\n    tag_213:\n        /* \"#utility.yul\":8433:8562   */\n      swap2\n      swap1\n      pop\n      jump\t// out\n        /* \"#utility.yul\":8568:8643   */\n    tag_212:\n        /* \"#utility.yul\":8601:8607   */\n      0x00\n        /* \"#utility.yul\":8634:8636   */\n      0x40\n        /* \"#utility.yul\":8628:8637   */\n      mload\n        /* \"#utility.yul\":8618:8637   */\n      swap1\n      pop\n        /* \"#utility.yul\":8568:8643   */\n      swap1\n      jump\t// out\n        /* \"#utility.yul\":8649:8957   */\n    tag_118:\n        /* \"#utility.yul\":8711:8715   */\n      0x00\n        /* \"#utility.yul\":8801:8819   */\n      0xffffffffffffffff\n        /* \"#utility.yul\":8793:8799   */\n      dup3\n        /* \"#utility.yul\":8790:8820   */\n      gt\n        /* \"#utility.yul\":8787:8843   */\n      iszero\n      tag_217\n      jumpi\n        /* \"#utility.yul\":8823:8841   */\n      tag_218\n      tag_219\n      jump\t// in\n    tag_218:\n        /* \"#utility.yul\":8787:8843   */\n    tag_217:\n        /* \"#utility.yul\":8861:8890   */\n      tag_220\n        /* \"#utility.yul\":8883:8889   */\n      dup3\n        /* \"#utility.yul\":8861:8890   */\n      tag_184\n      jump\t// in\n    tag_220:\n        /* \"#utility.yul\":8853:8890   */\n      swap1\n      pop\n        /* \"#utility.yul\":8945:8949   */\n      0x20\n        /* \"#utility.yul\":8939:8943   */\n      dup2\n        /* \"#utility.yul\":8935:8950   */\n      add\n        /* \"#utility.yul\":8927:8950   */\n      swap1\n      pop\n        /* \"#utility.yul\":8649:8957   */\n      swap2\n      swap1\n      pop\n      jump\t// out\n        /* \"#utility.yul\":8963:9062   */\n    tag_178:\n        /* \"#utility.yul\":9015:9021   */\n      0x00\n        /* \"#utility.yul\":9049:9054   */\n      dup2\n        /* \"#utility.yul\":9043:9055   */\n      mload\n        /* \"#utility.yul\":9033:9055   */\n      swap1\n      pop\n        /* \"#utility.yul\":8963:9062   */\n      swap2\n      swap1\n      pop\n      jump\t// out\n        /* \"#utility.yul\":9068:9237   */\n    tag_180:\n        /* \"#utility.yul\":9152:9163   */\n      0x00\n        /* \"#utility.yul\":9186:9192   */\n      dup3\n        /* \"#utility.yul\":9181:9184   */\n      dup3\n        /* \"#utility.yul\":9174:9193   */\n      mstore\n        /* \"#utility.yul\":9226:9230   */\n      0x20\n        /* \"#utility.yul\":9221:9224   */\n      dup3\n        /* \"#utility.yul\":9217:9231   */\n      add\n        /* \"#utility.yul\":9202:9231   */\n      swap1\n      pop\n        /* \"#utility.yul\":9068:9237   */\n      swap3\n      swap2\n      pop\n      pop\n      jump\t// out\n        /* \"#utility.yul\":9243:9320   */\n    tag_193:\n        /* \"#utility.yul\":9280:9287   */\n      0x00\n        /* \"#utility.yul\":9309:9314   */\n      dup2\n        /* \"#utility.yul\":9298:9314   */\n      swap1\n      pop\n        /* \"#utility.yul\":9243:9320   */\n      swap2\n      swap1\n      pop\n      jump\t// out\n        /* \"#utility.yul\":9326:9480   */\n    tag_124:\n        /* \"#utility.yul\":9410:9416   */\n      dup3\n        /* \"#utility.yul\":9405:9408   */\n      dup2\n        /* \"#utility.yul\":9400:9403   */\n      dup4\n        /* \"#utility.yul\":9387:9417   */\n      calldatacopy\n        /* \"#utility.yul\":9472:9473   */\n      0x00\n        /* \"#utility.yul\":9463:9469   */\n      dup4\n        /* \"#utility.yul\":9458:9461   */\n      dup4\n        /* \"#utility.yul\":9454:9470   */\n      add\n        /* \"#utility.yul\":9447:9474   */\n      mstore\n        /* \"#utility.yul\":9326:9480   */\n      pop\n      pop\n      pop\n      jump\t// out\n        /* \"#utility.yul\":9486:9793   */\n    tag_182:\n        /* \"#utility.yul\":9554:9555   */\n      0x00\n        /* \"#utility.yul\":9564:9677   */\n    tag_226:\n        /* \"#utility.yul\":9578:9584   */\n      dup4\n        /* \"#utility.yul\":9575:9576   */\n      dup2\n        /* \"#utility.yul\":9572:9585   */\n      lt\n        /* \"#utility.yul\":9564:9677   */\n      iszero\n      tag_228\n      jumpi\n        /* \"#utility.yul\":9663:9664   */\n      dup1\n        /* \"#utility.yul\":9658:9661   */\n      dup3\n        /* \"#utility.yul\":9654:9665   */\n      add\n        /* \"#utility.yul\":9648:9666   */\n      mload\n        /* \"#utility.yul\":9644:9645   */\n      dup2\n        /* \"#utility.yul\":9639:9642   */\n      dup5\n        /* \"#utility.yul\":9635:9646   */\n      add\n        /* \"#utility.yul\":9628:9667   */\n      mstore\n        /* \"#utility.yul\":9600:9602   */\n      0x20\n        /* \"#utility.yul\":9597:9598   */\n      dup2\n        /* \"#utility.yul\":9593:9603   */\n      add\n        /* \"#utility.yul\":9588:9603   */\n      swap1\n      pop\n        /* \"#utility.yul\":9564:9677   */\n      jump(tag_226)\n    tag_228:\n        /* \"#utility.yul\":9695:9701   */\n      dup4\n        /* \"#utility.yul\":9692:9693   */\n      dup2\n        /* \"#utility.yul\":9689:9702   */\n      gt\n        /* \"#utility.yul\":9686:9787   */\n      iszero\n      tag_229\n      jumpi\n        /* \"#utility.yul\":9775:9776   */\n      0x00\n        /* \"#utility.yul\":9766:9772   */\n      dup5\n        /* \"#utility.yul\":9761:9764   */\n      dup5\n        /* \"#utility.yul\":9757:9773   */\n      add\n        /* \"#utility.yul\":9750:9777   */\n      mstore\n        /* \"#utility.yul\":9686:9787   */\n    tag_229:\n        /* \"#utility.yul\":9535:9793   */\n      pop\n        /* \"#utility.yul\":9486:9793   */\n      pop\n      pop\n      pop\n      jump\t// out\n        /* \"#utility.yul\":9799:10119   */\n    tag_28:\n        /* \"#utility.yul\":9843:9849   */\n      0x00\n        /* \"#utility.yul\":9880:9881   */\n      0x02\n        /* \"#utility.yul\":9874:9878   */\n      dup3\n        /* \"#utility.yul\":9870:9882   */\n      div\n        /* \"#utility.yul\":9860:9882   */\n      swap1\n      pop\n        /* \"#utility.yul\":9927:9928   */\n      0x01\n        /* \"#utility.yul\":9921:9925   */\n      dup3\n        /* \"#utility.yul\":9917:9929   */\n      and\n        /* \"#utility.yul\":9948:9966   */\n      dup1\n        /* \"#utility.yul\":9938:10019   */\n      tag_231\n      jumpi\n        /* \"#utility.yul\":10004:10008   */\n      0x7f\n        /* \"#utility.yul\":9996:10002   */\n      dup3\n        /* \"#utility.yul\":9992:10009   */\n      and\n        /* \"#utility.yul\":9982:10009   */\n      swap2\n      pop\n        /* \"#utility.yul\":9938:10019   */\n    tag_231:\n        /* \"#utility.yul\":10066:10068   */\n      0x20\n        /* \"#utility.yul\":10058:10064   */\n      dup3\n        /* \"#utility.yul\":10055:10069   */\n      lt\n        /* \"#utility.yul\":10035:10053   */\n      dup2\n        /* \"#utility.yul\":10032:10070   */\n      eq\n        /* \"#utility.yul\":10029:10113   */\n      iszero\n      tag_232\n      jumpi\n        /* \"#utility.yul\":10085:10103   */\n      tag_233\n      tag_234\n      jump\t// in\n    tag_233:\n        /* \"#utility.yul\":10029:10113   */\n    tag_232:\n        /* \"#utility.yul\":9850:10119   */\n      pop\n        /* \"#utility.yul\":9799:10119   */\n      swap2\n      swap1\n      pop\n      jump\t// out\n        /* \"#utility.yul\":10125:10406   */\n    tag_214:\n        /* \"#utility.yul\":10208:10235   */\n      tag_236\n        /* \"#utility.yul\":10230:10234   */\n      dup3\n        /* \"#utility.yul\":10208:10235   */\n      tag_184\n      jump\t// in\n    tag_236:\n        /* \"#utility.yul\":10200:10206   */\n      dup2\n        /* \"#utility.yul\":10196:10236   */\n      add\n        /* \"#utility.yul\":10338:10344   */\n      dup2\n        /* \"#utility.yul\":10326:10336   */\n      dup2\n        /* \"#utility.yul\":10323:10345   */\n      lt\n        /* \"#utility.yul\":10302:10320   */\n      0xffffffffffffffff\n        /* \"#utility.yul\":10290:10300   */\n      dup3\n        /* \"#utility.yul\":10287:10321   */\n      gt\n        /* \"#utility.yul\":10284:10346   */\n      or\n        /* \"#utility.yul\":10281:10369   */\n      iszero\n      tag_237\n      jumpi\n        /* \"#utility.yul\":10349:10367   */\n      tag_238\n      tag_219\n      jump\t// in\n    tag_238:\n        /* \"#utility.yul\":10281:10369   */\n    tag_237:\n        /* \"#utility.yul\":10389:10399   */\n      dup1\n        /* \"#utility.yul\":10385:10387   */\n      0x40\n        /* \"#utility.yul\":10378:10400   */\n      mstore\n        /* \"#utility.yul\":10168:10406   */\n      pop\n        /* \"#utility.yul\":10125:10406   */\n      pop\n      pop\n      jump\t// out\n        /* \"#utility.yul\":10412:10592   */\n    tag_234:\n        /* \"#utility.yul\":10460:10537   */\n      0x4e487b7100000000000000000000000000000000000000000000000000000000\n        /* \"#utility.yul\":10457:10458   */\n      0x00\n        /* \"#utility.yul\":10450:10538   */\n      mstore\n        /* \"#utility.yul\":10557:10561   */\n      0x22\n        /* \"#utility.yul\":10554:10555   */\n      0x04\n        /* \"#utility.yul\":10547:10562   */\n      mstore\n        /* \"#utility.yul\":10581:10585   */\n      0x24\n        /* \"#utility.yul\":10578:10579   */\n      0x00\n        /* \"#utility.yul\":10571:10586   */\n      revert\n        /* \"#utility.yul\":10598:10778   */\n    tag_219:\n        /* \"#utility.yul\":10646:10723   */\n      0x4e487b7100000000000000000000000000000000000000000000000000000000\n        /* \"#utility.yul\":10643:10644   */\n      0x00\n        /* \"#utility.yul\":10636:10724   */\n      mstore\n        /* \"#utility.yul\":10743:10747   */\n      0x41\n        /* \"#utility.yul\":10740:10741   */\n      0x04\n        /* \"#utility.yul\":10733:10748   */\n      mstore\n        /* \"#utility.yul\":10767:10771   */\n      0x24\n        /* \"#utility.yul\":10764:10765   */\n      0x00\n        /* \"#utility.yul\":10757:10772   */\n      revert\n        /* \"#utility.yul\":10784:10901   */\n    tag_129:\n        /* \"#utility.yul\":10893:10894   */\n      0x00\n        /* \"#utility.yul\":10890:10891   */\n      dup1\n        /* \"#utility.yul\":10883:10895   */\n      revert\n        /* \"#utility.yul\":10907:11024   */\n    tag_122:\n        /* \"#utility.yul\":11016:11017   */\n      0x00\n        /* \"#utility.yul\":11013:11014   */\n      dup1\n        /* \"#utility.yul\":11006:11018   */\n      revert\n        /* \"#utility.yul\":11030:11147   */\n    tag_146:\n        /* \"#utility.yul\":11139:11140   */\n      0x00\n        /* \"#utility.yul\":11136:11137   */\n      dup1\n        /* \"#utility.yul\":11129:11141   */\n      revert\n        /* \"#utility.yul\":11153:11270   */\n    tag_138:\n        /* \"#utility.yul\":11262:11263   */\n      0x00\n        /* \"#utility.yul\":11259:11260   */\n      dup1\n        /* \"#utility.yul\":11252:11264   */\n      revert\n        /* \"#utility.yul\":11276:11378   */\n    tag_184:\n        /* \"#utility.yul\":11317:11323   */\n      0x00\n        /* \"#utility.yul\":11368:11370   */\n      0x1f\n        /* \"#utility.yul\":11364:11371   */\n      not\n        /* \"#utility.yul\":11359:11361   */\n      0x1f\n        /* \"#utility.yul\":11352:11357   */\n      dup4\n        /* \"#utility.yul\":11348:11362   */\n      add\n        /* \"#utility.yul\":11344:11372   */\n      and\n        /* \"#utility.yul\":11334:11372   */\n      swap1\n      pop\n        /* \"#utility.yul\":11276:11378   */\n      swap2\n      swap1\n      pop\n      jump\t// out\n        /* \"#utility.yul\":11384:11555   */\n    tag_189:\n        /* \"#utility.yul\":11524:11547   */\n      0x416363657373206973206e6f7420616c6c6f7765640000000000000000000000\n        /* \"#utility.yul\":11520:11521   */\n      0x00\n        /* \"#utility.yul\":11512:11518   */\n      dup3\n        /* \"#utility.yul\":11508:11522   */\n      add\n        /* \"#utility.yul\":11501:11548   */\n      mstore\n        /* \"#utility.yul\":11384:11555   */\n      pop\n      jump\t// out\n        /* \"#utility.yul\":11561:11683   */\n    tag_134:\n        /* \"#utility.yul\":11634:11658   */\n      tag_248\n        /* \"#utility.yul\":11652:11657   */\n      dup2\n        /* \"#utility.yul\":11634:11658   */\n      tag_193\n      jump\t// in\n    tag_248:\n        /* \"#utility.yul\":11627:11632   */\n      dup2\n        /* \"#utility.yul\":11624:11659   */\n      eq\n        /* \"#utility.yul\":11614:11677   */\n      tag_249\n      jumpi\n        /* \"#utility.yul\":11673:11674   */\n      0x00\n        /* \"#utility.yul\":11670:11671   */\n      dup1\n        /* \"#utility.yul\":11663:11675   */\n      revert\n        /* \"#utility.yul\":11614:11677   */\n    tag_249:\n        /* \"#utility.yul\":11561:11683   */\n      pop\n      jump\t// out\n\n    auxdata: 0xa264697066735822122013ce6125f68c9fc3dbd737a8670444601c175bf250ddb6ef8a33ebbee96b162464736f6c63430008070033\n}\n",
				"bytecode": {
					"linkReferences": {},
					"object": "608060405234801561001057600080fd5b5073e6005cc724c2d44f0af23d663017a7e375dd7f35601160006101000a81548173ffffffffffffffffffffffffffffffffffffffff021916908373ffffffffffffffffffffffffffffffffffffffff16021790555061110c806100756000396000f3fe608060405234801561001057600080fd5b506004361061004c5760003560e01c806365d4352a14610051578063c909f8f714610089578063d734f9b7146100a5578063f5b31bfe146100d7575b600080fd5b61006b60048036038101906100669190610b3b565b6100f3565b60405161008099989796959493929190610e22565b60405180910390f35b6100a3600480360381019061009e9190610c07565b610489565b005b6100bf60048036038101906100ba9190610b3b565b6106c1565b6040516100ce93929190610ddd565b60405180910390f35b6100f160048036038101906100ec9190610b68565b61083c565b005b6060600060608060006060600060606000806000808c81526020019081526020016000206040518061016001604052908160008201805461013390610fb0565b80601f016020809104026020016040519081016040528092919081815260200182805461015f90610fb0565b80156101ac5780601f10610181576101008083540402835291602001916101ac565b820191906000526020600020905b81548152906001019060200180831161018f57829003601f168201915b50505050508152602001600182015481526020016002820180546101cf90610fb0565b80601f01602080910402602001604051908101604052809291908181526020018280546101fb90610fb0565b80156102485780601f1061021d57610100808354040283529160200191610248565b820191906000526020600020905b81548152906001019060200180831161022b57829003601f168201915b5050505050815260200160038201805461026190610fb0565b80601f016020809104026020016040519081016040528092919081815260200182805461028d90610fb0565b80156102da5780601f106102af576101008083540402835291602001916102da565b820191906000526020600020905b8154815290600101906020018083116102bd57829003601f168201915b50505050508152602001600482015481526020016005820180546102fd90610fb0565b80601f016020809104026020016040519081016040528092919081815260200182805461032990610fb0565b80156103765780601f1061034b57610100808354040283529160200191610376565b820191906000526020600020905b81548152906001019060200180831161035957829003601f168201915b505050505081526020016006820154815260200160078201805461039990610fb0565b80601f01602080910402602001604051908101604052809291908181526020018280546103c590610fb0565b80156104125780601f106103e757610100808354040283529160200191610412565b820191906000526020600020905b8154815290600101906020018083116103f557829003601f168201915b505050505081526020016008820154815260200160098201548152602001600a820154815250509050806000015181602001518260400151836060015184608001518560a001518660c001518760e00151886101000151995099509950995099509950995099509950509193959799909294969850565b601160009054906101000a900473ffffffffffffffffffffffffffffffffffffffff1673ffffffffffffffffffffffffffffffffffffffff163373ffffffffffffffffffffffffffffffffffffffff1614610519576040517f08c379a000000000000000000000000000000000000000000000000000000000815260040161051090610ed2565b60405180910390fd5b8860026000019080519060200190610532929190610986565b508760026001018190555086600280019080519060200190610555929190610986565b50856002600301908051906020019061056f929190610986565b50846002600401819055508360026005019080519060200190610593929190610986565b508260026006018190555081600260070190805190602001906105b7929190610986565b508060026008018190555060026000808c815260200190815260200160002060008201816000019080546105ea90610fb0565b6105f5929190610a0c565b5060018201548160010155600282018160020190805461061490610fb0565b61061f929190610a0c565b50600382018160030190805461063490610fb0565b61063f929190610a0c565b5060048201548160040155600582018160050190805461065e90610fb0565b610669929190610a0c565b5060068201548160060155600782018160070190805461068890610fb0565b610693929190610a0c565b506008820154816008015560098201548160090155600a82015481600a015590505050505050505050505050565b60608060008060016000868152602001908152602001600020604051806080016040529081600082015481526020016001820180546106ff90610fb0565b80601f016020809104026020016040519081016040528092919081815260200182805461072b90610fb0565b80156107785780601f1061074d57610100808354040283529160200191610778565b820191906000526020600020905b81548152906001019060200180831161075b57829003601f168201915b5050505050815260200160028201805461079190610fb0565b80601f01602080910402602001604051908101604052809291908181526020018280546107bd90610fb0565b801561080a5780601f106107df5761010080835404028352916020019161080a565b820191906000526020600020905b8154815290600101906020018083116107ed57829003601f168201915b505050505081526020016003820154815250509050806020015181604001518260600151935093509350509193909250565b601160009054906101000a900473ffffffffffffffffffffffffffffffffffffffff1673ffffffffffffffffffffffffffffffffffffffff163373ffffffffffffffffffffffffffffffffffffffff16146108cc576040517f08c379a00000000000000000000000000000000000000000000000000000000081526004016108c390610ed2565b60405180910390fd5b83600d6000018190555082600d60010190805190602001906108ef929190610986565b5081600d6002019080519060200190610909929190610986565b5080600d60030181905550600d6001600086815260200190815260200160002060008201548160000155600182018160010190805461094790610fb0565b610952929190610a0c565b50600282018160020190805461096790610fb0565b610972929190610a0c565b506003820154816003015590505050505050565b82805461099290610fb0565b90600052602060002090601f0160209004810192826109b457600085556109fb565b82601f106109cd57805160ff19168380011785556109fb565b828001600101855582156109fb579182015b828111156109fa5782518255916020019190600101906109df565b5b509050610a089190610a99565b5090565b828054610a1890610fb0565b90600052602060002090601f016020900481019282610a3a5760008555610a88565b82601f10610a4b5780548555610a88565b82800160010185558215610a8857600052602060002091601f016020900482015b82811115610a87578254825591600101919060010190610a6c565b5b509050610a959190610a99565b5090565b5b80821115610ab2576000816000905550600101610a9a565b5090565b6000610ac9610ac484610f17565b610ef2565b905082815260208101848484011115610ae557610ae4611076565b5b610af0848285610f6e565b509392505050565b600082601f830112610b0d57610b0c611071565b5b8135610b1d848260208601610ab6565b91505092915050565b600081359050610b35816110bf565b92915050565b600060208284031215610b5157610b50611080565b5b6000610b5f84828501610b26565b91505092915050565b60008060008060808587031215610b8257610b81611080565b5b6000610b9087828801610b26565b945050602085013567ffffffffffffffff811115610bb157610bb061107b565b5b610bbd87828801610af8565b935050604085013567ffffffffffffffff811115610bde57610bdd61107b565b5b610bea87828801610af8565b9250506060610bfb87828801610b26565b91505092959194509250565b6000806000806000806000806000806101408b8d031215610c2b57610c2a611080565b5b6000610c398d828e01610b26565b9a505060208b013567ffffffffffffffff811115610c5a57610c5961107b565b5b610c668d828e01610af8565b9950506040610c778d828e01610b26565b98505060608b013567ffffffffffffffff811115610c9857610c9761107b565b5b610ca48d828e01610af8565b97505060808b013567ffffffffffffffff811115610cc557610cc461107b565b5b610cd18d828e01610af8565b96505060a0610ce28d828e01610b26565b95505060c08b013567ffffffffffffffff811115610d0357610d0261107b565b5b610d0f8d828e01610af8565b94505060e0610d208d828e01610b26565b9350506101008b013567ffffffffffffffff811115610d4257610d4161107b565b5b610d4e8d828e01610af8565b925050610120610d608d828e01610b26565b9150509295989b9194979a5092959850565b6000610d7d82610f48565b610d878185610f53565b9350610d97818560208601610f7d565b610da081611085565b840191505092915050565b6000610db8601583610f53565b9150610dc382611096565b602082019050919050565b610dd781610f64565b82525050565b60006060820190508181036000830152610df78186610d72565b90508181036020830152610e0b8185610d72565b9050610e1a6040830184610dce565b949350505050565b6000610120820190508181036000830152610e3d818c610d72565b9050610e4c602083018b610dce565b8181036040830152610e5e818a610d72565b90508181036060830152610e728189610d72565b9050610e816080830188610dce565b81810360a0830152610e938187610d72565b9050610ea260c0830186610dce565b81810360e0830152610eb48185610d72565b9050610ec4610100830184610dce565b9a9950505050505050505050565b60006020820190508181036000830152610eeb81610dab565b9050919050565b6000610efc610f0d565b9050610f088282610fe2565b919050565b6000604051905090565b600067ffffffffffffffff821115610f3257610f31611042565b5b610f3b82611085565b9050602081019050919050565b600081519050919050565b600082825260208201905092915050565b6000819050919050565b82818337600083830152505050565b60005b83811015610f9b578082015181840152602081019050610f80565b83811115610faa576000848401525b50505050565b60006002820490506001821680610fc857607f821691505b60208210811415610fdc57610fdb611013565b5b50919050565b610feb82611085565b810181811067ffffffffffffffff8211171561100a57611009611042565b5b80604052505050565b7f4e487b7100000000000000000000000000000000000000000000000000000000600052602260045260246000fd5b7f4e487b7100000000000000000000000000000000000000000000000000000000600052604160045260246000fd5b600080fd5b600080fd5b600080fd5b600080fd5b6000601f19601f8301169050919050565b7f416363657373206973206e6f7420616c6c6f7765640000000000000000000000600082015250565b6110c881610f64565b81146110d357600080fd5b5056fea264697066735822122013ce6125f68c9fc3dbd737a8670444601c175bf250ddb6ef8a33ebbee96b162464736f6c63430008070033",
					"opcodes": "PUSH1 0x80 PUSH1 0x40 MSTORE CALLVALUE DUP1 ISZERO PUSH2 0x10 JUMPI PUSH1 0x0 DUP1 REVERT JUMPDEST POP PUSH20 0xE6005CC724C2D44F0AF23D663017A7E375DD7F35 PUSH1 0x11 PUSH1 0x0 PUSH2 0x100 EXP DUP2 SLOAD DUP2 PUSH20 0xFFFFFFFFFFFFFFFFFFFFFFFFFFFFFFFFFFFFFFFF MUL NOT AND SWAP1 DUP4 PUSH20 0xFFFFFFFFFFFFFFFFFFFFFFFFFFFFFFFFFFFFFFFF AND MUL OR SWAP1 SSTORE POP PUSH2 0x110C DUP1 PUSH2 0x75 PUSH1 0x0 CODECOPY PUSH1 0x0 RETURN INVALID PUSH1 0x80 PUSH1 0x40 MSTORE CALLVALUE DUP1 ISZERO PUSH2 0x10 JUMPI PUSH1 0x0 DUP1 REVERT JUMPDEST POP PUSH1 0x4 CALLDATASIZE LT PUSH2 0x4C JUMPI PUSH1 0x0 CALLDATALOAD PUSH1 0xE0 SHR DUP1 PUSH4 0x65D4352A EQ PUSH2 0x51 JUMPI DUP1 PUSH4 0xC909F8F7 EQ PUSH2 0x89 JUMPI DUP1 PUSH4 0xD734F9B7 EQ PUSH2 0xA5 JUMPI DUP1 PUSH4 0xF5B31BFE EQ PUSH2 0xD7 JUMPI JUMPDEST PUSH1 0x0 DUP1 REVERT JUMPDEST PUSH2 0x6B PUSH1 0x4 DUP1 CALLDATASIZE SUB DUP2 ADD SWAP1 PUSH2 0x66 SWAP2 SWAP1 PUSH2 0xB3B JUMP JUMPDEST PUSH2 0xF3 JUMP JUMPDEST PUSH1 0x40 MLOAD PUSH2 0x80 SWAP10 SWAP9 SWAP8 SWAP7 SWAP6 SWAP5 SWAP4 SWAP3 SWAP2 SWAP1 PUSH2 0xE22 JUMP JUMPDEST PUSH1 0x40 MLOAD DUP1 SWAP2 SUB SWAP1 RETURN JUMPDEST PUSH2 0xA3 PUSH1 0x4 DUP1 CALLDATASIZE SUB DUP2 ADD SWAP1 PUSH2 0x9E SWAP2 SWAP1 PUSH2 0xC07 JUMP JUMPDEST PUSH2 0x489 JUMP JUMPDEST STOP JUMPDEST PUSH2 0xBF PUSH1 0x4 DUP1 CALLDATASIZE SUB DUP2 ADD SWAP1 PUSH2 0xBA SWAP2 SWAP1 PUSH2 0xB3B JUMP JUMPDEST PUSH2 0x6C1 JUMP JUMPDEST PUSH1 0x40 MLOAD PUSH2 0xCE SWAP4 SWAP3 SWAP2 SWAP1 PUSH2 0xDDD JUMP JUMPDEST PUSH1 0x40 MLOAD DUP1 SWAP2 SUB SWAP1 RETURN JUMPDEST PUSH2 0xF1 PUSH1 0x4 DUP1 CALLDATASIZE SUB DUP2 ADD SWAP1 PUSH2 0xEC SWAP2 SWAP1 PUSH2 0xB68 JUMP JUMPDEST PUSH2 0x83C JUMP JUMPDEST STOP JUMPDEST PUSH1 0x60 PUSH1 0x0 PUSH1 0x60 DUP1 PUSH1 0x0 PUSH1 0x60 PUSH1 0x0 PUSH1 0x60 PUSH1 0x0 DUP1 PUSH1 0x0 DUP1 DUP13 DUP2 MSTORE PUSH1 0x20 ADD SWAP1 DUP2 MSTORE PUSH1 0x20 ADD PUSH1 0x0 KECCAK256 PUSH1 0x40 MLOAD DUP1 PUSH2 0x160 ADD PUSH1 0x40 MSTORE SWAP1 DUP2 PUSH1 0x0 DUP3 ADD DUP1 SLOAD PUSH2 0x133 SWAP1 PUSH2 0xFB0 JUMP JUMPDEST DUP1 PUSH1 0x1F ADD PUSH1 0x20 DUP1 SWAP2 DIV MUL PUSH1 0x20 ADD PUSH1 0x40 MLOAD SWAP1 DUP2 ADD PUSH1 0x40 MSTORE DUP1 SWAP3 SWAP2 SWAP1 DUP2 DUP2 MSTORE PUSH1 0x20 ADD DUP3 DUP1 SLOAD PUSH2 0x15F SWAP1 PUSH2 0xFB0 JUMP JUMPDEST DUP1 ISZERO PUSH2 0x1AC JUMPI DUP1 PUSH1 0x1F LT PUSH2 0x181 JUMPI PUSH2 0x100 DUP1 DUP4 SLOAD DIV MUL DUP4 MSTORE SWAP2 PUSH1 0x20 ADD SWAP2 PUSH2 0x1AC JUMP JUMPDEST DUP3 ADD SWAP2 SWAP1 PUSH1 0x0 MSTORE PUSH1 0x20 PUSH1 0x0 KECCAK256 SWAP1 JUMPDEST DUP2 SLOAD DUP2 MSTORE SWAP1 PUSH1 0x1 ADD SWAP1 PUSH1 0x20 ADD DUP1 DUP4 GT PUSH2 0x18F JUMPI DUP3 SWAP1 SUB PUSH1 0x1F AND DUP3 ADD SWAP2 JUMPDEST POP POP POP POP POP DUP2 MSTORE PUSH1 0x20 ADD PUSH1 0x1 DUP3 ADD SLOAD DUP2 MSTORE PUSH1 0x20 ADD PUSH1 0x2 DUP3 ADD DUP1 SLOAD PUSH2 0x1CF SWAP1 PUSH2 0xFB0 JUMP JUMPDEST DUP1 PUSH1 0x1F ADD PUSH1 0x20 DUP1 SWAP2 DIV MUL PUSH1 0x20 ADD PUSH1 0x40 MLOAD SWAP1 DUP2 ADD PUSH1 0x40 MSTORE DUP1 SWAP3 SWAP2 SWAP1 DUP2 DUP2 MSTORE PUSH1 0x20 ADD DUP3 DUP1 SLOAD PUSH2 0x1FB SWAP1 PUSH2 0xFB0 JUMP JUMPDEST DUP1 ISZERO PUSH2 0x248 JUMPI DUP1 PUSH1 0x1F LT PUSH2 0x21D JUMPI PUSH2 0x100 DUP1 DUP4 SLOAD DIV MUL DUP4 MSTORE SWAP2 PUSH1 0x20 ADD SWAP2 PUSH2 0x248 JUMP JUMPDEST DUP3 ADD SWAP2 SWAP1 PUSH1 0x0 MSTORE PUSH1 0x20 PUSH1 0x0 KECCAK256 SWAP1 JUMPDEST DUP2 SLOAD DUP2 MSTORE SWAP1 PUSH1 0x1 ADD SWAP1 PUSH1 0x20 ADD DUP1 DUP4 GT PUSH2 0x22B JUMPI DUP3 SWAP1 SUB PUSH1 0x1F AND DUP3 ADD SWAP2 JUMPDEST POP POP POP POP POP DUP2 MSTORE PUSH1 0x20 ADD PUSH1 0x3 DUP3 ADD DUP1 SLOAD PUSH2 0x261 SWAP1 PUSH2 0xFB0 JUMP JUMPDEST DUP1 PUSH1 0x1F ADD PUSH1 0x20 DUP1 SWAP2 DIV MUL PUSH1 0x20 ADD PUSH1 0x40 MLOAD SWAP1 DUP2 ADD PUSH1 0x40 MSTORE DUP1 SWAP3 SWAP2 SWAP1 DUP2 DUP2 MSTORE PUSH1 0x20 ADD DUP3 DUP1 SLOAD PUSH2 0x28D SWAP1 PUSH2 0xFB0 JUMP JUMPDEST DUP1 ISZERO PUSH2 0x2DA JUMPI DUP1 PUSH1 0x1F LT PUSH2 0x2AF JUMPI PUSH2 0x100 DUP1 DUP4 SLOAD DIV MUL DUP4 MSTORE SWAP2 PUSH1 0x20 ADD SWAP2 PUSH2 0x2DA JUMP JUMPDEST DUP3 ADD SWAP2 SWAP1 PUSH1 0x0 MSTORE PUSH1 0x20 PUSH1 0x0 KECCAK256 SWAP1 JUMPDEST DUP2 SLOAD DUP2 MSTORE SWAP1 PUSH1 0x1 ADD SWAP1 PUSH1 0x20 ADD DUP1 DUP4 GT PUSH2 0x2BD JUMPI DUP3 SWAP1 SUB PUSH1 0x1F AND DUP3 ADD SWAP2 JUMPDEST POP POP POP POP POP DUP2 MSTORE PUSH1 0x20 ADD PUSH1 0x4 DUP3 ADD SLOAD DUP2 MSTORE PUSH1 0x20 ADD PUSH1 0x5 DUP3 ADD DUP1 SLOAD PUSH2 0x2FD SWAP1 PUSH2 0xFB0 JUMP JUMPDEST DUP1 PUSH1 0x1F ADD PUSH1 0x20 DUP1 SWAP2 DIV MUL PUSH1 0x20 ADD PUSH1 0x40 MLOAD SWAP1 DUP2 ADD PUSH1 0x40 MSTORE DUP1 SWAP3 SWAP2 SWAP1 DUP2 DUP2 MSTORE PUSH1 0x20 ADD DUP3 DUP1 SLOAD PUSH2 0x329 SWAP1 PUSH2 0xFB0 JUMP JUMPDEST DUP1 ISZERO PUSH2 0x376 JUMPI DUP1 PUSH1 0x1F LT PUSH2 0x34B JUMPI PUSH2 0x100 DUP1 DUP4 SLOAD DIV MUL DUP4 MSTORE SWAP2 PUSH1 0x20 ADD SWAP2 PUSH2 0x376 JUMP JUMPDEST DUP3 ADD SWAP2 SWAP1 PUSH1 0x0 MSTORE PUSH1 0x20 PUSH1 0x0 KECCAK256 SWAP1 JUMPDEST DUP2 SLOAD DUP2 MSTORE SWAP1 PUSH1 0x1 ADD SWAP1 PUSH1 0x20 ADD DUP1 DUP4 GT PUSH2 0x359 JUMPI DUP3 SWAP1 SUB PUSH1 0x1F AND DUP3 ADD SWAP2 JUMPDEST POP POP POP POP POP DUP2 MSTORE PUSH1 0x20 ADD PUSH1 0x6 DUP3 ADD SLOAD DUP2 MSTORE PUSH1 0x20 ADD PUSH1 0x7 DUP3 ADD DUP1 SLOAD PUSH2 0x399 SWAP1 PUSH2 0xFB0 JUMP JUMPDEST DUP1 PUSH1 0x1F ADD PUSH1 0x20 DUP1 SWAP2 DIV MUL PUSH1 0x20 ADD PUSH1 0x40 MLOAD SWAP1 DUP2 ADD PUSH1 0x40 MSTORE DUP1 SWAP3 SWAP2 SWAP1 DUP2 DUP2 MSTORE PUSH1 0x20 ADD DUP3 DUP1 SLOAD PUSH2 0x3C5 SWAP1 PUSH2 0xFB0 JUMP JUMPDEST DUP1 ISZERO PUSH2 0x412 JUMPI DUP1 PUSH1 0x1F LT PUSH2 0x3E7 JUMPI PUSH2 0x100 DUP1 DUP4 SLOAD DIV MUL DUP4 MSTORE SWAP2 PUSH1 0x20 ADD SWAP2 PUSH2 0x412 JUMP JUMPDEST DUP3 ADD SWAP2 SWAP1 PUSH1 0x0 MSTORE PUSH1 0x20 PUSH1 0x0 KECCAK256 SWAP1 JUMPDEST DUP2 SLOAD DUP2 MSTORE SWAP1 PUSH1 0x1 ADD SWAP1 PUSH1 0x20 ADD DUP1 DUP4 GT PUSH2 0x3F5 JUMPI DUP3 SWAP1 SUB PUSH1 0x1F AND DUP3 ADD SWAP2 JUMPDEST POP POP POP POP POP DUP2 MSTORE PUSH1 0x20 ADD PUSH1 0x8 DUP3 ADD SLOAD DUP2 MSTORE PUSH1 0x20 ADD PUSH1 0x9 DUP3 ADD SLOAD DUP2 MSTORE PUSH1 0x20 ADD PUSH1 0xA DUP3 ADD SLOAD DUP2 MSTORE POP POP SWAP1 POP DUP1 PUSH1 0x0 ADD MLOAD DUP2 PUSH1 0x20 ADD MLOAD DUP3 PUSH1 0x40 ADD MLOAD DUP4 PUSH1 0x60 ADD MLOAD DUP5 PUSH1 0x80 ADD MLOAD DUP6 PUSH1 0xA0 ADD MLOAD DUP7 PUSH1 0xC0 ADD MLOAD DUP8 PUSH1 0xE0 ADD MLOAD DUP9 PUSH2 0x100 ADD MLOAD SWAP10 POP SWAP10 POP SWAP10 POP SWAP10 POP SWAP10 POP SWAP10 POP SWAP10 POP SWAP10 POP SWAP10 POP POP SWAP2 SWAP4 SWAP6 SWAP8 SWAP10 SWAP1 SWAP3 SWAP5 SWAP7 SWAP9 POP JUMP JUMPDEST PUSH1 0x11 PUSH1 0x0 SWAP1 SLOAD SWAP1 PUSH2 0x100 EXP SWAP1 DIV PUSH20 0xFFFFFFFFFFFFFFFFFFFFFFFFFFFFFFFFFFFFFFFF AND PUSH20 0xFFFFFFFFFFFFFFFFFFFFFFFFFFFFFFFFFFFFFFFF AND CALLER PUSH20 0xFFFFFFFFFFFFFFFFFFFFFFFFFFFFFFFFFFFFFFFF AND EQ PUSH2 0x519 JUMPI PUSH1 0x40 MLOAD PUSH32 0x8C379A000000000000000000000000000000000000000000000000000000000 DUP2 MSTORE PUSH1 0x4 ADD PUSH2 0x510 SWAP1 PUSH2 0xED2 JUMP JUMPDEST PUSH1 0x40 MLOAD DUP1 SWAP2 SUB SWAP1 REVERT JUMPDEST DUP9 PUSH1 0x2 PUSH1 0x0 ADD SWAP1 DUP1 MLOAD SWAP1 PUSH1 0x20 ADD SWAP1 PUSH2 0x532 SWAP3 SWAP2 SWAP1 PUSH2 0x986 JUMP JUMPDEST POP DUP8 PUSH1 0x2 PUSH1 0x1 ADD DUP2 SWAP1 SSTORE POP DUP7 PUSH1 0x2 DUP1 ADD SWAP1 DUP1 MLOAD SWAP1 PUSH1 0x20 ADD SWAP1 PUSH2 0x555 SWAP3 SWAP2 SWAP1 PUSH2 0x986 JUMP JUMPDEST POP DUP6 PUSH1 0x2 PUSH1 0x3 ADD SWAP1 DUP1 MLOAD SWAP1 PUSH1 0x20 ADD SWAP1 PUSH2 0x56F SWAP3 SWAP2 SWAP1 PUSH2 0x986 JUMP JUMPDEST POP DUP5 PUSH1 0x2 PUSH1 0x4 ADD DUP2 SWAP1 SSTORE POP DUP4 PUSH1 0x2 PUSH1 0x5 ADD SWAP1 DUP1 MLOAD SWAP1 PUSH1 0x20 ADD SWAP1 PUSH2 0x593 SWAP3 SWAP2 SWAP1 PUSH2 0x986 JUMP JUMPDEST POP DUP3 PUSH1 0x2 PUSH1 0x6 ADD DUP2 SWAP1 SSTORE POP DUP2 PUSH1 0x2 PUSH1 0x7 ADD SWAP1 DUP1 MLOAD SWAP1 PUSH1 0x20 ADD SWAP1 PUSH2 0x5B7 SWAP3 SWAP2 SWAP1 PUSH2 0x986 JUMP JUMPDEST POP DUP1 PUSH1 0x2 PUSH1 0x8 ADD DUP2 SWAP1 SSTORE POP PUSH1 0x2 PUSH1 0x0 DUP1 DUP13 DUP2 MSTORE PUSH1 0x20 ADD SWAP1 DUP2 MSTORE PUSH1 0x20 ADD PUSH1 0x0 KECCAK256 PUSH1 0x0 DUP3 ADD DUP2 PUSH1 0x0 ADD SWAP1 DUP1 SLOAD PUSH2 0x5EA SWAP1 PUSH2 0xFB0 JUMP JUMPDEST PUSH2 0x5F5 SWAP3 SWAP2 SWAP1 PUSH2 0xA0C JUMP JUMPDEST POP PUSH1 0x1 DUP3 ADD SLOAD DUP2 PUSH1 0x1 ADD SSTORE PUSH1 0x2 DUP3 ADD DUP2 PUSH1 0x2 ADD SWAP1 DUP1 SLOAD PUSH2 0x614 SWAP1 PUSH2 0xFB0 JUMP JUMPDEST PUSH2 0x61F SWAP3 SWAP2 SWAP1 PUSH2 0xA0C JUMP JUMPDEST POP PUSH1 0x3 DUP3 ADD DUP2 PUSH1 0x3 ADD SWAP1 DUP1 SLOAD PUSH2 0x634 SWAP1 PUSH2 0xFB0 JUMP JUMPDEST PUSH2 0x63F SWAP3 SWAP2 SWAP1 PUSH2 0xA0C JUMP JUMPDEST POP PUSH1 0x4 DUP3 ADD SLOAD DUP2 PUSH1 0x4 ADD SSTORE PUSH1 0x5 DUP3 ADD DUP2 PUSH1 0x5 ADD SWAP1 DUP1 SLOAD PUSH2 0x65E SWAP1 PUSH2 0xFB0 JUMP JUMPDEST PUSH2 0x669 SWAP3 SWAP2 SWAP1 PUSH2 0xA0C JUMP JUMPDEST POP PUSH1 0x6 DUP3 ADD SLOAD DUP2 PUSH1 0x6 ADD SSTORE PUSH1 0x7 DUP3 ADD DUP2 PUSH1 0x7 ADD SWAP1 DUP1 SLOAD PUSH2 0x688 SWAP1 PUSH2 0xFB0 JUMP JUMPDEST PUSH2 0x693 SWAP3 SWAP2 SWAP1 PUSH2 0xA0C JUMP JUMPDEST POP PUSH1 0x8 DUP3 ADD SLOAD DUP2 PUSH1 0x8 ADD SSTORE PUSH1 0x9 DUP3 ADD SLOAD DUP2 PUSH1 0x9 ADD SSTORE PUSH1 0xA DUP3 ADD SLOAD DUP2 PUSH1 0xA ADD SSTORE SWAP1 POP POP POP POP POP POP POP POP POP POP POP POP JUMP JUMPDEST PUSH1 0x60 DUP1 PUSH1 0x0 DUP1 PUSH1 0x1 PUSH1 0x0 DUP7 DUP2 MSTORE PUSH1 0x20 ADD SWAP1 DUP2 MSTORE PUSH1 0x20 ADD PUSH1 0x0 KECCAK256 PUSH1 0x40 MLOAD DUP1 PUSH1 0x80 ADD PUSH1 0x40 MSTORE SWAP1 DUP2 PUSH1 0x0 DUP3 ADD SLOAD DUP2 MSTORE PUSH1 0x20 ADD PUSH1 0x1 DUP3 ADD DUP1 SLOAD PUSH2 0x6FF SWAP1 PUSH2 0xFB0 JUMP JUMPDEST DUP1 PUSH1 0x1F ADD PUSH1 0x20 DUP1 SWAP2 DIV MUL PUSH1 0x20 ADD PUSH1 0x40 MLOAD SWAP1 DUP2 ADD PUSH1 0x40 MSTORE DUP1 SWAP3 SWAP2 SWAP1 DUP2 DUP2 MSTORE PUSH1 0x20 ADD DUP3 DUP1 SLOAD PUSH2 0x72B SWAP1 PUSH2 0xFB0 JUMP JUMPDEST DUP1 ISZERO PUSH2 0x778 JUMPI DUP1 PUSH1 0x1F LT PUSH2 0x74D JUMPI PUSH2 0x100 DUP1 DUP4 SLOAD DIV MUL DUP4 MSTORE SWAP2 PUSH1 0x20 ADD SWAP2 PUSH2 0x778 JUMP JUMPDEST DUP3 ADD SWAP2 SWAP1 PUSH1 0x0 MSTORE PUSH1 0x20 PUSH1 0x0 KECCAK256 SWAP1 JUMPDEST DUP2 SLOAD DUP2 MSTORE SWAP1 PUSH1 0x1 ADD SWAP1 PUSH1 0x20 ADD DUP1 DUP4 GT PUSH2 0x75B JUMPI DUP3 SWAP1 SUB PUSH1 0x1F AND DUP3 ADD SWAP2 JUMPDEST POP POP POP POP POP DUP2 MSTORE PUSH1 0x20 ADD PUSH1 0x2 DUP3 ADD DUP1 SLOAD PUSH2 0x791 SWAP1 PUSH2 0xFB0 JUMP JUMPDEST DUP1 PUSH1 0x1F ADD PUSH1 0x20 DUP1 SWAP2 DIV MUL PUSH1 0x20 ADD PUSH1 0x40 MLOAD SWAP1 DUP2 ADD PUSH1 0x40 MSTORE DUP1 SWAP3 SWAP2 SWAP1 DUP2 DUP2 MSTORE PUSH1 0x20 ADD DUP3 DUP1 SLOAD PUSH2 0x7BD SWAP1 PUSH2 0xFB0 JUMP JUMPDEST DUP1 ISZERO PUSH2 0x80A JUMPI DUP1 PUSH1 0x1F LT PUSH2 0x7DF JUMPI PUSH2 0x100 DUP1 DUP4 SLOAD DIV MUL DUP4 MSTORE SWAP2 PUSH1 0x20 ADD SWAP2 PUSH2 0x80A JUMP JUMPDEST DUP3 ADD SWAP2 SWAP1 PUSH1 0x0 MSTORE PUSH1 0x20 PUSH1 0x0 KECCAK256 SWAP1 JUMPDEST DUP2 SLOAD DUP2 MSTORE SWAP1 PUSH1 0x1 ADD SWAP1 PUSH1 0x20 ADD DUP1 DUP4 GT PUSH2 0x7ED JUMPI DUP3 SWAP1 SUB PUSH1 0x1F AND DUP3 ADD SWAP2 JUMPDEST POP POP POP POP POP DUP2 MSTORE PUSH1 0x20 ADD PUSH1 0x3 DUP3 ADD SLOAD DUP2 MSTORE POP POP SWAP1 POP DUP1 PUSH1 0x20 ADD MLOAD DUP2 PUSH1 0x40 ADD MLOAD DUP3 PUSH1 0x60 ADD MLOAD SWAP4 POP SWAP4 POP SWAP4 POP POP SWAP2 SWAP4 SWAP1 SWAP3 POP JUMP JUMPDEST PUSH1 0x11 PUSH1 0x0 SWAP1 SLOAD SWAP1 PUSH2 0x100 EXP SWAP1 DIV PUSH20 0xFFFFFFFFFFFFFFFFFFFFFFFFFFFFFFFFFFFFFFFF AND PUSH20 0xFFFFFFFFFFFFFFFFFFFFFFFFFFFFFFFFFFFFFFFF AND CALLER PUSH20 0xFFFFFFFFFFFFFFFFFFFFFFFFFFFFFFFFFFFFFFFF AND EQ PUSH2 0x8CC JUMPI PUSH1 0x40 MLOAD PUSH32 0x8C379A000000000000000000000000000000000000000000000000000000000 DUP2 MSTORE PUSH1 0x4 ADD PUSH2 0x8C3 SWAP1 PUSH2 0xED2 JUMP JUMPDEST PUSH1 0x40 MLOAD DUP1 SWAP2 SUB SWAP1 REVERT JUMPDEST DUP4 PUSH1 0xD PUSH1 0x0 ADD DUP2 SWAP1 SSTORE POP DUP3 PUSH1 0xD PUSH1 0x1 ADD SWAP1 DUP1 MLOAD SWAP1 PUSH1 0x20 ADD SWAP1 PUSH2 0x8EF SWAP3 SWAP2 SWAP1 PUSH2 0x986 JUMP JUMPDEST POP DUP2 PUSH1 0xD PUSH1 0x2 ADD SWAP1 DUP1 MLOAD SWAP1 PUSH1 0x20 ADD SWAP1 PUSH2 0x909 SWAP3 SWAP2 SWAP1 PUSH2 0x986 JUMP JUMPDEST POP DUP1 PUSH1 0xD PUSH1 0x3 ADD DUP2 SWAP1 SSTORE POP PUSH1 0xD PUSH1 0x1 PUSH1 0x0 DUP7 DUP2 MSTORE PUSH1 0x20 ADD SWAP1 DUP2 MSTORE PUSH1 0x20 ADD PUSH1 0x0 KECCAK256 PUSH1 0x0 DUP3 ADD SLOAD DUP2 PUSH1 0x0 ADD SSTORE PUSH1 0x1 DUP3 ADD DUP2 PUSH1 0x1 ADD SWAP1 DUP1 SLOAD PUSH2 0x947 SWAP1 PUSH2 0xFB0 JUMP JUMPDEST PUSH2 0x952 SWAP3 SWAP2 SWAP1 PUSH2 0xA0C JUMP JUMPDEST POP PUSH1 0x2 DUP3 ADD DUP2 PUSH1 0x2 ADD SWAP1 DUP1 SLOAD PUSH2 0x967 SWAP1 PUSH2 0xFB0 JUMP JUMPDEST PUSH2 0x972 SWAP3 SWAP2 SWAP1 PUSH2 0xA0C JUMP JUMPDEST POP PUSH1 0x3 DUP3 ADD SLOAD DUP2 PUSH1 0x3 ADD SSTORE SWAP1 POP POP POP POP POP POP JUMP JUMPDEST DUP3 DUP1 SLOAD PUSH2 0x992 SWAP1 PUSH2 0xFB0 JUMP JUMPDEST SWAP1 PUSH1 0x0 MSTORE PUSH1 0x20 PUSH1 0x0 KECCAK256 SWAP1 PUSH1 0x1F ADD PUSH1 0x20 SWAP1 DIV DUP2 ADD SWAP3 DUP3 PUSH2 0x9B4 JUMPI PUSH1 0x0 DUP6 SSTORE PUSH2 0x9FB JUMP JUMPDEST DUP3 PUSH1 0x1F LT PUSH2 0x9CD JUMPI DUP1 MLOAD PUSH1 0xFF NOT AND DUP4 DUP1 ADD OR DUP6 SSTORE PUSH2 0x9FB JUMP JUMPDEST DUP3 DUP1 ADD PUSH1 0x1 ADD DUP6 SSTORE DUP3 ISZERO PUSH2 0x9FB JUMPI SWAP2 DUP3 ADD JUMPDEST DUP3 DUP2 GT ISZERO PUSH2 0x9FA JUMPI DUP3 MLOAD DUP3 SSTORE SWAP2 PUSH1 0x20 ADD SWAP2 SWAP1 PUSH1 0x1 ADD SWAP1 PUSH2 0x9DF JUMP JUMPDEST JUMPDEST POP SWAP1 POP PUSH2 0xA08 SWAP2 SWAP1 PUSH2 0xA99 JUMP JUMPDEST POP SWAP1 JUMP JUMPDEST DUP3 DUP1 SLOAD PUSH2 0xA18 SWAP1 PUSH2 0xFB0 JUMP JUMPDEST SWAP1 PUSH1 0x0 MSTORE PUSH1 0x20 PUSH1 0x0 KECCAK256 SWAP1 PUSH1 0x1F ADD PUSH1 0x20 SWAP1 DIV DUP2 ADD SWAP3 DUP3 PUSH2 0xA3A JUMPI PUSH1 0x0 DUP6 SSTORE PUSH2 0xA88 JUMP JUMPDEST DUP3 PUSH1 0x1F LT PUSH2 0xA4B JUMPI DUP1 SLOAD DUP6 SSTORE PUSH2 0xA88 JUMP JUMPDEST DUP3 DUP1 ADD PUSH1 0x1 ADD DUP6 SSTORE DUP3 ISZERO PUSH2 0xA88 JUMPI PUSH1 0x0 MSTORE PUSH1 0x20 PUSH1 0x0 KECCAK256 SWAP2 PUSH1 0x1F ADD PUSH1 0x20 SWAP1 DIV DUP3 ADD JUMPDEST DUP3 DUP2 GT ISZERO PUSH2 0xA87 JUMPI DUP3 SLOAD DUP3 SSTORE SWAP2 PUSH1 0x1 ADD SWAP2 SWAP1 PUSH1 0x1 ADD SWAP1 PUSH2 0xA6C JUMP JUMPDEST JUMPDEST POP SWAP1 POP PUSH2 0xA95 SWAP2 SWAP1 PUSH2 0xA99 JUMP JUMPDEST POP SWAP1 JUMP JUMPDEST JUMPDEST DUP1 DUP3 GT ISZERO PUSH2 0xAB2 JUMPI PUSH1 0x0 DUP2 PUSH1 0x0 SWAP1 SSTORE POP PUSH1 0x1 ADD PUSH2 0xA9A JUMP JUMPDEST POP SWAP1 JUMP JUMPDEST PUSH1 0x0 PUSH2 0xAC9 PUSH2 0xAC4 DUP5 PUSH2 0xF17 JUMP JUMPDEST PUSH2 0xEF2 JUMP JUMPDEST SWAP1 POP DUP3 DUP2 MSTORE PUSH1 0x20 DUP2 ADD DUP5 DUP5 DUP5 ADD GT ISZERO PUSH2 0xAE5 JUMPI PUSH2 0xAE4 PUSH2 0x1076 JUMP JUMPDEST JUMPDEST PUSH2 0xAF0 DUP5 DUP3 DUP6 PUSH2 0xF6E JUMP JUMPDEST POP SWAP4 SWAP3 POP POP POP JUMP JUMPDEST PUSH1 0x0 DUP3 PUSH1 0x1F DUP4 ADD SLT PUSH2 0xB0D JUMPI PUSH2 0xB0C PUSH2 0x1071 JUMP JUMPDEST JUMPDEST DUP2 CALLDATALOAD PUSH2 0xB1D DUP5 DUP3 PUSH1 0x20 DUP7 ADD PUSH2 0xAB6 JUMP JUMPDEST SWAP2 POP POP SWAP3 SWAP2 POP POP JUMP JUMPDEST PUSH1 0x0 DUP2 CALLDATALOAD SWAP1 POP PUSH2 0xB35 DUP2 PUSH2 0x10BF JUMP JUMPDEST SWAP3 SWAP2 POP POP JUMP JUMPDEST PUSH1 0x0 PUSH1 0x20 DUP3 DUP5 SUB SLT ISZERO PUSH2 0xB51 JUMPI PUSH2 0xB50 PUSH2 0x1080 JUMP JUMPDEST JUMPDEST PUSH1 0x0 PUSH2 0xB5F DUP5 DUP3 DUP6 ADD PUSH2 0xB26 JUMP JUMPDEST SWAP2 POP POP SWAP3 SWAP2 POP POP JUMP JUMPDEST PUSH1 0x0 DUP1 PUSH1 0x0 DUP1 PUSH1 0x80 DUP6 DUP8 SUB SLT ISZERO PUSH2 0xB82 JUMPI PUSH2 0xB81 PUSH2 0x1080 JUMP JUMPDEST JUMPDEST PUSH1 0x0 PUSH2 0xB90 DUP8 DUP3 DUP9 ADD PUSH2 0xB26 JUMP JUMPDEST SWAP5 POP POP PUSH1 0x20 DUP6 ADD CALLDATALOAD PUSH8 0xFFFFFFFFFFFFFFFF DUP2 GT ISZERO PUSH2 0xBB1 JUMPI PUSH2 0xBB0 PUSH2 0x107B JUMP JUMPDEST JUMPDEST PUSH2 0xBBD DUP8 DUP3 DUP9 ADD PUSH2 0xAF8 JUMP JUMPDEST SWAP4 POP POP PUSH1 0x40 DUP6 ADD CALLDATALOAD PUSH8 0xFFFFFFFFFFFFFFFF DUP2 GT ISZERO PUSH2 0xBDE JUMPI PUSH2 0xBDD PUSH2 0x107B JUMP JUMPDEST JUMPDEST PUSH2 0xBEA DUP8 DUP3 DUP9 ADD PUSH2 0xAF8 JUMP JUMPDEST SWAP3 POP POP PUSH1 0x60 PUSH2 0xBFB DUP8 DUP3 DUP9 ADD PUSH2 0xB26 JUMP JUMPDEST SWAP2 POP POP SWAP3 SWAP6 SWAP2 SWAP5 POP SWAP3 POP JUMP JUMPDEST PUSH1 0x0 DUP1 PUSH1 0x0 DUP1 PUSH1 0x0 DUP1 PUSH1 0x0 DUP1 PUSH1 0x0 DUP1 PUSH2 0x140 DUP12 DUP14 SUB SLT ISZERO PUSH2 0xC2B JUMPI PUSH2 0xC2A PUSH2 0x1080 JUMP JUMPDEST JUMPDEST PUSH1 0x0 PUSH2 0xC39 DUP14 DUP3 DUP15 ADD PUSH2 0xB26 JUMP JUMPDEST SWAP11 POP POP PUSH1 0x20 DUP12 ADD CALLDATALOAD PUSH8 0xFFFFFFFFFFFFFFFF DUP2 GT ISZERO PUSH2 0xC5A JUMPI PUSH2 0xC59 PUSH2 0x107B JUMP JUMPDEST JUMPDEST PUSH2 0xC66 DUP14 DUP3 DUP15 ADD PUSH2 0xAF8 JUMP JUMPDEST SWAP10 POP POP PUSH1 0x40 PUSH2 0xC77 DUP14 DUP3 DUP15 ADD PUSH2 0xB26 JUMP JUMPDEST SWAP9 POP POP PUSH1 0x60 DUP12 ADD CALLDATALOAD PUSH8 0xFFFFFFFFFFFFFFFF DUP2 GT ISZERO PUSH2 0xC98 JUMPI PUSH2 0xC97 PUSH2 0x107B JUMP JUMPDEST JUMPDEST PUSH2 0xCA4 DUP14 DUP3 DUP15 ADD PUSH2 0xAF8 JUMP JUMPDEST SWAP8 POP POP PUSH1 0x80 DUP12 ADD CALLDATALOAD PUSH8 0xFFFFFFFFFFFFFFFF DUP2 GT ISZERO PUSH2 0xCC5 JUMPI PUSH2 0xCC4 PUSH2 0x107B JUMP JUMPDEST JUMPDEST PUSH2 0xCD1 DUP14 DUP3 DUP15 ADD PUSH2 0xAF8 JUMP JUMPDEST SWAP7 POP POP PUSH1 0xA0 PUSH2 0xCE2 DUP14 DUP3 DUP15 ADD PUSH2 0xB26 JUMP JUMPDEST SWAP6 POP POP PUSH1 0xC0 DUP12 ADD CALLDATALOAD PUSH8 0xFFFFFFFFFFFFFFFF DUP2 GT ISZERO PUSH2 0xD03 JUMPI PUSH2 0xD02 PUSH2 0x107B JUMP JUMPDEST JUMPDEST PUSH2 0xD0F DUP14 DUP3 DUP15 ADD PUSH2 0xAF8 JUMP JUMPDEST SWAP5 POP POP PUSH1 0xE0 PUSH2 0xD20 DUP14 DUP3 DUP15 ADD PUSH2 0xB26 JUMP JUMPDEST SWAP4 POP POP PUSH2 0x100 DUP12 ADD CALLDATALOAD PUSH8 0xFFFFFFFFFFFFFFFF DUP2 GT ISZERO PUSH2 0xD42 JUMPI PUSH2 0xD41 PUSH2 0x107B JUMP JUMPDEST JUMPDEST PUSH2 0xD4E DUP14 DUP3 DUP15 ADD PUSH2 0xAF8 JUMP JUMPDEST SWAP3 POP POP PUSH2 0x120 PUSH2 0xD60 DUP14 DUP3 DUP15 ADD PUSH2 0xB26 JUMP JUMPDEST SWAP2 POP POP SWAP3 SWAP6 SWAP9 SWAP12 SWAP2 SWAP5 SWAP8 SWAP11 POP SWAP3 SWAP6 SWAP9 POP JUMP JUMPDEST PUSH1 0x0 PUSH2 0xD7D DUP3 PUSH2 0xF48 JUMP JUMPDEST PUSH2 0xD87 DUP2 DUP6 PUSH2 0xF53 JUMP JUMPDEST SWAP4 POP PUSH2 0xD97 DUP2 DUP6 PUSH1 0x20 DUP7 ADD PUSH2 0xF7D JUMP JUMPDEST PUSH2 0xDA0 DUP2 PUSH2 0x1085 JUMP JUMPDEST DUP5 ADD SWAP2 POP POP SWAP3 SWAP2 POP POP JUMP JUMPDEST PUSH1 0x0 PUSH2 0xDB8 PUSH1 0x15 DUP4 PUSH2 0xF53 JUMP JUMPDEST SWAP2 POP PUSH2 0xDC3 DUP3 PUSH2 0x1096 JUMP JUMPDEST PUSH1 0x20 DUP3 ADD SWAP1 POP SWAP2 SWAP1 POP JUMP JUMPDEST PUSH2 0xDD7 DUP2 PUSH2 0xF64 JUMP JUMPDEST DUP3 MSTORE POP POP JUMP JUMPDEST PUSH1 0x0 PUSH1 0x60 DUP3 ADD SWAP1 POP DUP2 DUP2 SUB PUSH1 0x0 DUP4 ADD MSTORE PUSH2 0xDF7 DUP2 DUP7 PUSH2 0xD72 JUMP JUMPDEST SWAP1 POP DUP2 DUP2 SUB PUSH1 0x20 DUP4 ADD MSTORE PUSH2 0xE0B DUP2 DUP6 PUSH2 0xD72 JUMP JUMPDEST SWAP1 POP PUSH2 0xE1A PUSH1 0x40 DUP4 ADD DUP5 PUSH2 0xDCE JUMP JUMPDEST SWAP5 SWAP4 POP POP POP POP JUMP JUMPDEST PUSH1 0x0 PUSH2 0x120 DUP3 ADD SWAP1 POP DUP2 DUP2 SUB PUSH1 0x0 DUP4 ADD MSTORE PUSH2 0xE3D DUP2 DUP13 PUSH2 0xD72 JUMP JUMPDEST SWAP1 POP PUSH2 0xE4C PUSH1 0x20 DUP4 ADD DUP12 PUSH2 0xDCE JUMP JUMPDEST DUP2 DUP2 SUB PUSH1 0x40 DUP4 ADD MSTORE PUSH2 0xE5E DUP2 DUP11 PUSH2 0xD72 JUMP JUMPDEST SWAP1 POP DUP2 DUP2 SUB PUSH1 0x60 DUP4 ADD MSTORE PUSH2 0xE72 DUP2 DUP10 PUSH2 0xD72 JUMP JUMPDEST SWAP1 POP PUSH2 0xE81 PUSH1 0x80 DUP4 ADD DUP9 PUSH2 0xDCE JUMP JUMPDEST DUP2 DUP2 SUB PUSH1 0xA0 DUP4 ADD MSTORE PUSH2 0xE93 DUP2 DUP8 PUSH2 0xD72 JUMP JUMPDEST SWAP1 POP PUSH2 0xEA2 PUSH1 0xC0 DUP4 ADD DUP7 PUSH2 0xDCE JUMP JUMPDEST DUP2 DUP2 SUB PUSH1 0xE0 DUP4 ADD MSTORE PUSH2 0xEB4 DUP2 DUP6 PUSH2 0xD72 JUMP JUMPDEST SWAP1 POP PUSH2 0xEC4 PUSH2 0x100 DUP4 ADD DUP5 PUSH2 0xDCE JUMP JUMPDEST SWAP11 SWAP10 POP POP POP POP POP POP POP POP POP POP JUMP JUMPDEST PUSH1 0x0 PUSH1 0x20 DUP3 ADD SWAP1 POP DUP2 DUP2 SUB PUSH1 0x0 DUP4 ADD MSTORE PUSH2 0xEEB DUP2 PUSH2 0xDAB JUMP JUMPDEST SWAP1 POP SWAP2 SWAP1 POP JUMP JUMPDEST PUSH1 0x0 PUSH2 0xEFC PUSH2 0xF0D JUMP JUMPDEST SWAP1 POP PUSH2 0xF08 DUP3 DUP3 PUSH2 0xFE2 JUMP JUMPDEST SWAP2 SWAP1 POP JUMP JUMPDEST PUSH1 0x0 PUSH1 0x40 MLOAD SWAP1 POP SWAP1 JUMP JUMPDEST PUSH1 0x0 PUSH8 0xFFFFFFFFFFFFFFFF DUP3 GT ISZERO PUSH2 0xF32 JUMPI PUSH2 0xF31 PUSH2 0x1042 JUMP JUMPDEST JUMPDEST PUSH2 0xF3B DUP3 PUSH2 0x1085 JUMP JUMPDEST SWAP1 POP PUSH1 0x20 DUP2 ADD SWAP1 POP SWAP2 SWAP1 POP JUMP JUMPDEST PUSH1 0x0 DUP2 MLOAD SWAP1 POP SWAP2 SWAP1 POP JUMP JUMPDEST PUSH1 0x0 DUP3 DUP3 MSTORE PUSH1 0x20 DUP3 ADD SWAP1 POP SWAP3 SWAP2 POP POP JUMP JUMPDEST PUSH1 0x0 DUP2 SWAP1 POP SWAP2 SWAP1 POP JUMP JUMPDEST DUP3 DUP2 DUP4 CALLDATACOPY PUSH1 0x0 DUP4 DUP4 ADD MSTORE POP POP POP JUMP JUMPDEST PUSH1 0x0 JUMPDEST DUP4 DUP2 LT ISZERO PUSH2 0xF9B JUMPI DUP1 DUP3 ADD MLOAD DUP2 DUP5 ADD MSTORE PUSH1 0x20 DUP2 ADD SWAP1 POP PUSH2 0xF80 JUMP JUMPDEST DUP4 DUP2 GT ISZERO PUSH2 0xFAA JUMPI PUSH1 0x0 DUP5 DUP5 ADD MSTORE JUMPDEST POP POP POP POP JUMP JUMPDEST PUSH1 0x0 PUSH1 0x2 DUP3 DIV SWAP1 POP PUSH1 0x1 DUP3 AND DUP1 PUSH2 0xFC8 JUMPI PUSH1 0x7F DUP3 AND SWAP2 POP JUMPDEST PUSH1 0x20 DUP3 LT DUP2 EQ ISZERO PUSH2 0xFDC JUMPI PUSH2 0xFDB PUSH2 0x1013 JUMP JUMPDEST JUMPDEST POP SWAP2 SWAP1 POP JUMP JUMPDEST PUSH2 0xFEB DUP3 PUSH2 0x1085 JUMP JUMPDEST DUP2 ADD DUP2 DUP2 LT PUSH8 0xFFFFFFFFFFFFFFFF DUP3 GT OR ISZERO PUSH2 0x100A JUMPI PUSH2 0x1009 PUSH2 0x1042 JUMP JUMPDEST JUMPDEST DUP1 PUSH1 0x40 MSTORE POP POP POP JUMP JUMPDEST PUSH32 0x4E487B7100000000000000000000000000000000000000000000000000000000 PUSH1 0x0 MSTORE PUSH1 0x22 PUSH1 0x4 MSTORE PUSH1 0x24 PUSH1 0x0 REVERT JUMPDEST PUSH32 0x4E487B7100000000000000000000000000000000000000000000000000000000 PUSH1 0x0 MSTORE PUSH1 0x41 PUSH1 0x4 MSTORE PUSH1 0x24 PUSH1 0x0 REVERT JUMPDEST PUSH1 0x0 DUP1 REVERT JUMPDEST PUSH1 0x0 DUP1 REVERT JUMPDEST PUSH1 0x0 DUP1 REVERT JUMPDEST PUSH1 0x0 DUP1 REVERT JUMPDEST PUSH1 0x0 PUSH1 0x1F NOT PUSH1 0x1F DUP4 ADD AND SWAP1 POP SWAP2 SWAP1 POP JUMP JUMPDEST PUSH32 0x416363657373206973206E6F7420616C6C6F7765640000000000000000000000 PUSH1 0x0 DUP3 ADD MSTORE POP JUMP JUMPDEST PUSH2 0x10C8 DUP2 PUSH2 0xF64 JUMP JUMPDEST DUP2 EQ PUSH2 0x10D3 JUMPI PUSH1 0x0 DUP1 REVERT JUMPDEST POP JUMP INVALID LOG2 PUSH5 0x6970667358 0x22 SLT KECCAK256 SGT 0xCE PUSH2 0x25F6 DUP13 SWAP16 0xC3 0xDB 0xD7 CALLDATACOPY 0xA8 PUSH8 0x444601C175BF250 0xDD 0xB6 0xEF DUP11 CALLER 0xEB 0xBE 0xE9 PUSH12 0x162464736F6C634300080700 CALLER "
				},
				"gasEstimates": {
					"creation": {
						"codeDepositCost": "872800",
						"executionCost": "25176",
						"totalCost": "897976"
					},
					"external": {
						"retreive_attendant_details(uint256)": "infinite",
						"retreive_patient_details(uint256)": "infinite",
						"store_attendant_details(uint256,string,string,uint256)": "infinite",
						"store_patient_details(uint256,string,uint256,string,string,uint256,string,uint256,string,uint256)": "infinite"
					}
				},
				"methodIdentifiers": {
					"retreive_attendant_details(uint256)": "d734f9b7",
					"retreive_patient_details(uint256)": "65d4352a",
					"store_attendant_details(uint256,string,string,uint256)": "f5b31bfe",
					"store_patient_details(uint256,string,uint256,string,string,uint256,string,uint256,string,uint256)": "c909f8f7"
				}
			},
			"storageLayout": {
				"storage": [
					{
						"astId": 7,
						"contract": "patient.sol:Patient",
						"label": "patientlist",
						"offset": 0,
						"slot": "0",
						"type": "t_mapping(t_uint256,t_struct(patient)35_storage)"
					},
					{
						"astId": 12,
						"contract": "patient.sol:Patient",
						"label": "attendantlist",
						"offset": 0,
						"slot": "1",
						"type": "t_mapping(t_uint256,t_struct(attendant)47_storage)"
					},
					{
						"astId": 38,
						"contract": "patient.sol:Patient",
						"label": "p",
						"offset": 0,
						"slot": "2",
						"type": "t_struct(patient)35_storage"
					},
					{
						"astId": 50,
						"contract": "patient.sol:Patient",
						"label": "a",
						"offset": 0,
						"slot": "13",
						"type": "t_struct(attendant)47_storage"
					},
					{
						"astId": 52,
						"contract": "patient.sol:Patient",
						"label": "owner",
						"offset": 0,
						"slot": "17",
						"type": "t_address"
					}
				],
				"types": {
					"t_address": {
						"encoding": "inplace",
						"label": "address",
						"numberOfBytes": "20"
					},
					"t_mapping(t_uint256,t_struct(attendant)47_storage)": {
						"encoding": "mapping",
						"key": "t_uint256",
						"label": "mapping(uint256 => struct Patient.attendant)",
						"numberOfBytes": "32",
						"value": "t_struct(attendant)47_storage"
					},
					"t_mapping(t_uint256,t_struct(patient)35_storage)": {
						"encoding": "mapping",
						"key": "t_uint256",
						"label": "mapping(uint256 => struct Patient.patient)",
						"numberOfBytes": "32",
						"value": "t_struct(patient)35_storage"
					},
					"t_string_storage": {
						"encoding": "bytes",
						"label": "string",
						"numberOfBytes": "32"
					},
					"t_struct(attendant)47_storage": {
						"encoding": "inplace",
						"label": "struct Patient.attendant",
						"members": [
							{
								"astId": 40,
								"contract": "patient.sol:Patient",
								"label": "patient_id",
								"offset": 0,
								"slot": "0",
								"type": "t_uint256"
							},
							{
								"astId": 42,
								"contract": "patient.sol:Patient",
								"label": "attendant_name",
								"offset": 0,
								"slot": "1",
								"type": "t_string_storage"
							},
							{
								"astId": 44,
								"contract": "patient.sol:Patient",
								"label": "attendant_relation",
								"offset": 0,
								"slot": "2",
								"type": "t_string_storage"
							},
							{
								"astId": 46,
								"contract": "patient.sol:Patient",
								"label": "attendant_phn_no",
								"offset": 0,
								"slot": "3",
								"type": "t_uint256"
							}
						],
						"numberOfBytes": "128"
					},
					"t_struct(patient)35_storage": {
						"encoding": "inplace",
						"label": "struct Patient.patient",
						"members": [
							{
								"astId": 14,
								"contract": "patient.sol:Patient",
								"label": "patient_name",
								"offset": 0,
								"slot": "0",
								"type": "t_string_storage"
							},
							{
								"astId": 16,
								"contract": "patient.sol:Patient",
								"label": "age",
								"offset": 0,
								"slot": "1",
								"type": "t_uint256"
							},
							{
								"astId": 18,
								"contract": "patient.sol:Patient",
								"label": "gender",
								"offset": 0,
								"slot": "2",
								"type": "t_string_storage"
							},
							{
								"astId": 20,
								"contract": "patient.sol:Patient",
								"label": "height",
								"offset": 0,
								"slot": "3",
								"type": "t_string_storage"
							},
							{
								"astId": 22,
								"contract": "patient.sol:Patient",
								"label": "weight",
								"offset": 0,
								"slot": "4",
								"type": "t_uint256"
							},
							{
								"astId": 24,
								"contract": "patient.sol:Patient",
								"label": "patient_address",
								"offset": 0,
								"slot": "5",
								"type": "t_string_storage"
							},
							{
								"astId": 26,
								"contract": "patient.sol:Patient",
								"label": "phone_no",
								"offset": 0,
								"slot": "6",
								"type": "t_uint256"
							},
							{
								"astId": 28,
								"contract": "patient.sol:Patient",
								"label": "email_id",
								"offset": 0,
								"slot": "7",
								"type": "t_string_storage"
							},
							{
								"astId": 30,
								"contract": "patient.sol:Patient",
								"label": "date",
								"offset": 0,
								"slot": "8",
								"type": "t_uint256"
							},
							{
								"astId": 32,
								"contract": "patient.sol:Patient",
								"label": "doctor_id",
								"offset": 0,
								"slot": "9",
								"type": "t_uint256"
							},
							{
								"astId": 34,
								"contract": "patient.sol:Patient",
								"label": "hospital_id",
								"offset": 0,
								"slot": "10",
								"type": "t_uint256"
							}
						],
						"numberOfBytes": "352"
					},
					"t_uint256": {
						"encoding": "inplace",
						"label": "uint256",
						"numberOfBytes": "32"
					}
				}
			},
			"userdoc": {
				"kind": "user",
				"methods": {},
				"version": 1
			}
		}
	}
}