{
	"hospital.sol": {
		"Hospital": {
			"abi": [
				{
					"inputs": [],
					"stateMutability": "nonpayable",
					"type": "constructor"
				},
				{
					"inputs": [
						{
							"internalType": "uint256",
							"name": "hospital_id",
							"type": "uint256"
						}
					],
					"name": "retreive_hospital_details",
					"outputs": [
						{
							"internalType": "string",
							"name": "",
							"type": "string"
						},
						{
							"internalType": "string",
							"name": "",
							"type": "string"
						},
						{
							"internalType": "string",
							"name": "",
							"type": "string"
						}
					],
					"stateMutability": "view",
					"type": "function"
				},
				{
					"inputs": [
						{
							"internalType": "uint256",
							"name": "hospital_id",
							"type": "uint256"
						},
						{
							"internalType": "string",
							"name": "_hospital_name",
							"type": "string"
						},
						{
							"internalType": "string",
							"name": "_hospital_address",
							"type": "string"
						},
						{
							"internalType": "string",
							"name": "_hospital_spec",
							"type": "string"
						}
					],
					"name": "store_doctor_details",
					"outputs": [],
					"stateMutability": "nonpayable",
					"type": "function"
				}
			],
			"devdoc": {
				"kind": "dev",
				"methods": {
					"retreive_hospital_details(uint256)": {
						"details": "Retreive hospital details",
						"params": {
							"hospital_id": "hospital registration id "
						}
					},
					"store_doctor_details(uint256,string,string,string)": {
						"details": "Store hospital details",
						"params": {
							"_hospital_address": "hospital address ",
							"_hospital_name": "name of hospital",
							"_hospital_spec": "hospital specialisation",
							"hospital_id": "hospital registration id"
						}
					}
				},
				"version": 1
			},
			"evm": {
				"assembly": "    /* \"hospital.sol\":178:1899  contract Hospital  {\r... */\n  mstore(0x40, 0x80)\n    /* \"hospital.sol\":480:542  constructor() public {\r... */\n  callvalue\n  dup1\n  iszero\n  tag_1\n  jumpi\n  0x00\n  dup1\n  revert\ntag_1:\n  pop\n    /* \"hospital.sol\":522:532  msg.sender */\n  caller\n    /* \"hospital.sol\":514:519  owner */\n  0x04\n  0x00\n    /* \"hospital.sol\":514:532  owner = msg.sender */\n  0x0100\n  exp\n  dup2\n  sload\n  dup2\n  0xffffffffffffffffffffffffffffffffffffffff\n  mul\n  not\n  and\n  swap1\n  dup4\n  0xffffffffffffffffffffffffffffffffffffffff\n  and\n  mul\n  or\n  swap1\n  sstore\n  pop\n    /* \"hospital.sol\":178:1899  contract Hospital  {\r... */\n  dataSize(sub_0)\n  dup1\n  dataOffset(sub_0)\n  0x00\n  codecopy\n  0x00\n  return\nstop\n\nsub_0: assembly {\n        /* \"hospital.sol\":178:1899  contract Hospital  {\r... */\n      mstore(0x40, 0x80)\n      callvalue\n      dup1\n      iszero\n      tag_1\n      jumpi\n      0x00\n      dup1\n      revert\n    tag_1:\n      pop\n      jumpi(tag_2, lt(calldatasize, 0x04))\n      shr(0xe0, calldataload(0x00))\n      dup1\n      0x1ae73fe1\n      eq\n      tag_3\n      jumpi\n      dup1\n      0xc1a4cfb6\n      eq\n      tag_4\n      jumpi\n    tag_2:\n      0x00\n      dup1\n      revert\n        /* \"hospital.sol\":1030:1428  function store_doctor_details(uint256 hospital_id,string memory _hospital_name,string memory _hospital_address,string memory _hospital_spec)public isOwner {\r... */\n    tag_3:\n      tag_5\n      0x04\n      dup1\n      calldatasize\n      sub\n      dup2\n      add\n      swap1\n      tag_6\n      swap2\n      swap1\n      tag_7\n      jump\t// in\n    tag_6:\n      tag_8\n      jump\t// in\n    tag_5:\n      stop\n        /* \"hospital.sol\":1578:1860  function retreive_hospital_details(uint256 hospital_id) public view returns (string memory,string memory,string memory){\r... */\n    tag_4:\n      tag_9\n      0x04\n      dup1\n      calldatasize\n      sub\n      dup2\n      add\n      swap1\n      tag_10\n      swap2\n      swap1\n      tag_11\n      jump\t// in\n    tag_10:\n      tag_12\n      jump\t// in\n    tag_9:\n      mload(0x40)\n      tag_13\n      swap4\n      swap3\n      swap2\n      swap1\n      tag_14\n      jump\t// in\n    tag_13:\n      mload(0x40)\n      dup1\n      swap2\n      sub\n      swap1\n      return\n        /* \"hospital.sol\":1030:1428  function store_doctor_details(uint256 hospital_id,string memory _hospital_name,string memory _hospital_address,string memory _hospital_spec)public isOwner {\r... */\n    tag_8:\n        /* \"hospital.sol\":672:677  owner */\n      0x04\n      0x00\n      swap1\n      sload\n      swap1\n      0x0100\n      exp\n      swap1\n      div\n      0xffffffffffffffffffffffffffffffffffffffff\n      and\n        /* \"hospital.sol\":658:677  msg.sender == owner */\n      0xffffffffffffffffffffffffffffffffffffffff\n      and\n        /* \"hospital.sol\":658:668  msg.sender */\n      caller\n        /* \"hospital.sol\":658:677  msg.sender == owner */\n      0xffffffffffffffffffffffffffffffffffffffff\n      and\n      eq\n        /* \"hospital.sol\":650:703  require(msg.sender == owner, \"Access is not allowed\") */\n      tag_16\n      jumpi\n      mload(0x40)\n      0x08c379a000000000000000000000000000000000000000000000000000000000\n      dup2\n      mstore\n      0x04\n      add\n      tag_17\n      swap1\n      tag_18\n      jump\t// in\n    tag_17:\n      mload(0x40)\n      dup1\n      swap2\n      sub\n      swap1\n      revert\n    tag_16:\n        /* \"hospital.sol\":1225:1239  _hospital_name */\n      dup3\n        /* \"hospital.sol\":1207:1208  h */\n      0x01\n        /* \"hospital.sol\":1207:1222  h.hospital_name */\n      0x00\n      add\n        /* \"hospital.sol\":1207:1239  h.hospital_name = _hospital_name */\n      swap1\n      dup1\n      mload\n      swap1\n      0x20\n      add\n      swap1\n      tag_20\n      swap3\n      swap2\n      swap1\n      tag_21\n      jump\t// in\n    tag_20:\n      pop\n        /* \"hospital.sol\":1272:1289  _hospital_address */\n      dup2\n        /* \"hospital.sol\":1251:1252  h */\n      0x01\n        /* \"hospital.sol\":1251:1269  h.hospital_address */\n      dup1\n      add\n        /* \"hospital.sol\":1251:1289  h.hospital_address = _hospital_address */\n      swap1\n      dup1\n      mload\n      swap1\n      0x20\n      add\n      swap1\n      tag_22\n      swap3\n      swap2\n      swap1\n      tag_21\n      jump\t// in\n    tag_22:\n      pop\n        /* \"hospital.sol\":1319:1333  _hospital_spec */\n      dup1\n        /* \"hospital.sol\":1301:1302  h */\n      0x01\n        /* \"hospital.sol\":1301:1316  h.hospital_spec */\n      0x02\n      add\n        /* \"hospital.sol\":1301:1333  h.hospital_spec = _hospital_spec */\n      swap1\n      dup1\n      mload\n      swap1\n      0x20\n      add\n      swap1\n      tag_23\n      swap3\n      swap2\n      swap1\n      tag_21\n      jump\t// in\n    tag_23:\n      pop\n        /* \"hospital.sol\":1394:1395  h */\n      0x01\n        /* \"hospital.sol\":1366:1378  hospitallist */\n      0x00\n        /* \"hospital.sol\":1366:1391  hospitallist[hospital_id] */\n      dup1\n        /* \"hospital.sol\":1379:1390  hospital_id */\n      dup7\n        /* \"hospital.sol\":1366:1391  hospitallist[hospital_id] */\n      dup2\n      mstore\n      0x20\n      add\n      swap1\n      dup2\n      mstore\n      0x20\n      add\n      0x00\n      keccak256\n        /* \"hospital.sol\":1366:1395  hospitallist[hospital_id] = h */\n      0x00\n      dup3\n      add\n      dup2\n      0x00\n      add\n      swap1\n      dup1\n      sload\n      tag_24\n      swap1\n      tag_25\n      jump\t// in\n    tag_24:\n      tag_26\n      swap3\n      swap2\n      swap1\n      tag_27\n      jump\t// in\n    tag_26:\n      pop\n      0x01\n      dup3\n      add\n      dup2\n      0x01\n      add\n      swap1\n      dup1\n      sload\n      tag_28\n      swap1\n      tag_25\n      jump\t// in\n    tag_28:\n      tag_29\n      swap3\n      swap2\n      swap1\n      tag_27\n      jump\t// in\n    tag_29:\n      pop\n      0x02\n      dup3\n      add\n      dup2\n      0x02\n      add\n      swap1\n      dup1\n      sload\n      tag_30\n      swap1\n      tag_25\n      jump\t// in\n    tag_30:\n      tag_31\n      swap3\n      swap2\n      swap1\n      tag_27\n      jump\t// in\n    tag_31:\n      pop\n      swap1\n      pop\n      pop\n        /* \"hospital.sol\":1030:1428  function store_doctor_details(uint256 hospital_id,string memory _hospital_name,string memory _hospital_address,string memory _hospital_spec)public isOwner {\r... */\n      pop\n      pop\n      pop\n      pop\n      jump\t// out\n        /* \"hospital.sol\":1578:1860  function retreive_hospital_details(uint256 hospital_id) public view returns (string memory,string memory,string memory){\r... */\n    tag_12:\n        /* \"hospital.sol\":1655:1668  string memory */\n      0x60\n        /* \"hospital.sol\":1669:1682  string memory */\n      dup1\n        /* \"hospital.sol\":1683:1696  string memory */\n      0x60\n        /* \"hospital.sol\":1720:1737  hospital memory h */\n      0x00\n        /* \"hospital.sol\":1740:1752  hospitallist */\n      dup1\n        /* \"hospital.sol\":1740:1765  hospitallist[hospital_id] */\n      0x00\n        /* \"hospital.sol\":1753:1764  hospital_id */\n      dup7\n        /* \"hospital.sol\":1740:1765  hospitallist[hospital_id] */\n      dup2\n      mstore\n      0x20\n      add\n      swap1\n      dup2\n      mstore\n      0x20\n      add\n      0x00\n      keccak256\n        /* \"hospital.sol\":1720:1765  hospital memory h = hospitallist[hospital_id] */\n      mload(0x40)\n      dup1\n      0x60\n      add\n      0x40\n      mstore\n      swap1\n      dup2\n      0x00\n      dup3\n      add\n      dup1\n      sload\n      tag_33\n      swap1\n      tag_25\n      jump\t// in\n    tag_33:\n      dup1\n      0x1f\n      add\n      0x20\n      dup1\n      swap2\n      div\n      mul\n      0x20\n      add\n      mload(0x40)\n      swap1\n      dup2\n      add\n      0x40\n      mstore\n      dup1\n      swap3\n      swap2\n      swap1\n      dup2\n      dup2\n      mstore\n      0x20\n      add\n      dup3\n      dup1\n      sload\n      tag_34\n      swap1\n      tag_25\n      jump\t// in\n    tag_34:\n      dup1\n      iszero\n      tag_35\n      jumpi\n      dup1\n      0x1f\n      lt\n      tag_36\n      jumpi\n      0x0100\n      dup1\n      dup4\n      sload\n      div\n      mul\n      dup4\n      mstore\n      swap2\n      0x20\n      add\n      swap2\n      jump(tag_35)\n    tag_36:\n      dup3\n      add\n      swap2\n      swap1\n      0x00\n      mstore\n      keccak256(0x00, 0x20)\n      swap1\n    tag_37:\n      dup2\n      sload\n      dup2\n      mstore\n      swap1\n      0x01\n      add\n      swap1\n      0x20\n      add\n      dup1\n      dup4\n      gt\n      tag_37\n      jumpi\n      dup3\n      swap1\n      sub\n      0x1f\n      and\n      dup3\n      add\n      swap2\n    tag_35:\n      pop\n      pop\n      pop\n      pop\n      pop\n      dup2\n      mstore\n      0x20\n      add\n      0x01\n      dup3\n      add\n      dup1\n      sload\n      tag_38\n      swap1\n      tag_25\n      jump\t// in\n    tag_38:\n      dup1\n      0x1f\n      add\n      0x20\n      dup1\n      swap2\n      div\n      mul\n      0x20\n      add\n      mload(0x40)\n      swap1\n      dup2\n      add\n      0x40\n      mstore\n      dup1\n      swap3\n      swap2\n      swap1\n      dup2\n      dup2\n      mstore\n      0x20\n      add\n      dup3\n      dup1\n      sload\n      tag_39\n      swap1\n      tag_25\n      jump\t// in\n    tag_39:\n      dup1\n      iszero\n      tag_40\n      jumpi\n      dup1\n      0x1f\n      lt\n      tag_41\n      jumpi\n      0x0100\n      dup1\n      dup4\n      sload\n      div\n      mul\n      dup4\n      mstore\n      swap2\n      0x20\n      add\n      swap2\n      jump(tag_40)\n    tag_41:\n      dup3\n      add\n      swap2\n      swap1\n      0x00\n      mstore\n      keccak256(0x00, 0x20)\n      swap1\n    tag_42:\n      dup2\n      sload\n      dup2\n      mstore\n      swap1\n      0x01\n      add\n      swap1\n      0x20\n      add\n      dup1\n      dup4\n      gt\n      tag_42\n      jumpi\n      dup3\n      swap1\n      sub\n      0x1f\n      and\n      dup3\n      add\n      swap2\n    tag_40:\n      pop\n      pop\n      pop\n      pop\n      pop\n      dup2\n      mstore\n      0x20\n      add\n      0x02\n      dup3\n      add\n      dup1\n      sload\n      tag_43\n      swap1\n      tag_25\n      jump\t// in\n    tag_43:\n      dup1\n      0x1f\n      add\n      0x20\n      dup1\n      swap2\n      div\n      mul\n      0x20\n      add\n      mload(0x40)\n      swap1\n      dup2\n      add\n      0x40\n      mstore\n      dup1\n      swap3\n      swap2\n      swap1\n      dup2\n      dup2\n      mstore\n      0x20\n      add\n      dup3\n      dup1\n      sload\n      tag_44\n      swap1\n      tag_25\n      jump\t// in\n    tag_44:\n      dup1\n      iszero\n      tag_45\n      jumpi\n      dup1\n      0x1f\n      lt\n      tag_46\n      jumpi\n      0x0100\n      dup1\n      dup4\n      sload\n      div\n      mul\n      dup4\n      mstore\n      swap2\n      0x20\n      add\n      swap2\n      jump(tag_45)\n    tag_46:\n      dup3\n      add\n      swap2\n      swap1\n      0x00\n      mstore\n      keccak256(0x00, 0x20)\n      swap1\n    tag_47:\n      dup2\n      sload\n      dup2\n      mstore\n      swap1\n      0x01\n      add\n      swap1\n      0x20\n      add\n      dup1\n      dup4\n      gt\n      tag_47\n      jumpi\n      dup3\n      swap1\n      sub\n      0x1f\n      and\n      dup3\n      add\n      swap2\n    tag_45:\n      pop\n      pop\n      pop\n      pop\n      pop\n      dup2\n      mstore\n      pop\n      pop\n      swap1\n      pop\n        /* \"hospital.sol\":1788:1789  h */\n      dup1\n        /* \"hospital.sol\":1788:1803  h.hospital_name */\n      0x00\n      add\n      mload\n        /* \"hospital.sol\":1804:1805  h */\n      dup2\n        /* \"hospital.sol\":1804:1822  h.hospital_address */\n      0x20\n      add\n      mload\n        /* \"hospital.sol\":1823:1824  h */\n      dup3\n        /* \"hospital.sol\":1823:1838  h.hospital_spec */\n      0x40\n      add\n      mload\n        /* \"hospital.sol\":1780:1839  return (h.hospital_name,h.hospital_address,h.hospital_spec) */\n      swap4\n      pop\n      swap4\n      pop\n      swap4\n      pop\n      pop\n        /* \"hospital.sol\":1578:1860  function retreive_hospital_details(uint256 hospital_id) public view returns (string memory,string memory,string memory){\r... */\n      swap2\n      swap4\n      swap1\n      swap3\n      pop\n      jump\t// out\n    tag_21:\n      dup3\n      dup1\n      sload\n      tag_48\n      swap1\n      tag_25\n      jump\t// in\n    tag_48:\n      swap1\n      0x00\n      mstore\n      keccak256(0x00, 0x20)\n      swap1\n      0x1f\n      add\n      0x20\n      swap1\n      div\n      dup2\n      add\n      swap3\n      dup3\n      tag_50\n      jumpi\n      0x00\n      dup6\n      sstore\n      jump(tag_49)\n    tag_50:\n      dup3\n      0x1f\n      lt\n      tag_51\n      jumpi\n      dup1\n      mload\n      not(0xff)\n      and\n      dup4\n      dup1\n      add\n      or\n      dup6\n      sstore\n      jump(tag_49)\n    tag_51:\n      dup3\n      dup1\n      add\n      0x01\n      add\n      dup6\n      sstore\n      dup3\n      iszero\n      tag_49\n      jumpi\n      swap2\n      dup3\n      add\n    tag_52:\n      dup3\n      dup2\n      gt\n      iszero\n      tag_53\n      jumpi\n      dup3\n      mload\n      dup3\n      sstore\n      swap2\n      0x20\n      add\n      swap2\n      swap1\n      0x01\n      add\n      swap1\n      jump(tag_52)\n    tag_53:\n    tag_49:\n      pop\n      swap1\n      pop\n      tag_54\n      swap2\n      swap1\n      tag_55\n      jump\t// in\n    tag_54:\n      pop\n      swap1\n      jump\t// out\n    tag_27:\n      dup3\n      dup1\n      sload\n      tag_56\n      swap1\n      tag_25\n      jump\t// in\n    tag_56:\n      swap1\n      0x00\n      mstore\n      keccak256(0x00, 0x20)\n      swap1\n      0x1f\n      add\n      0x20\n      swap1\n      div\n      dup2\n      add\n      swap3\n      dup3\n      tag_58\n      jumpi\n      0x00\n      dup6\n      sstore\n      jump(tag_57)\n    tag_58:\n      dup3\n      0x1f\n      lt\n      tag_59\n      jumpi\n      dup1\n      sload\n      dup6\n      sstore\n      jump(tag_57)\n    tag_59:\n      dup3\n      dup1\n      add\n      0x01\n      add\n      dup6\n      sstore\n      dup3\n      iszero\n      tag_57\n      jumpi\n      0x00\n      mstore\n      keccak256(0x00, 0x20)\n      swap2\n      0x1f\n      add\n      0x20\n      swap1\n      div\n      dup3\n      add\n    tag_60:\n      dup3\n      dup2\n      gt\n      iszero\n      tag_61\n      jumpi\n      dup3\n      sload\n      dup3\n      sstore\n      swap2\n      0x01\n      add\n      swap2\n      swap1\n      0x01\n      add\n      swap1\n      jump(tag_60)\n    tag_61:\n    tag_57:\n      pop\n      swap1\n      pop\n      tag_62\n      swap2\n      swap1\n      tag_55\n      jump\t// in\n    tag_62:\n      pop\n      swap1\n      jump\t// out\n    tag_55:\n    tag_63:\n      dup1\n      dup3\n      gt\n      iszero\n      tag_64\n      jumpi\n      0x00\n      dup2\n      0x00\n      swap1\n      sstore\n      pop\n      0x01\n      add\n      jump(tag_63)\n    tag_64:\n      pop\n      swap1\n      jump\t// out\n        /* \"#utility.yul\":7:419   */\n    tag_66:\n        /* \"#utility.yul\":85:90   */\n      0x00\n        /* \"#utility.yul\":110:176   */\n      tag_68\n        /* \"#utility.yul\":126:175   */\n      tag_69\n        /* \"#utility.yul\":168:174   */\n      dup5\n        /* \"#utility.yul\":126:175   */\n      tag_70\n      jump\t// in\n    tag_69:\n        /* \"#utility.yul\":110:176   */\n      tag_71\n      jump\t// in\n    tag_68:\n        /* \"#utility.yul\":101:176   */\n      swap1\n      pop\n        /* \"#utility.yul\":199:205   */\n      dup3\n        /* \"#utility.yul\":192:197   */\n      dup2\n        /* \"#utility.yul\":185:206   */\n      mstore\n        /* \"#utility.yul\":237:241   */\n      0x20\n        /* \"#utility.yul\":230:235   */\n      dup2\n        /* \"#utility.yul\":226:242   */\n      add\n        /* \"#utility.yul\":275:278   */\n      dup5\n        /* \"#utility.yul\":266:272   */\n      dup5\n        /* \"#utility.yul\":261:264   */\n      dup5\n        /* \"#utility.yul\":257:273   */\n      add\n        /* \"#utility.yul\":254:279   */\n      gt\n        /* \"#utility.yul\":251:363   */\n      iszero\n      tag_72\n      jumpi\n        /* \"#utility.yul\":282:361   */\n      tag_73\n      tag_74\n      jump\t// in\n    tag_73:\n        /* \"#utility.yul\":251:363   */\n    tag_72:\n        /* \"#utility.yul\":372:413   */\n      tag_75\n        /* \"#utility.yul\":406:412   */\n      dup5\n        /* \"#utility.yul\":401:404   */\n      dup3\n        /* \"#utility.yul\":396:399   */\n      dup6\n        /* \"#utility.yul\":372:413   */\n      tag_76\n      jump\t// in\n    tag_75:\n        /* \"#utility.yul\":91:419   */\n      pop\n        /* \"#utility.yul\":7:419   */\n      swap4\n      swap3\n      pop\n      pop\n      pop\n      jump\t// out\n        /* \"#utility.yul\":439:779   */\n    tag_77:\n        /* \"#utility.yul\":495:500   */\n      0x00\n        /* \"#utility.yul\":544:547   */\n      dup3\n        /* \"#utility.yul\":537:541   */\n      0x1f\n        /* \"#utility.yul\":529:535   */\n      dup4\n        /* \"#utility.yul\":525:542   */\n      add\n        /* \"#utility.yul\":521:548   */\n      slt\n        /* \"#utility.yul\":511:633   */\n      tag_79\n      jumpi\n        /* \"#utility.yul\":552:631   */\n      tag_80\n      tag_81\n      jump\t// in\n    tag_80:\n        /* \"#utility.yul\":511:633   */\n    tag_79:\n        /* \"#utility.yul\":669:675   */\n      dup2\n        /* \"#utility.yul\":656:676   */\n      calldataload\n        /* \"#utility.yul\":694:773   */\n      tag_82\n        /* \"#utility.yul\":769:772   */\n      dup5\n        /* \"#utility.yul\":761:767   */\n      dup3\n        /* \"#utility.yul\":754:758   */\n      0x20\n        /* \"#utility.yul\":746:752   */\n      dup7\n        /* \"#utility.yul\":742:759   */\n      add\n        /* \"#utility.yul\":694:773   */\n      tag_66\n      jump\t// in\n    tag_82:\n        /* \"#utility.yul\":685:773   */\n      swap2\n      pop\n        /* \"#utility.yul\":501:779   */\n      pop\n        /* \"#utility.yul\":439:779   */\n      swap3\n      swap2\n      pop\n      pop\n      jump\t// out\n        /* \"#utility.yul\":785:924   */\n    tag_83:\n        /* \"#utility.yul\":831:836   */\n      0x00\n        /* \"#utility.yul\":869:875   */\n      dup2\n        /* \"#utility.yul\":856:876   */\n      calldataload\n        /* \"#utility.yul\":847:876   */\n      swap1\n      pop\n        /* \"#utility.yul\":885:918   */\n      tag_85\n        /* \"#utility.yul\":912:917   */\n      dup2\n        /* \"#utility.yul\":885:918   */\n      tag_86\n      jump\t// in\n    tag_85:\n        /* \"#utility.yul\":785:924   */\n      swap3\n      swap2\n      pop\n      pop\n      jump\t// out\n        /* \"#utility.yul\":930:1259   */\n    tag_11:\n        /* \"#utility.yul\":989:995   */\n      0x00\n        /* \"#utility.yul\":1038:1040   */\n      0x20\n        /* \"#utility.yul\":1026:1035   */\n      dup3\n        /* \"#utility.yul\":1017:1024   */\n      dup5\n        /* \"#utility.yul\":1013:1036   */\n      sub\n        /* \"#utility.yul\":1009:1041   */\n      slt\n        /* \"#utility.yul\":1006:1125   */\n      iszero\n      tag_88\n      jumpi\n        /* \"#utility.yul\":1044:1123   */\n      tag_89\n      tag_90\n      jump\t// in\n    tag_89:\n        /* \"#utility.yul\":1006:1125   */\n    tag_88:\n        /* \"#utility.yul\":1164:1165   */\n      0x00\n        /* \"#utility.yul\":1189:1242   */\n      tag_91\n        /* \"#utility.yul\":1234:1241   */\n      dup5\n        /* \"#utility.yul\":1225:1231   */\n      dup3\n        /* \"#utility.yul\":1214:1223   */\n      dup6\n        /* \"#utility.yul\":1210:1232   */\n      add\n        /* \"#utility.yul\":1189:1242   */\n      tag_83\n      jump\t// in\n    tag_91:\n        /* \"#utility.yul\":1179:1242   */\n      swap2\n      pop\n        /* \"#utility.yul\":1135:1252   */\n      pop\n        /* \"#utility.yul\":930:1259   */\n      swap3\n      swap2\n      pop\n      pop\n      jump\t// out\n        /* \"#utility.yul\":1265:2570   */\n    tag_7:\n        /* \"#utility.yul\":1381:1387   */\n      0x00\n        /* \"#utility.yul\":1389:1395   */\n      dup1\n        /* \"#utility.yul\":1397:1403   */\n      0x00\n        /* \"#utility.yul\":1405:1411   */\n      dup1\n        /* \"#utility.yul\":1454:1457   */\n      0x80\n        /* \"#utility.yul\":1442:1451   */\n      dup6\n        /* \"#utility.yul\":1433:1440   */\n      dup8\n        /* \"#utility.yul\":1429:1452   */\n      sub\n        /* \"#utility.yul\":1425:1458   */\n      slt\n        /* \"#utility.yul\":1422:1542   */\n      iszero\n      tag_93\n      jumpi\n        /* \"#utility.yul\":1461:1540   */\n      tag_94\n      tag_90\n      jump\t// in\n    tag_94:\n        /* \"#utility.yul\":1422:1542   */\n    tag_93:\n        /* \"#utility.yul\":1581:1582   */\n      0x00\n        /* \"#utility.yul\":1606:1659   */\n      tag_95\n        /* \"#utility.yul\":1651:1658   */\n      dup8\n        /* \"#utility.yul\":1642:1648   */\n      dup3\n        /* \"#utility.yul\":1631:1640   */\n      dup9\n        /* \"#utility.yul\":1627:1649   */\n      add\n        /* \"#utility.yul\":1606:1659   */\n      tag_83\n      jump\t// in\n    tag_95:\n        /* \"#utility.yul\":1596:1659   */\n      swap5\n      pop\n        /* \"#utility.yul\":1552:1669   */\n      pop\n        /* \"#utility.yul\":1736:1738   */\n      0x20\n        /* \"#utility.yul\":1725:1734   */\n      dup6\n        /* \"#utility.yul\":1721:1739   */\n      add\n        /* \"#utility.yul\":1708:1740   */\n      calldataload\n        /* \"#utility.yul\":1767:1785   */\n      0xffffffffffffffff\n        /* \"#utility.yul\":1759:1765   */\n      dup2\n        /* \"#utility.yul\":1756:1786   */\n      gt\n        /* \"#utility.yul\":1753:1870   */\n      iszero\n      tag_96\n      jumpi\n        /* \"#utility.yul\":1789:1868   */\n      tag_97\n      tag_98\n      jump\t// in\n    tag_97:\n        /* \"#utility.yul\":1753:1870   */\n    tag_96:\n        /* \"#utility.yul\":1894:1957   */\n      tag_99\n        /* \"#utility.yul\":1949:1956   */\n      dup8\n        /* \"#utility.yul\":1940:1946   */\n      dup3\n        /* \"#utility.yul\":1929:1938   */\n      dup9\n        /* \"#utility.yul\":1925:1947   */\n      add\n        /* \"#utility.yul\":1894:1957   */\n      tag_77\n      jump\t// in\n    tag_99:\n        /* \"#utility.yul\":1884:1957   */\n      swap4\n      pop\n        /* \"#utility.yul\":1679:1967   */\n      pop\n        /* \"#utility.yul\":2034:2036   */\n      0x40\n        /* \"#utility.yul\":2023:2032   */\n      dup6\n        /* \"#utility.yul\":2019:2037   */\n      add\n        /* \"#utility.yul\":2006:2038   */\n      calldataload\n        /* \"#utility.yul\":2065:2083   */\n      0xffffffffffffffff\n        /* \"#utility.yul\":2057:2063   */\n      dup2\n        /* \"#utility.yul\":2054:2084   */\n      gt\n        /* \"#utility.yul\":2051:2168   */\n      iszero\n      tag_100\n      jumpi\n        /* \"#utility.yul\":2087:2166   */\n      tag_101\n      tag_98\n      jump\t// in\n    tag_101:\n        /* \"#utility.yul\":2051:2168   */\n    tag_100:\n        /* \"#utility.yul\":2192:2255   */\n      tag_102\n        /* \"#utility.yul\":2247:2254   */\n      dup8\n        /* \"#utility.yul\":2238:2244   */\n      dup3\n        /* \"#utility.yul\":2227:2236   */\n      dup9\n        /* \"#utility.yul\":2223:2245   */\n      add\n        /* \"#utility.yul\":2192:2255   */\n      tag_77\n      jump\t// in\n    tag_102:\n        /* \"#utility.yul\":2182:2255   */\n      swap3\n      pop\n        /* \"#utility.yul\":1977:2265   */\n      pop\n        /* \"#utility.yul\":2332:2334   */\n      0x60\n        /* \"#utility.yul\":2321:2330   */\n      dup6\n        /* \"#utility.yul\":2317:2335   */\n      add\n        /* \"#utility.yul\":2304:2336   */\n      calldataload\n        /* \"#utility.yul\":2363:2381   */\n      0xffffffffffffffff\n        /* \"#utility.yul\":2355:2361   */\n      dup2\n        /* \"#utility.yul\":2352:2382   */\n      gt\n        /* \"#utility.yul\":2349:2466   */\n      iszero\n      tag_103\n      jumpi\n        /* \"#utility.yul\":2385:2464   */\n      tag_104\n      tag_98\n      jump\t// in\n    tag_104:\n        /* \"#utility.yul\":2349:2466   */\n    tag_103:\n        /* \"#utility.yul\":2490:2553   */\n      tag_105\n        /* \"#utility.yul\":2545:2552   */\n      dup8\n        /* \"#utility.yul\":2536:2542   */\n      dup3\n        /* \"#utility.yul\":2525:2534   */\n      dup9\n        /* \"#utility.yul\":2521:2543   */\n      add\n        /* \"#utility.yul\":2490:2553   */\n      tag_77\n      jump\t// in\n    tag_105:\n        /* \"#utility.yul\":2480:2553   */\n      swap2\n      pop\n        /* \"#utility.yul\":2275:2563   */\n      pop\n        /* \"#utility.yul\":1265:2570   */\n      swap3\n      swap6\n      swap2\n      swap5\n      pop\n      swap3\n      pop\n      jump\t// out\n        /* \"#utility.yul\":2576:2940   */\n    tag_106:\n        /* \"#utility.yul\":2664:2667   */\n      0x00\n        /* \"#utility.yul\":2692:2731   */\n      tag_108\n        /* \"#utility.yul\":2725:2730   */\n      dup3\n        /* \"#utility.yul\":2692:2731   */\n      tag_109\n      jump\t// in\n    tag_108:\n        /* \"#utility.yul\":2747:2818   */\n      tag_110\n        /* \"#utility.yul\":2811:2817   */\n      dup2\n        /* \"#utility.yul\":2806:2809   */\n      dup6\n        /* \"#utility.yul\":2747:2818   */\n      tag_111\n      jump\t// in\n    tag_110:\n        /* \"#utility.yul\":2740:2818   */\n      swap4\n      pop\n        /* \"#utility.yul\":2827:2879   */\n      tag_112\n        /* \"#utility.yul\":2872:2878   */\n      dup2\n        /* \"#utility.yul\":2867:2870   */\n      dup6\n        /* \"#utility.yul\":2860:2864   */\n      0x20\n        /* \"#utility.yul\":2853:2858   */\n      dup7\n        /* \"#utility.yul\":2849:2865   */\n      add\n        /* \"#utility.yul\":2827:2879   */\n      tag_113\n      jump\t// in\n    tag_112:\n        /* \"#utility.yul\":2904:2933   */\n      tag_114\n        /* \"#utility.yul\":2926:2932   */\n      dup2\n        /* \"#utility.yul\":2904:2933   */\n      tag_115\n      jump\t// in\n    tag_114:\n        /* \"#utility.yul\":2899:2902   */\n      dup5\n        /* \"#utility.yul\":2895:2934   */\n      add\n        /* \"#utility.yul\":2888:2934   */\n      swap2\n      pop\n        /* \"#utility.yul\":2668:2940   */\n      pop\n        /* \"#utility.yul\":2576:2940   */\n      swap3\n      swap2\n      pop\n      pop\n      jump\t// out\n        /* \"#utility.yul\":2946:3312   */\n    tag_116:\n        /* \"#utility.yul\":3088:3091   */\n      0x00\n        /* \"#utility.yul\":3109:3176   */\n      tag_118\n        /* \"#utility.yul\":3173:3175   */\n      0x15\n        /* \"#utility.yul\":3168:3171   */\n      dup4\n        /* \"#utility.yul\":3109:3176   */\n      tag_111\n      jump\t// in\n    tag_118:\n        /* \"#utility.yul\":3102:3176   */\n      swap2\n      pop\n        /* \"#utility.yul\":3185:3278   */\n      tag_119\n        /* \"#utility.yul\":3274:3277   */\n      dup3\n        /* \"#utility.yul\":3185:3278   */\n      tag_120\n      jump\t// in\n    tag_119:\n        /* \"#utility.yul\":3303:3305   */\n      0x20\n        /* \"#utility.yul\":3298:3301   */\n      dup3\n        /* \"#utility.yul\":3294:3306   */\n      add\n        /* \"#utility.yul\":3287:3306   */\n      swap1\n      pop\n        /* \"#utility.yul\":2946:3312   */\n      swap2\n      swap1\n      pop\n      jump\t// out\n        /* \"#utility.yul\":3318:4033   */\n    tag_14:\n        /* \"#utility.yul\":3527:3531   */\n      0x00\n        /* \"#utility.yul\":3565:3567   */\n      0x60\n        /* \"#utility.yul\":3554:3563   */\n      dup3\n        /* \"#utility.yul\":3550:3568   */\n      add\n        /* \"#utility.yul\":3542:3568   */\n      swap1\n      pop\n        /* \"#utility.yul\":3614:3623   */\n      dup2\n        /* \"#utility.yul\":3608:3612   */\n      dup2\n        /* \"#utility.yul\":3604:3624   */\n      sub\n        /* \"#utility.yul\":3600:3601   */\n      0x00\n        /* \"#utility.yul\":3589:3598   */\n      dup4\n        /* \"#utility.yul\":3585:3602   */\n      add\n        /* \"#utility.yul\":3578:3625   */\n      mstore\n        /* \"#utility.yul\":3642:3720   */\n      tag_122\n        /* \"#utility.yul\":3715:3719   */\n      dup2\n        /* \"#utility.yul\":3706:3712   */\n      dup7\n        /* \"#utility.yul\":3642:3720   */\n      tag_106\n      jump\t// in\n    tag_122:\n        /* \"#utility.yul\":3634:3720   */\n      swap1\n      pop\n        /* \"#utility.yul\":3767:3776   */\n      dup2\n        /* \"#utility.yul\":3761:3765   */\n      dup2\n        /* \"#utility.yul\":3757:3777   */\n      sub\n        /* \"#utility.yul\":3752:3754   */\n      0x20\n        /* \"#utility.yul\":3741:3750   */\n      dup4\n        /* \"#utility.yul\":3737:3755   */\n      add\n        /* \"#utility.yul\":3730:3778   */\n      mstore\n        /* \"#utility.yul\":3795:3873   */\n      tag_123\n        /* \"#utility.yul\":3868:3872   */\n      dup2\n        /* \"#utility.yul\":3859:3865   */\n      dup6\n        /* \"#utility.yul\":3795:3873   */\n      tag_106\n      jump\t// in\n    tag_123:\n        /* \"#utility.yul\":3787:3873   */\n      swap1\n      pop\n        /* \"#utility.yul\":3920:3929   */\n      dup2\n        /* \"#utility.yul\":3914:3918   */\n      dup2\n        /* \"#utility.yul\":3910:3930   */\n      sub\n        /* \"#utility.yul\":3905:3907   */\n      0x40\n        /* \"#utility.yul\":3894:3903   */\n      dup4\n        /* \"#utility.yul\":3890:3908   */\n      add\n        /* \"#utility.yul\":3883:3931   */\n      mstore\n        /* \"#utility.yul\":3948:4026   */\n      tag_124\n        /* \"#utility.yul\":4021:4025   */\n      dup2\n        /* \"#utility.yul\":4012:4018   */\n      dup5\n        /* \"#utility.yul\":3948:4026   */\n      tag_106\n      jump\t// in\n    tag_124:\n        /* \"#utility.yul\":3940:4026   */\n      swap1\n      pop\n        /* \"#utility.yul\":3318:4033   */\n      swap5\n      swap4\n      pop\n      pop\n      pop\n      pop\n      jump\t// out\n        /* \"#utility.yul\":4039:4458   */\n    tag_18:\n        /* \"#utility.yul\":4205:4209   */\n      0x00\n        /* \"#utility.yul\":4243:4245   */\n      0x20\n        /* \"#utility.yul\":4232:4241   */\n      dup3\n        /* \"#utility.yul\":4228:4246   */\n      add\n        /* \"#utility.yul\":4220:4246   */\n      swap1\n      pop\n        /* \"#utility.yul\":4292:4301   */\n      dup2\n        /* \"#utility.yul\":4286:4290   */\n      dup2\n        /* \"#utility.yul\":4282:4302   */\n      sub\n        /* \"#utility.yul\":4278:4279   */\n      0x00\n        /* \"#utility.yul\":4267:4276   */\n      dup4\n        /* \"#utility.yul\":4263:4280   */\n      add\n        /* \"#utility.yul\":4256:4303   */\n      mstore\n        /* \"#utility.yul\":4320:4451   */\n      tag_126\n        /* \"#utility.yul\":4446:4450   */\n      dup2\n        /* \"#utility.yul\":4320:4451   */\n      tag_116\n      jump\t// in\n    tag_126:\n        /* \"#utility.yul\":4312:4451   */\n      swap1\n      pop\n        /* \"#utility.yul\":4039:4458   */\n      swap2\n      swap1\n      pop\n      jump\t// out\n        /* \"#utility.yul\":4464:4593   */\n    tag_71:\n        /* \"#utility.yul\":4498:4504   */\n      0x00\n        /* \"#utility.yul\":4525:4545   */\n      tag_128\n      tag_129\n      jump\t// in\n    tag_128:\n        /* \"#utility.yul\":4515:4545   */\n      swap1\n      pop\n        /* \"#utility.yul\":4554:4587   */\n      tag_130\n        /* \"#utility.yul\":4582:4586   */\n      dup3\n        /* \"#utility.yul\":4574:4580   */\n      dup3\n        /* \"#utility.yul\":4554:4587   */\n      tag_131\n      jump\t// in\n    tag_130:\n        /* \"#utility.yul\":4464:4593   */\n      swap2\n      swap1\n      pop\n      jump\t// out\n        /* \"#utility.yul\":4599:4674   */\n    tag_129:\n        /* \"#utility.yul\":4632:4638   */\n      0x00\n        /* \"#utility.yul\":4665:4667   */\n      0x40\n        /* \"#utility.yul\":4659:4668   */\n      mload\n        /* \"#utility.yul\":4649:4668   */\n      swap1\n      pop\n        /* \"#utility.yul\":4599:4674   */\n      swap1\n      jump\t// out\n        /* \"#utility.yul\":4680:4988   */\n    tag_70:\n        /* \"#utility.yul\":4742:4746   */\n      0x00\n        /* \"#utility.yul\":4832:4850   */\n      0xffffffffffffffff\n        /* \"#utility.yul\":4824:4830   */\n      dup3\n        /* \"#utility.yul\":4821:4851   */\n      gt\n        /* \"#utility.yul\":4818:4874   */\n      iszero\n      tag_134\n      jumpi\n        /* \"#utility.yul\":4854:4872   */\n      tag_135\n      tag_136\n      jump\t// in\n    tag_135:\n        /* \"#utility.yul\":4818:4874   */\n    tag_134:\n        /* \"#utility.yul\":4892:4921   */\n      tag_137\n        /* \"#utility.yul\":4914:4920   */\n      dup3\n        /* \"#utility.yul\":4892:4921   */\n      tag_115\n      jump\t// in\n    tag_137:\n        /* \"#utility.yul\":4884:4921   */\n      swap1\n      pop\n        /* \"#utility.yul\":4976:4980   */\n      0x20\n        /* \"#utility.yul\":4970:4974   */\n      dup2\n        /* \"#utility.yul\":4966:4981   */\n      add\n        /* \"#utility.yul\":4958:4981   */\n      swap1\n      pop\n        /* \"#utility.yul\":4680:4988   */\n      swap2\n      swap1\n      pop\n      jump\t// out\n        /* \"#utility.yul\":4994:5093   */\n    tag_109:\n        /* \"#utility.yul\":5046:5052   */\n      0x00\n        /* \"#utility.yul\":5080:5085   */\n      dup2\n        /* \"#utility.yul\":5074:5086   */\n      mload\n        /* \"#utility.yul\":5064:5086   */\n      swap1\n      pop\n        /* \"#utility.yul\":4994:5093   */\n      swap2\n      swap1\n      pop\n      jump\t// out\n        /* \"#utility.yul\":5099:5268   */\n    tag_111:\n        /* \"#utility.yul\":5183:5194   */\n      0x00\n        /* \"#utility.yul\":5217:5223   */\n      dup3\n        /* \"#utility.yul\":5212:5215   */\n      dup3\n        /* \"#utility.yul\":5205:5224   */\n      mstore\n        /* \"#utility.yul\":5257:5261   */\n      0x20\n        /* \"#utility.yul\":5252:5255   */\n      dup3\n        /* \"#utility.yul\":5248:5262   */\n      add\n        /* \"#utility.yul\":5233:5262   */\n      swap1\n      pop\n        /* \"#utility.yul\":5099:5268   */\n      swap3\n      swap2\n      pop\n      pop\n      jump\t// out\n        /* \"#utility.yul\":5274:5351   */\n    tag_140:\n        /* \"#utility.yul\":5311:5318   */\n      0x00\n        /* \"#utility.yul\":5340:5345   */\n      dup2\n        /* \"#utility.yul\":5329:5345   */\n      swap1\n      pop\n        /* \"#utility.yul\":5274:5351   */\n      swap2\n      swap1\n      pop\n      jump\t// out\n        /* \"#utility.yul\":5357:5511   */\n    tag_76:\n        /* \"#utility.yul\":5441:5447   */\n      dup3\n        /* \"#utility.yul\":5436:5439   */\n      dup2\n        /* \"#utility.yul\":5431:5434   */\n      dup4\n        /* \"#utility.yul\":5418:5448   */\n      calldatacopy\n        /* \"#utility.yul\":5503:5504   */\n      0x00\n        /* \"#utility.yul\":5494:5500   */\n      dup4\n        /* \"#utility.yul\":5489:5492   */\n      dup4\n        /* \"#utility.yul\":5485:5501   */\n      add\n        /* \"#utility.yul\":5478:5505   */\n      mstore\n        /* \"#utility.yul\":5357:5511   */\n      pop\n      pop\n      pop\n      jump\t// out\n        /* \"#utility.yul\":5517:5824   */\n    tag_113:\n        /* \"#utility.yul\":5585:5586   */\n      0x00\n        /* \"#utility.yul\":5595:5708   */\n    tag_144:\n        /* \"#utility.yul\":5609:5615   */\n      dup4\n        /* \"#utility.yul\":5606:5607   */\n      dup2\n        /* \"#utility.yul\":5603:5616   */\n      lt\n        /* \"#utility.yul\":5595:5708   */\n      iszero\n      tag_146\n      jumpi\n        /* \"#utility.yul\":5694:5695   */\n      dup1\n        /* \"#utility.yul\":5689:5692   */\n      dup3\n        /* \"#utility.yul\":5685:5696   */\n      add\n        /* \"#utility.yul\":5679:5697   */\n      mload\n        /* \"#utility.yul\":5675:5676   */\n      dup2\n        /* \"#utility.yul\":5670:5673   */\n      dup5\n        /* \"#utility.yul\":5666:5677   */\n      add\n        /* \"#utility.yul\":5659:5698   */\n      mstore\n        /* \"#utility.yul\":5631:5633   */\n      0x20\n        /* \"#utility.yul\":5628:5629   */\n      dup2\n        /* \"#utility.yul\":5624:5634   */\n      add\n        /* \"#utility.yul\":5619:5634   */\n      swap1\n      pop\n        /* \"#utility.yul\":5595:5708   */\n      jump(tag_144)\n    tag_146:\n        /* \"#utility.yul\":5726:5732   */\n      dup4\n        /* \"#utility.yul\":5723:5724   */\n      dup2\n        /* \"#utility.yul\":5720:5733   */\n      gt\n        /* \"#utility.yul\":5717:5818   */\n      iszero\n      tag_147\n      jumpi\n        /* \"#utility.yul\":5806:5807   */\n      0x00\n        /* \"#utility.yul\":5797:5803   */\n      dup5\n        /* \"#utility.yul\":5792:5795   */\n      dup5\n        /* \"#utility.yul\":5788:5804   */\n      add\n        /* \"#utility.yul\":5781:5808   */\n      mstore\n        /* \"#utility.yul\":5717:5818   */\n    tag_147:\n        /* \"#utility.yul\":5566:5824   */\n      pop\n        /* \"#utility.yul\":5517:5824   */\n      pop\n      pop\n      pop\n      jump\t// out\n        /* \"#utility.yul\":5830:6150   */\n    tag_25:\n        /* \"#utility.yul\":5874:5880   */\n      0x00\n        /* \"#utility.yul\":5911:5912   */\n      0x02\n        /* \"#utility.yul\":5905:5909   */\n      dup3\n        /* \"#utility.yul\":5901:5913   */\n      div\n        /* \"#utility.yul\":5891:5913   */\n      swap1\n      pop\n        /* \"#utility.yul\":5958:5959   */\n      0x01\n        /* \"#utility.yul\":5952:5956   */\n      dup3\n        /* \"#utility.yul\":5948:5960   */\n      and\n        /* \"#utility.yul\":5979:5997   */\n      dup1\n        /* \"#utility.yul\":5969:6050   */\n      tag_149\n      jumpi\n        /* \"#utility.yul\":6035:6039   */\n      0x7f\n        /* \"#utility.yul\":6027:6033   */\n      dup3\n        /* \"#utility.yul\":6023:6040   */\n      and\n        /* \"#utility.yul\":6013:6040   */\n      swap2\n      pop\n        /* \"#utility.yul\":5969:6050   */\n    tag_149:\n        /* \"#utility.yul\":6097:6099   */\n      0x20\n        /* \"#utility.yul\":6089:6095   */\n      dup3\n        /* \"#utility.yul\":6086:6100   */\n      lt\n        /* \"#utility.yul\":6066:6084   */\n      dup2\n        /* \"#utility.yul\":6063:6101   */\n      eq\n        /* \"#utility.yul\":6060:6144   */\n      iszero\n      tag_150\n      jumpi\n        /* \"#utility.yul\":6116:6134   */\n      tag_151\n      tag_152\n      jump\t// in\n    tag_151:\n        /* \"#utility.yul\":6060:6144   */\n    tag_150:\n        /* \"#utility.yul\":5881:6150   */\n      pop\n        /* \"#utility.yul\":5830:6150   */\n      swap2\n      swap1\n      pop\n      jump\t// out\n        /* \"#utility.yul\":6156:6437   */\n    tag_131:\n        /* \"#utility.yul\":6239:6266   */\n      tag_154\n        /* \"#utility.yul\":6261:6265   */\n      dup3\n        /* \"#utility.yul\":6239:6266   */\n      tag_115\n      jump\t// in\n    tag_154:\n        /* \"#utility.yul\":6231:6237   */\n      dup2\n        /* \"#utility.yul\":6227:6267   */\n      add\n        /* \"#utility.yul\":6369:6375   */\n      dup2\n        /* \"#utility.yul\":6357:6367   */\n      dup2\n        /* \"#utility.yul\":6354:6376   */\n      lt\n        /* \"#utility.yul\":6333:6351   */\n      0xffffffffffffffff\n        /* \"#utility.yul\":6321:6331   */\n      dup3\n        /* \"#utility.yul\":6318:6352   */\n      gt\n        /* \"#utility.yul\":6315:6377   */\n      or\n        /* \"#utility.yul\":6312:6400   */\n      iszero\n      tag_155\n      jumpi\n        /* \"#utility.yul\":6380:6398   */\n      tag_156\n      tag_136\n      jump\t// in\n    tag_156:\n        /* \"#utility.yul\":6312:6400   */\n    tag_155:\n        /* \"#utility.yul\":6420:6430   */\n      dup1\n        /* \"#utility.yul\":6416:6418   */\n      0x40\n        /* \"#utility.yul\":6409:6431   */\n      mstore\n        /* \"#utility.yul\":6199:6437   */\n      pop\n        /* \"#utility.yul\":6156:6437   */\n      pop\n      pop\n      jump\t// out\n        /* \"#utility.yul\":6443:6623   */\n    tag_152:\n        /* \"#utility.yul\":6491:6568   */\n      0x4e487b7100000000000000000000000000000000000000000000000000000000\n        /* \"#utility.yul\":6488:6489   */\n      0x00\n        /* \"#utility.yul\":6481:6569   */\n      mstore\n        /* \"#utility.yul\":6588:6592   */\n      0x22\n        /* \"#utility.yul\":6585:6586   */\n      0x04\n        /* \"#utility.yul\":6578:6593   */\n      mstore\n        /* \"#utility.yul\":6612:6616   */\n      0x24\n        /* \"#utility.yul\":6609:6610   */\n      0x00\n        /* \"#utility.yul\":6602:6617   */\n      revert\n        /* \"#utility.yul\":6629:6809   */\n    tag_136:\n        /* \"#utility.yul\":6677:6754   */\n      0x4e487b7100000000000000000000000000000000000000000000000000000000\n        /* \"#utility.yul\":6674:6675   */\n      0x00\n        /* \"#utility.yul\":6667:6755   */\n      mstore\n        /* \"#utility.yul\":6774:6778   */\n      0x41\n        /* \"#utility.yul\":6771:6772   */\n      0x04\n        /* \"#utility.yul\":6764:6779   */\n      mstore\n        /* \"#utility.yul\":6798:6802   */\n      0x24\n        /* \"#utility.yul\":6795:6796   */\n      0x00\n        /* \"#utility.yul\":6788:6803   */\n      revert\n        /* \"#utility.yul\":6815:6932   */\n    tag_81:\n        /* \"#utility.yul\":6924:6925   */\n      0x00\n        /* \"#utility.yul\":6921:6922   */\n      dup1\n        /* \"#utility.yul\":6914:6926   */\n      revert\n        /* \"#utility.yul\":6938:7055   */\n    tag_74:\n        /* \"#utility.yul\":7047:7048   */\n      0x00\n        /* \"#utility.yul\":7044:7045   */\n      dup1\n        /* \"#utility.yul\":7037:7049   */\n      revert\n        /* \"#utility.yul\":7061:7178   */\n    tag_98:\n        /* \"#utility.yul\":7170:7171   */\n      0x00\n        /* \"#utility.yul\":7167:7168   */\n      dup1\n        /* \"#utility.yul\":7160:7172   */\n      revert\n        /* \"#utility.yul\":7184:7301   */\n    tag_90:\n        /* \"#utility.yul\":7293:7294   */\n      0x00\n        /* \"#utility.yul\":7290:7291   */\n      dup1\n        /* \"#utility.yul\":7283:7295   */\n      revert\n        /* \"#utility.yul\":7307:7409   */\n    tag_115:\n        /* \"#utility.yul\":7348:7354   */\n      0x00\n        /* \"#utility.yul\":7399:7401   */\n      0x1f\n        /* \"#utility.yul\":7395:7402   */\n      not\n        /* \"#utility.yul\":7390:7392   */\n      0x1f\n        /* \"#utility.yul\":7383:7388   */\n      dup4\n        /* \"#utility.yul\":7379:7393   */\n      add\n        /* \"#utility.yul\":7375:7403   */\n      and\n        /* \"#utility.yul\":7365:7403   */\n      swap1\n      pop\n        /* \"#utility.yul\":7307:7409   */\n      swap2\n      swap1\n      pop\n      jump\t// out\n        /* \"#utility.yul\":7415:7586   */\n    tag_120:\n        /* \"#utility.yul\":7555:7578   */\n      0x416363657373206973206e6f7420616c6c6f7765640000000000000000000000\n        /* \"#utility.yul\":7551:7552   */\n      0x00\n        /* \"#utility.yul\":7543:7549   */\n      dup3\n        /* \"#utility.yul\":7539:7553   */\n      add\n        /* \"#utility.yul\":7532:7579   */\n      mstore\n        /* \"#utility.yul\":7415:7586   */\n      pop\n      jump\t// out\n        /* \"#utility.yul\":7592:7714   */\n    tag_86:\n        /* \"#utility.yul\":7665:7689   */\n      tag_166\n        /* \"#utility.yul\":7683:7688   */\n      dup2\n        /* \"#utility.yul\":7665:7689   */\n      tag_140\n      jump\t// in\n    tag_166:\n        /* \"#utility.yul\":7658:7663   */\n      dup2\n        /* \"#utility.yul\":7655:7690   */\n      eq\n        /* \"#utility.yul\":7645:7708   */\n      tag_167\n      jumpi\n        /* \"#utility.yul\":7704:7705   */\n      0x00\n        /* \"#utility.yul\":7701:7702   */\n      dup1\n        /* \"#utility.yul\":7694:7706   */\n      revert\n        /* \"#utility.yul\":7645:7708   */\n    tag_167:\n        /* \"#utility.yul\":7592:7714   */\n      pop\n      jump\t// out\n\n    auxdata: 0xa2646970667358221220eabad5de30ce5f49f780c192aeda2f0b55e94e11df22fad40e6ffa333cef408d64736f6c63430008070033\n}\n",
				"bytecode": {
					"linkReferences": {},
					"object": "608060405234801561001057600080fd5b5033600460006101000a81548173ffffffffffffffffffffffffffffffffffffffff021916908373ffffffffffffffffffffffffffffffffffffffff16021790555061095b806100616000396000f3fe608060405234801561001057600080fd5b50600436106100365760003560e01c80631ae73fe11461003b578063c1a4cfb614610057575b600080fd5b610055600480360381019061005091906105be565b610089565b005b610071600480360381019061006c9190610591565b6101e3565b604051610080939291906106d5565b60405180910390f35b600460009054906101000a900473ffffffffffffffffffffffffffffffffffffffff1673ffffffffffffffffffffffffffffffffffffffff163373ffffffffffffffffffffffffffffffffffffffff1614610119576040517f08c379a000000000000000000000000000000000000000000000000000000000815260040161011090610721565b60405180910390fd5b82600160000190805190602001906101329291906103dc565b508160018001908051906020019061014b9291906103dc565b5080600160020190805190602001906101659291906103dc565b506001600080868152602001908152602001600020600082018160000190805461018e906107ff565b610199929190610462565b5060018201816001019080546101ae906107ff565b6101b9929190610462565b5060028201816002019080546101ce906107ff565b6101d9929190610462565b5090505050505050565b60608060606000806000868152602001908152602001600020604051806060016040529081600082018054610217906107ff565b80601f0160208091040260200160405190810160405280929190818152602001828054610243906107ff565b80156102905780601f1061026557610100808354040283529160200191610290565b820191906000526020600020905b81548152906001019060200180831161027357829003601f168201915b505050505081526020016001820180546102a9906107ff565b80601f01602080910402602001604051908101604052809291908181526020018280546102d5906107ff565b80156103225780601f106102f757610100808354040283529160200191610322565b820191906000526020600020905b81548152906001019060200180831161030557829003601f168201915b5050505050815260200160028201805461033b906107ff565b80601f0160208091040260200160405190810160405280929190818152602001828054610367906107ff565b80156103b45780601f10610389576101008083540402835291602001916103b4565b820191906000526020600020905b81548152906001019060200180831161039757829003601f168201915b5050505050815250509050806000015181602001518260400151935093509350509193909250565b8280546103e8906107ff565b90600052602060002090601f01602090048101928261040a5760008555610451565b82601f1061042357805160ff1916838001178555610451565b82800160010185558215610451579182015b82811115610450578251825591602001919060010190610435565b5b50905061045e91906104ef565b5090565b82805461046e906107ff565b90600052602060002090601f01602090048101928261049057600085556104de565b82601f106104a157805485556104de565b828001600101855582156104de57600052602060002091601f016020900482015b828111156104dd5782548255916001019190600101906104c2565b5b5090506104eb91906104ef565b5090565b5b808211156105085760008160009055506001016104f0565b5090565b600061051f61051a84610766565b610741565b90508281526020810184848401111561053b5761053a6108c5565b5b6105468482856107bd565b509392505050565b600082601f830112610563576105626108c0565b5b813561057384826020860161050c565b91505092915050565b60008135905061058b8161090e565b92915050565b6000602082840312156105a7576105a66108cf565b5b60006105b58482850161057c565b91505092915050565b600080600080608085870312156105d8576105d76108cf565b5b60006105e68782880161057c565b945050602085013567ffffffffffffffff811115610607576106066108ca565b5b6106138782880161054e565b935050604085013567ffffffffffffffff811115610634576106336108ca565b5b6106408782880161054e565b925050606085013567ffffffffffffffff811115610661576106606108ca565b5b61066d8782880161054e565b91505092959194509250565b600061068482610797565b61068e81856107a2565b935061069e8185602086016107cc565b6106a7816108d4565b840191505092915050565b60006106bf6015836107a2565b91506106ca826108e5565b602082019050919050565b600060608201905081810360008301526106ef8186610679565b905081810360208301526107038185610679565b905081810360408301526107178184610679565b9050949350505050565b6000602082019050818103600083015261073a816106b2565b9050919050565b600061074b61075c565b90506107578282610831565b919050565b6000604051905090565b600067ffffffffffffffff82111561078157610780610891565b5b61078a826108d4565b9050602081019050919050565b600081519050919050565b600082825260208201905092915050565b6000819050919050565b82818337600083830152505050565b60005b838110156107ea5780820151818401526020810190506107cf565b838111156107f9576000848401525b50505050565b6000600282049050600182168061081757607f821691505b6020821081141561082b5761082a610862565b5b50919050565b61083a826108d4565b810181811067ffffffffffffffff8211171561085957610858610891565b5b80604052505050565b7f4e487b7100000000000000000000000000000000000000000000000000000000600052602260045260246000fd5b7f4e487b7100000000000000000000000000000000000000000000000000000000600052604160045260246000fd5b600080fd5b600080fd5b600080fd5b600080fd5b6000601f19601f8301169050919050565b7f416363657373206973206e6f7420616c6c6f7765640000000000000000000000600082015250565b610917816107b3565b811461092257600080fd5b5056fea2646970667358221220eabad5de30ce5f49f780c192aeda2f0b55e94e11df22fad40e6ffa333cef408d64736f6c63430008070033",
					"opcodes": "PUSH1 0x80 PUSH1 0x40 MSTORE CALLVALUE DUP1 ISZERO PUSH2 0x10 JUMPI PUSH1 0x0 DUP1 REVERT JUMPDEST POP CALLER PUSH1 0x4 PUSH1 0x0 PUSH2 0x100 EXP DUP2 SLOAD DUP2 PUSH20 0xFFFFFFFFFFFFFFFFFFFFFFFFFFFFFFFFFFFFFFFF MUL NOT AND SWAP1 DUP4 PUSH20 0xFFFFFFFFFFFFFFFFFFFFFFFFFFFFFFFFFFFFFFFF AND MUL OR SWAP1 SSTORE POP PUSH2 0x95B DUP1 PUSH2 0x61 PUSH1 0x0 CODECOPY PUSH1 0x0 RETURN INVALID PUSH1 0x80 PUSH1 0x40 MSTORE CALLVALUE DUP1 ISZERO PUSH2 0x10 JUMPI PUSH1 0x0 DUP1 REVERT JUMPDEST POP PUSH1 0x4 CALLDATASIZE LT PUSH2 0x36 JUMPI PUSH1 0x0 CALLDATALOAD PUSH1 0xE0 SHR DUP1 PUSH4 0x1AE73FE1 EQ PUSH2 0x3B JUMPI DUP1 PUSH4 0xC1A4CFB6 EQ PUSH2 0x57 JUMPI JUMPDEST PUSH1 0x0 DUP1 REVERT JUMPDEST PUSH2 0x55 PUSH1 0x4 DUP1 CALLDATASIZE SUB DUP2 ADD SWAP1 PUSH2 0x50 SWAP2 SWAP1 PUSH2 0x5BE JUMP JUMPDEST PUSH2 0x89 JUMP JUMPDEST STOP JUMPDEST PUSH2 0x71 PUSH1 0x4 DUP1 CALLDATASIZE SUB DUP2 ADD SWAP1 PUSH2 0x6C SWAP2 SWAP1 PUSH2 0x591 JUMP JUMPDEST PUSH2 0x1E3 JUMP JUMPDEST PUSH1 0x40 MLOAD PUSH2 0x80 SWAP4 SWAP3 SWAP2 SWAP1 PUSH2 0x6D5 JUMP JUMPDEST PUSH1 0x40 MLOAD DUP1 SWAP2 SUB SWAP1 RETURN JUMPDEST PUSH1 0x4 PUSH1 0x0 SWAP1 SLOAD SWAP1 PUSH2 0x100 EXP SWAP1 DIV PUSH20 0xFFFFFFFFFFFFFFFFFFFFFFFFFFFFFFFFFFFFFFFF AND PUSH20 0xFFFFFFFFFFFFFFFFFFFFFFFFFFFFFFFFFFFFFFFF AND CALLER PUSH20 0xFFFFFFFFFFFFFFFFFFFFFFFFFFFFFFFFFFFFFFFF AND EQ PUSH2 0x119 JUMPI PUSH1 0x40 MLOAD PUSH32 0x8C379A000000000000000000000000000000000000000000000000000000000 DUP2 MSTORE PUSH1 0x4 ADD PUSH2 0x110 SWAP1 PUSH2 0x721 JUMP JUMPDEST PUSH1 0x40 MLOAD DUP1 SWAP2 SUB SWAP1 REVERT JUMPDEST DUP3 PUSH1 0x1 PUSH1 0x0 ADD SWAP1 DUP1 MLOAD SWAP1 PUSH1 0x20 ADD SWAP1 PUSH2 0x132 SWAP3 SWAP2 SWAP1 PUSH2 0x3DC JUMP JUMPDEST POP DUP2 PUSH1 0x1 DUP1 ADD SWAP1 DUP1 MLOAD SWAP1 PUSH1 0x20 ADD SWAP1 PUSH2 0x14B SWAP3 SWAP2 SWAP1 PUSH2 0x3DC JUMP JUMPDEST POP DUP1 PUSH1 0x1 PUSH1 0x2 ADD SWAP1 DUP1 MLOAD SWAP1 PUSH1 0x20 ADD SWAP1 PUSH2 0x165 SWAP3 SWAP2 SWAP1 PUSH2 0x3DC JUMP JUMPDEST POP PUSH1 0x1 PUSH1 0x0 DUP1 DUP7 DUP2 MSTORE PUSH1 0x20 ADD SWAP1 DUP2 MSTORE PUSH1 0x20 ADD PUSH1 0x0 KECCAK256 PUSH1 0x0 DUP3 ADD DUP2 PUSH1 0x0 ADD SWAP1 DUP1 SLOAD PUSH2 0x18E SWAP1 PUSH2 0x7FF JUMP JUMPDEST PUSH2 0x199 SWAP3 SWAP2 SWAP1 PUSH2 0x462 JUMP JUMPDEST POP PUSH1 0x1 DUP3 ADD DUP2 PUSH1 0x1 ADD SWAP1 DUP1 SLOAD PUSH2 0x1AE SWAP1 PUSH2 0x7FF JUMP JUMPDEST PUSH2 0x1B9 SWAP3 SWAP2 SWAP1 PUSH2 0x462 JUMP JUMPDEST POP PUSH1 0x2 DUP3 ADD DUP2 PUSH1 0x2 ADD SWAP1 DUP1 SLOAD PUSH2 0x1CE SWAP1 PUSH2 0x7FF JUMP JUMPDEST PUSH2 0x1D9 SWAP3 SWAP2 SWAP1 PUSH2 0x462 JUMP JUMPDEST POP SWAP1 POP POP POP POP POP POP JUMP JUMPDEST PUSH1 0x60 DUP1 PUSH1 0x60 PUSH1 0x0 DUP1 PUSH1 0x0 DUP7 DUP2 MSTORE PUSH1 0x20 ADD SWAP1 DUP2 MSTORE PUSH1 0x20 ADD PUSH1 0x0 KECCAK256 PUSH1 0x40 MLOAD DUP1 PUSH1 0x60 ADD PUSH1 0x40 MSTORE SWAP1 DUP2 PUSH1 0x0 DUP3 ADD DUP1 SLOAD PUSH2 0x217 SWAP1 PUSH2 0x7FF JUMP JUMPDEST DUP1 PUSH1 0x1F ADD PUSH1 0x20 DUP1 SWAP2 DIV MUL PUSH1 0x20 ADD PUSH1 0x40 MLOAD SWAP1 DUP2 ADD PUSH1 0x40 MSTORE DUP1 SWAP3 SWAP2 SWAP1 DUP2 DUP2 MSTORE PUSH1 0x20 ADD DUP3 DUP1 SLOAD PUSH2 0x243 SWAP1 PUSH2 0x7FF JUMP JUMPDEST DUP1 ISZERO PUSH2 0x290 JUMPI DUP1 PUSH1 0x1F LT PUSH2 0x265 JUMPI PUSH2 0x100 DUP1 DUP4 SLOAD DIV MUL DUP4 MSTORE SWAP2 PUSH1 0x20 ADD SWAP2 PUSH2 0x290 JUMP JUMPDEST DUP3 ADD SWAP2 SWAP1 PUSH1 0x0 MSTORE PUSH1 0x20 PUSH1 0x0 KECCAK256 SWAP1 JUMPDEST DUP2 SLOAD DUP2 MSTORE SWAP1 PUSH1 0x1 ADD SWAP1 PUSH1 0x20 ADD DUP1 DUP4 GT PUSH2 0x273 JUMPI DUP3 SWAP1 SUB PUSH1 0x1F AND DUP3 ADD SWAP2 JUMPDEST POP POP POP POP POP DUP2 MSTORE PUSH1 0x20 ADD PUSH1 0x1 DUP3 ADD DUP1 SLOAD PUSH2 0x2A9 SWAP1 PUSH2 0x7FF JUMP JUMPDEST DUP1 PUSH1 0x1F ADD PUSH1 0x20 DUP1 SWAP2 DIV MUL PUSH1 0x20 ADD PUSH1 0x40 MLOAD SWAP1 DUP2 ADD PUSH1 0x40 MSTORE DUP1 SWAP3 SWAP2 SWAP1 DUP2 DUP2 MSTORE PUSH1 0x20 ADD DUP3 DUP1 SLOAD PUSH2 0x2D5 SWAP1 PUSH2 0x7FF JUMP JUMPDEST DUP1 ISZERO PUSH2 0x322 JUMPI DUP1 PUSH1 0x1F LT PUSH2 0x2F7 JUMPI PUSH2 0x100 DUP1 DUP4 SLOAD DIV MUL DUP4 MSTORE SWAP2 PUSH1 0x20 ADD SWAP2 PUSH2 0x322 JUMP JUMPDEST DUP3 ADD SWAP2 SWAP1 PUSH1 0x0 MSTORE PUSH1 0x20 PUSH1 0x0 KECCAK256 SWAP1 JUMPDEST DUP2 SLOAD DUP2 MSTORE SWAP1 PUSH1 0x1 ADD SWAP1 PUSH1 0x20 ADD DUP1 DUP4 GT PUSH2 0x305 JUMPI DUP3 SWAP1 SUB PUSH1 0x1F AND DUP3 ADD SWAP2 JUMPDEST POP POP POP POP POP DUP2 MSTORE PUSH1 0x20 ADD PUSH1 0x2 DUP3 ADD DUP1 SLOAD PUSH2 0x33B SWAP1 PUSH2 0x7FF JUMP JUMPDEST DUP1 PUSH1 0x1F ADD PUSH1 0x20 DUP1 SWAP2 DIV MUL PUSH1 0x20 ADD PUSH1 0x40 MLOAD SWAP1 DUP2 ADD PUSH1 0x40 MSTORE DUP1 SWAP3 SWAP2 SWAP1 DUP2 DUP2 MSTORE PUSH1 0x20 ADD DUP3 DUP1 SLOAD PUSH2 0x367 SWAP1 PUSH2 0x7FF JUMP JUMPDEST DUP1 ISZERO PUSH2 0x3B4 JUMPI DUP1 PUSH1 0x1F LT PUSH2 0x389 JUMPI PUSH2 0x100 DUP1 DUP4 SLOAD DIV MUL DUP4 MSTORE SWAP2 PUSH1 0x20 ADD SWAP2 PUSH2 0x3B4 JUMP JUMPDEST DUP3 ADD SWAP2 SWAP1 PUSH1 0x0 MSTORE PUSH1 0x20 PUSH1 0x0 KECCAK256 SWAP1 JUMPDEST DUP2 SLOAD DUP2 MSTORE SWAP1 PUSH1 0x1 ADD SWAP1 PUSH1 0x20 ADD DUP1 DUP4 GT PUSH2 0x397 JUMPI DUP3 SWAP1 SUB PUSH1 0x1F AND DUP3 ADD SWAP2 JUMPDEST POP POP POP POP POP DUP2 MSTORE POP POP SWAP1 POP DUP1 PUSH1 0x0 ADD MLOAD DUP2 PUSH1 0x20 ADD MLOAD DUP3 PUSH1 0x40 ADD MLOAD SWAP4 POP SWAP4 POP SWAP4 POP POP SWAP2 SWAP4 SWAP1 SWAP3 POP JUMP JUMPDEST DUP3 DUP1 SLOAD PUSH2 0x3E8 SWAP1 PUSH2 0x7FF JUMP JUMPDEST SWAP1 PUSH1 0x0 MSTORE PUSH1 0x20 PUSH1 0x0 KECCAK256 SWAP1 PUSH1 0x1F ADD PUSH1 0x20 SWAP1 DIV DUP2 ADD SWAP3 DUP3 PUSH2 0x40A JUMPI PUSH1 0x0 DUP6 SSTORE PUSH2 0x451 JUMP JUMPDEST DUP3 PUSH1 0x1F LT PUSH2 0x423 JUMPI DUP1 MLOAD PUSH1 0xFF NOT AND DUP4 DUP1 ADD OR DUP6 SSTORE PUSH2 0x451 JUMP JUMPDEST DUP3 DUP1 ADD PUSH1 0x1 ADD DUP6 SSTORE DUP3 ISZERO PUSH2 0x451 JUMPI SWAP2 DUP3 ADD JUMPDEST DUP3 DUP2 GT ISZERO PUSH2 0x450 JUMPI DUP3 MLOAD DUP3 SSTORE SWAP2 PUSH1 0x20 ADD SWAP2 SWAP1 PUSH1 0x1 ADD SWAP1 PUSH2 0x435 JUMP JUMPDEST JUMPDEST POP SWAP1 POP PUSH2 0x45E SWAP2 SWAP1 PUSH2 0x4EF JUMP JUMPDEST POP SWAP1 JUMP JUMPDEST DUP3 DUP1 SLOAD PUSH2 0x46E SWAP1 PUSH2 0x7FF JUMP JUMPDEST SWAP1 PUSH1 0x0 MSTORE PUSH1 0x20 PUSH1 0x0 KECCAK256 SWAP1 PUSH1 0x1F ADD PUSH1 0x20 SWAP1 DIV DUP2 ADD SWAP3 DUP3 PUSH2 0x490 JUMPI PUSH1 0x0 DUP6 SSTORE PUSH2 0x4DE JUMP JUMPDEST DUP3 PUSH1 0x1F LT PUSH2 0x4A1 JUMPI DUP1 SLOAD DUP6 SSTORE PUSH2 0x4DE JUMP JUMPDEST DUP3 DUP1 ADD PUSH1 0x1 ADD DUP6 SSTORE DUP3 ISZERO PUSH2 0x4DE JUMPI PUSH1 0x0 MSTORE PUSH1 0x20 PUSH1 0x0 KECCAK256 SWAP2 PUSH1 0x1F ADD PUSH1 0x20 SWAP1 DIV DUP3 ADD JUMPDEST DUP3 DUP2 GT ISZERO PUSH2 0x4DD JUMPI DUP3 SLOAD DUP3 SSTORE SWAP2 PUSH1 0x1 ADD SWAP2 SWAP1 PUSH1 0x1 ADD SWAP1 PUSH2 0x4C2 JUMP JUMPDEST JUMPDEST POP SWAP1 POP PUSH2 0x4EB SWAP2 SWAP1 PUSH2 0x4EF JUMP JUMPDEST POP SWAP1 JUMP JUMPDEST JUMPDEST DUP1 DUP3 GT ISZERO PUSH2 0x508 JUMPI PUSH1 0x0 DUP2 PUSH1 0x0 SWAP1 SSTORE POP PUSH1 0x1 ADD PUSH2 0x4F0 JUMP JUMPDEST POP SWAP1 JUMP JUMPDEST PUSH1 0x0 PUSH2 0x51F PUSH2 0x51A DUP5 PUSH2 0x766 JUMP JUMPDEST PUSH2 0x741 JUMP JUMPDEST SWAP1 POP DUP3 DUP2 MSTORE PUSH1 0x20 DUP2 ADD DUP5 DUP5 DUP5 ADD GT ISZERO PUSH2 0x53B JUMPI PUSH2 0x53A PUSH2 0x8C5 JUMP JUMPDEST JUMPDEST PUSH2 0x546 DUP5 DUP3 DUP6 PUSH2 0x7BD JUMP JUMPDEST POP SWAP4 SWAP3 POP POP POP JUMP JUMPDEST PUSH1 0x0 DUP3 PUSH1 0x1F DUP4 ADD SLT PUSH2 0x563 JUMPI PUSH2 0x562 PUSH2 0x8C0 JUMP JUMPDEST JUMPDEST DUP2 CALLDATALOAD PUSH2 0x573 DUP5 DUP3 PUSH1 0x20 DUP7 ADD PUSH2 0x50C JUMP JUMPDEST SWAP2 POP POP SWAP3 SWAP2 POP POP JUMP JUMPDEST PUSH1 0x0 DUP2 CALLDATALOAD SWAP1 POP PUSH2 0x58B DUP2 PUSH2 0x90E JUMP JUMPDEST SWAP3 SWAP2 POP POP JUMP JUMPDEST PUSH1 0x0 PUSH1 0x20 DUP3 DUP5 SUB SLT ISZERO PUSH2 0x5A7 JUMPI PUSH2 0x5A6 PUSH2 0x8CF JUMP JUMPDEST JUMPDEST PUSH1 0x0 PUSH2 0x5B5 DUP5 DUP3 DUP6 ADD PUSH2 0x57C JUMP JUMPDEST SWAP2 POP POP SWAP3 SWAP2 POP POP JUMP JUMPDEST PUSH1 0x0 DUP1 PUSH1 0x0 DUP1 PUSH1 0x80 DUP6 DUP8 SUB SLT ISZERO PUSH2 0x5D8 JUMPI PUSH2 0x5D7 PUSH2 0x8CF JUMP JUMPDEST JUMPDEST PUSH1 0x0 PUSH2 0x5E6 DUP8 DUP3 DUP9 ADD PUSH2 0x57C JUMP JUMPDEST SWAP5 POP POP PUSH1 0x20 DUP6 ADD CALLDATALOAD PUSH8 0xFFFFFFFFFFFFFFFF DUP2 GT ISZERO PUSH2 0x607 JUMPI PUSH2 0x606 PUSH2 0x8CA JUMP JUMPDEST JUMPDEST PUSH2 0x613 DUP8 DUP3 DUP9 ADD PUSH2 0x54E JUMP JUMPDEST SWAP4 POP POP PUSH1 0x40 DUP6 ADD CALLDATALOAD PUSH8 0xFFFFFFFFFFFFFFFF DUP2 GT ISZERO PUSH2 0x634 JUMPI PUSH2 0x633 PUSH2 0x8CA JUMP JUMPDEST JUMPDEST PUSH2 0x640 DUP8 DUP3 DUP9 ADD PUSH2 0x54E JUMP JUMPDEST SWAP3 POP POP PUSH1 0x60 DUP6 ADD CALLDATALOAD PUSH8 0xFFFFFFFFFFFFFFFF DUP2 GT ISZERO PUSH2 0x661 JUMPI PUSH2 0x660 PUSH2 0x8CA JUMP JUMPDEST JUMPDEST PUSH2 0x66D DUP8 DUP3 DUP9 ADD PUSH2 0x54E JUMP JUMPDEST SWAP2 POP POP SWAP3 SWAP6 SWAP2 SWAP5 POP SWAP3 POP JUMP JUMPDEST PUSH1 0x0 PUSH2 0x684 DUP3 PUSH2 0x797 JUMP JUMPDEST PUSH2 0x68E DUP2 DUP6 PUSH2 0x7A2 JUMP JUMPDEST SWAP4 POP PUSH2 0x69E DUP2 DUP6 PUSH1 0x20 DUP7 ADD PUSH2 0x7CC JUMP JUMPDEST PUSH2 0x6A7 DUP2 PUSH2 0x8D4 JUMP JUMPDEST DUP5 ADD SWAP2 POP POP SWAP3 SWAP2 POP POP JUMP JUMPDEST PUSH1 0x0 PUSH2 0x6BF PUSH1 0x15 DUP4 PUSH2 0x7A2 JUMP JUMPDEST SWAP2 POP PUSH2 0x6CA DUP3 PUSH2 0x8E5 JUMP JUMPDEST PUSH1 0x20 DUP3 ADD SWAP1 POP SWAP2 SWAP1 POP JUMP JUMPDEST PUSH1 0x0 PUSH1 0x60 DUP3 ADD SWAP1 POP DUP2 DUP2 SUB PUSH1 0x0 DUP4 ADD MSTORE PUSH2 0x6EF DUP2 DUP7 PUSH2 0x679 JUMP JUMPDEST SWAP1 POP DUP2 DUP2 SUB PUSH1 0x20 DUP4 ADD MSTORE PUSH2 0x703 DUP2 DUP6 PUSH2 0x679 JUMP JUMPDEST SWAP1 POP DUP2 DUP2 SUB PUSH1 0x40 DUP4 ADD MSTORE PUSH2 0x717 DUP2 DUP5 PUSH2 0x679 JUMP JUMPDEST SWAP1 POP SWAP5 SWAP4 POP POP POP POP JUMP JUMPDEST PUSH1 0x0 PUSH1 0x20 DUP3 ADD SWAP1 POP DUP2 DUP2 SUB PUSH1 0x0 DUP4 ADD MSTORE PUSH2 0x73A DUP2 PUSH2 0x6B2 JUMP JUMPDEST SWAP1 POP SWAP2 SWAP1 POP JUMP JUMPDEST PUSH1 0x0 PUSH2 0x74B PUSH2 0x75C JUMP JUMPDEST SWAP1 POP PUSH2 0x757 DUP3 DUP3 PUSH2 0x831 JUMP JUMPDEST SWAP2 SWAP1 POP JUMP JUMPDEST PUSH1 0x0 PUSH1 0x40 MLOAD SWAP1 POP SWAP1 JUMP JUMPDEST PUSH1 0x0 PUSH8 0xFFFFFFFFFFFFFFFF DUP3 GT ISZERO PUSH2 0x781 JUMPI PUSH2 0x780 PUSH2 0x891 JUMP JUMPDEST JUMPDEST PUSH2 0x78A DUP3 PUSH2 0x8D4 JUMP JUMPDEST SWAP1 POP PUSH1 0x20 DUP2 ADD SWAP1 POP SWAP2 SWAP1 POP JUMP JUMPDEST PUSH1 0x0 DUP2 MLOAD SWAP1 POP SWAP2 SWAP1 POP JUMP JUMPDEST PUSH1 0x0 DUP3 DUP3 MSTORE PUSH1 0x20 DUP3 ADD SWAP1 POP SWAP3 SWAP2 POP POP JUMP JUMPDEST PUSH1 0x0 DUP2 SWAP1 POP SWAP2 SWAP1 POP JUMP JUMPDEST DUP3 DUP2 DUP4 CALLDATACOPY PUSH1 0x0 DUP4 DUP4 ADD MSTORE POP POP POP JUMP JUMPDEST PUSH1 0x0 JUMPDEST DUP4 DUP2 LT ISZERO PUSH2 0x7EA JUMPI DUP1 DUP3 ADD MLOAD DUP2 DUP5 ADD MSTORE PUSH1 0x20 DUP2 ADD SWAP1 POP PUSH2 0x7CF JUMP JUMPDEST DUP4 DUP2 GT ISZERO PUSH2 0x7F9 JUMPI PUSH1 0x0 DUP5 DUP5 ADD MSTORE JUMPDEST POP POP POP POP JUMP JUMPDEST PUSH1 0x0 PUSH1 0x2 DUP3 DIV SWAP1 POP PUSH1 0x1 DUP3 AND DUP1 PUSH2 0x817 JUMPI PUSH1 0x7F DUP3 AND SWAP2 POP JUMPDEST PUSH1 0x20 DUP3 LT DUP2 EQ ISZERO PUSH2 0x82B JUMPI PUSH2 0x82A PUSH2 0x862 JUMP JUMPDEST JUMPDEST POP SWAP2 SWAP1 POP JUMP JUMPDEST PUSH2 0x83A DUP3 PUSH2 0x8D4 JUMP JUMPDEST DUP2 ADD DUP2 DUP2 LT PUSH8 0xFFFFFFFFFFFFFFFF DUP3 GT OR ISZERO PUSH2 0x859 JUMPI PUSH2 0x858 PUSH2 0x891 JUMP JUMPDEST JUMPDEST DUP1 PUSH1 0x40 MSTORE POP POP POP JUMP JUMPDEST PUSH32 0x4E487B7100000000000000000000000000000000000000000000000000000000 PUSH1 0x0 MSTORE PUSH1 0x22 PUSH1 0x4 MSTORE PUSH1 0x24 PUSH1 0x0 REVERT JUMPDEST PUSH32 0x4E487B7100000000000000000000000000000000000000000000000000000000 PUSH1 0x0 MSTORE PUSH1 0x41 PUSH1 0x4 MSTORE PUSH1 0x24 PUSH1 0x0 REVERT JUMPDEST PUSH1 0x0 DUP1 REVERT JUMPDEST PUSH1 0x0 DUP1 REVERT JUMPDEST PUSH1 0x0 DUP1 REVERT JUMPDEST PUSH1 0x0 DUP1 REVERT JUMPDEST PUSH1 0x0 PUSH1 0x1F NOT PUSH1 0x1F DUP4 ADD AND SWAP1 POP SWAP2 SWAP1 POP JUMP JUMPDEST PUSH32 0x416363657373206973206E6F7420616C6C6F7765640000000000000000000000 PUSH1 0x0 DUP3 ADD MSTORE POP JUMP JUMPDEST PUSH2 0x917 DUP2 PUSH2 0x7B3 JUMP JUMPDEST DUP2 EQ PUSH2 0x922 JUMPI PUSH1 0x0 DUP1 REVERT JUMPDEST POP JUMP INVALID LOG2 PUSH5 0x6970667358 0x22 SLT KECCAK256 0xEA 0xBA 0xD5 0xDE ADDRESS 0xCE 0x5F 0x49 0xF7 DUP1 0xC1 SWAP3 0xAE 0xDA 0x2F SIGNEXTEND SSTORE 0xE9 0x4E GT 0xDF 0x22 STATICCALL 0xD4 0xE PUSH16 0xFA333CEF408D64736F6C634300080700 CALLER "
				},
				"gasEstimates": {
					"creation": {
						"codeDepositCost": "479000",
						"executionCost": "24777",
						"totalCost": "503777"
					},
					"external": {
						"retreive_hospital_details(uint256)": "infinite",
						"store_doctor_details(uint256,string,string,string)": "infinite"
					}
				},
				"methodIdentifiers": {
					"retreive_hospital_details(uint256)": "c1a4cfb6",
					"store_doctor_details(uint256,string,string,string)": "1ae73fe1"
				}
			},
			"storageLayout": {
				"storage": [
					{
						"astId": 8,
						"contract": "hospital.sol:Hospital",
						"label": "hospitallist",
						"offset": 0,
						"slot": "0",
						"type": "t_mapping(t_uint256,t_struct(hospital)15_storage)"
					},
					{
						"astId": 18,
						"contract": "hospital.sol:Hospital",
						"label": "h",
						"offset": 0,
						"slot": "1",
						"type": "t_struct(hospital)15_storage"
					},
					{
						"astId": 20,
						"contract": "hospital.sol:Hospital",
						"label": "owner",
						"offset": 0,
						"slot": "4",
						"type": "t_address"
					}
				],
				"types": {
					"t_address": {
						"encoding": "inplace",
						"label": "address",
						"numberOfBytes": "20"
					},
					"t_mapping(t_uint256,t_struct(hospital)15_storage)": {
						"encoding": "mapping",
						"key": "t_uint256",
						"label": "mapping(uint256 => struct Hospital.hospital)",
						"numberOfBytes": "32",
						"value": "t_struct(hospital)15_storage"
					},
					"t_string_storage": {
						"encoding": "bytes",
						"label": "string",
						"numberOfBytes": "32"
					},
					"t_struct(hospital)15_storage": {
						"encoding": "inplace",
						"label": "struct Hospital.hospital",
						"members": [
							{
								"astId": 10,
								"contract": "hospital.sol:Hospital",
								"label": "hospital_name",
								"offset": 0,
								"slot": "0",
								"type": "t_string_storage"
							},
							{
								"astId": 12,
								"contract": "hospital.sol:Hospital",
								"label": "hospital_address",
								"offset": 0,
								"slot": "1",
								"type": "t_string_storage"
							},
							{
								"astId": 14,
								"contract": "hospital.sol:Hospital",
								"label": "hospital_spec",
								"offset": 0,
								"slot": "2",
								"type": "t_string_storage"
							}
						],
						"numberOfBytes": "96"
					},
					"t_uint256": {
						"encoding": "inplace",
						"label": "uint256",
						"numberOfBytes": "32"
					}
				}
			},
			"userdoc": {
				"kind": "user",
				"methods": {},
				"version": 1
			}
		}
	}
}